:020000040800F2
:100000007822002031020008390200083B02000873
:100010003D0200083F020008410200080000000005
:10002000000000000000000000000000990100082E
:100030004502000800000000DD0100089D1D0008C9
:100040004B0200084B0200084B0200084B0200085C
:100050004B0200084B0200084B0200084B0200084C
:100060004B0200084B0200084B0200084B0200083C
:100070004B0200084B0200084B020008F50600087E
:10008000010700084B0200084B0200084B02000861
:100090004B0200084B0200084B0200084B0200080C
:1000A0004B020008191E00084B0200084B02000812
:1000B0004B0200084B0200084B0200084B020008EC
:1000C0004B0200084B0200084B0200084B020008DC
:1000D0004B020008252300084D2300084B020008AE
:1000E0004B0200084B0200084B02000800F002F827
:1000F00000F042F80AA090E8000C82448344AAF180
:100100000107DA4501D100F037F8AFF2090EBAE87D
:100110000F0013F0010F18BFFB1A43F0010318473B
:1001200084470000A4470000103A24BF78C878C173
:10013000FAD8520724BF30C830C144BF04680C60ED
:10014000704700000023002400250026103A28BF35
:1001500078C1FBD8520728BF30C148BF0B60704739
:10016000642900F0F980732900F08582002070472F
:100170001FB51FBD10B510BD00F081FA1146FFF785
:10018000F7FF02F089F900F09FFA03B4FFF7F2FFDE
:1001900003BC00F0A7FA0000224B19680868B0E819
:1001A000F00F80F30988BFF36F8F4FF0000080F3EA
:1001B00011884EF00D0E70470000000006480068E0
:1001C000006880F3088862B661B6BFF34F8FBFF353
:1001D0006F8F00DF00BF00BF08ED00E0EFF3098084
:1001E000BFF36F8F0F4B1A6820E9F00F106008B54E
:1001F0004FF0500080F31188BFF34F8FBFF36F8F24
:1002000003F08CF94FF0000080F31188BDE808403E
:1002100019680868B0E8F00F80F30988BFF36F8FA2
:10022000704700BF48000020EFF3058070470000D2
:100230000948804709480047FEE7FEE7FEE7FEE77A
:10024000FEE7FEE7FEE7FEE7FEE7FEE704480549B6
:10025000054A064B70470000151E0008ED00000817
:10026000781C002078220020781E0020781E0020B4
:100270000FB41CB5084B06AA7B446946009005984C
:1002800000F0CFF904460020694600F0DDF9204671
:100290001CBC5DF814FB0000CD0300002DE9F0410B
:1002A0000E460446002020622046E168884730B3AD
:1002B000252805D0D4E901219047206A401CF2E7A7
:1002C000E168204600278847050018D0A5F14100C5
:1002D000192802D820354FF40067324629462046B7
:1002E0002760FFF73DFF40B1012804D0F61D26F03E
:1002F00007060836D8E7361DD6E72846DAE7206A2B
:10030000BDE8F08170B50C460546012A05D0287875
:10031000800600D5EA69002302E0012305E05B1CAA
:10032000934202D2E05C0028F9D1A869E618C01A0D
:10033000A861286A184428622846AFF3008004E0C8
:10034000D5E9012114F8010B9047B442F8D32846AF
:10035000AFF3008070BD00002DE9F0410646002497
:1003600010687529314616A510D0AFF3008000281B
:1003700002DA404213A507E031688A0701D512A5C9
:1003800002E0490704D511A5012401E0AFF3008084
:1003900000210A2206F1240709E0B0FBF2FCB0FBC1
:1003A000F2F302FB1C00303078541846491C002838
:1003B000F3D123462A463046BDE8F04100F0D3B8D9
:1003C000000000002D0000002B00000020000000B5
:1003D000032A40F2308010F0030C00F0158011F871
:1003E000013BBCF1020F624498BF11F801CB00F849
:1003F000013B38BF11F8013BA2F1040298BF00F89D
:1004000001CB38BF00F8013B11F0030300F0258059
:10041000083AC0F0088051F8043B083A51F804CB80
:10042000A0E80810F5E7121D5CBF51F8043B40F846
:10043000043BAFF30080D20724BF11F8013B11F851
:1004400001CB48BF11F8012B24BF00F8013B00F895
:1004500001CB48BF00F8012B704710B5203AC0F01F
:100460000B80B1E81850203AA0E81850B1E81850B5
:10047000A0E81850BFF4F5AF5FEA027C24BFB1E8F2
:100480001850A0E8185044BF18C918C0BDE8104063
:100490005FEA827C24BF51F8043B40F8043B08BF6C
:1004A0007047D20728BF31F8023B48BF11F8012B33
:1004B00028BF20F8023B48BF00F8012B704702F02C
:1004C000FF0343EA032242EA024200F002B84FF07F
:1004D00000020429C0F0128010F0030C00F01B8011
:1004E000CCF1040CBCF1020F18BF00F8012BA8BF1F
:1004F00020F8022BA1EB0C0100F00DB85FEAC17CE3
:1005000024BF00F8012B00F8012B48BF00F8012B95
:1005100070474FF0000200B51346944696462039C6
:1005200022BFA0E80C50A0E80C50B1F12001BFF4AC
:10053000F7AF090728BFA0E80C5048BF0CC05DF812
:1005400004EB890028BF40F8042B08BF704748BF60
:1005500020F8022B11F0804F18BF00F8012B7047D4
:100560007047704770472DE9F0470D46994692460F
:10057000044600F124080168880604D5E06921F0EA
:100580001001216000E00120A84201DD471B00E0CE
:100590000027A1697A1902EB0900081AA0612078E6
:1005A000C00602D42046AFF30080002608E0D4E95C
:1005B00001211AF806009047206A401C761C206230
:1005C0004E45F4DB2078C0060AD52046AFF3008004
:1005D00006E0D4E9012130209047206A401C2062C7
:1005E000381EA7F10107F4DC07E0D4E9012118F86F
:1005F00005009047206A401C2062281EA5F10105D5
:10060000F3DC2046AFF300802078000602D50220FC
:10061000BDE8F0870120FBE701694A1C0261087808
:10062000704700B58FB0CDE9013100210591054932
:100630007944CDE9031011466846FFF72FFE0FB04D
:1006400000BD0000E5FFFFFF0A6802F8010B0A6029
:10065000704710B5436913B1AFF3008001E0FFF7B5
:1006600051FE012010BD127800F124010A70002211
:100670004A700122EDE711684FF0FF32E9E7754655
:1006800000F02CF8AE4605006946534620F00700FE
:10069000854618B020B5FFF7D9FDBDE820404FF0E2
:1006A00000064FF000074FF000084FF0000B21F05C
:1006B0000701AC46ACE8C009ACE8C009ACE8C00929
:1006C000ACE8C0098D46704710B50446AFF3008012
:1006D0002046BDE81040FFF758BD000000487047B5
:1006E000181C002001491820ABBEFEE726000200BE
:1006F00070470000014800F08FB80000F0010020B2
:10070000014800F089B800003402002030B590F8AC
:1007100040500124AC40C56B6C6004686360436862
:10072000102B036803D099600068C26030BD9A60E6
:100730000068C16030BD72B6FEE710B590F82110B8
:100740000022022905D00421816380F820200120A5
:1007500010BD01680B6823F00E030B6001680B6885
:1007600023F001030B6090F84030C46B012101FAC3
:1007700003F3636080F8211080F82020104610BD3C
:1007800010B590F821100024022903D004218163C0
:1007900001243DE001680A6822F00E020A60016847
:1007A0000A6822F001020A601A4A0168914201D1E6
:1007B000012121E0174A1432914201D110211BE09E
:1007C000144A2832914201D1891515E0114A3C3270
:1007D000914201D189140FE00E4A5032914202D168
:1007E0004FF4803108E00B4A6432914202D14FF459
:1007F000801101E04FF08071064A083A51600121F2
:1008000080F82110002180F82010416B01B1884749
:10081000204610BD080002402DE9F05FC16B0C6856
:1008200001680B68D0F840C0042202FA0CF2494D6E
:10083000DFF824A1494E4A4FDFF828B1DFF828E15C
:1008400022422CD05A072AD50A68920603D40A6895
:1008500022F004020A600168A94201D1042219E0D1
:10086000514501D1402215E0B14202D14FF48062DE
:1008700010E0B94202D14FF480420BE0594502D159
:100880004FF4802206E0714502D14FF4800201E06E
:100890004FF080622F4908394A60C16A3BE04FF04F
:1008A000020808FA0CF818EA040F4FF000094FF09C
:1008B000010235D05FEA837832D50B689B0605D4F8
:1008C0000B6823F00A030B6080F821200168A9421D
:1008D00001D1022219E0514501D1202215E0B14297
:1008E00002D14FF4007210E0B94202D14FF400522D
:1008F0000BE0594502D14FF4003206E0714502D1B8
:100900004FF4001201E04FF00072124908394A60BA
:1009100080F82090816A00291AD0BDE8F05F08476E
:10092000082505FA0CF5254212D01B0710D50B68D7
:1009300023F00E030B6090F84010C36B02FA01F134
:100940005960826380F8212080F82090016BE2E7F3
:10095000BDE8F09F080002401C0002403000024049
:1009600044000240580002406C00024030B528B3F9
:1009700008C8134914221944B1FBF2F18900C1637C
:1009800010498163022141771A6843F6F0718A4366
:10099000D0E900142143D0E902452C4321430469E6
:1009A0002143446921438469214311431960002193
:1009B0004163012242770177084630BD012030BDF6
:1009C000F8FFFDBF0000024070B5044690F820001B
:1009D000002501280CD0012084F8200094F8216023
:1009E0000020012E06D084F820000225284670BD84
:1009F000022070BD022684F82160A063206806688A
:100A000026F0010606602046FFF780FEE06A002817
:100A10002068016802D041F00E0106E021F00401D7
:100A200001602068016841F00A01016020680168E6
:100A300041F001010160D9E72DE9F84FDFF8B891E5
:100A40000024A9F1040B23460F2709F1040AABF196
:100A5000040EC9E00125A5402A40AA427DD1674E77
:100A6000D1F804C0ACEB0608B44532D014DCBCF1BC
:100A7000030F3AD009DCBCF1000F2AD0BCF1010F02
:100A80001CD0BCF1020F31D11DE0BCF1110F17D009
:100A9000BCF1120F2AD119E0B8F5881F19D006DC75
:100AA000B8F5803F15D0B8F5801F1FD111E0B8F51B
:100AB000001F0ED0B8F5041F18D10AE0CB6815E06E
:100AC000CB681B1D12E0CB6808330FE0CB680C33FA
:100AD0000CE08B682BB1012B4FF0080303D045616C
:100AE00004E0042302E0056100E00023FF2A01D8AE
:100AF000064601E000F104064FEA840501D9A5F19C
:100B00002005D6F8008007FA05FC28EA0C0803FA4D
:100B100005F548EA0508C6F800804D68ED0062D585
:100B2000374DAE6946F00106AE61AD6924F00306AB
:100B300005F001050095334D06EB050CDCF8085077
:100B4000A607360F07FA06F825EA0805DFF8B88089
:100B5000404503D14FF0000817E044E0DFF8AC80D7
:100B6000404502D14FF001080FE0DFF8A480404576
:100B700002D14FF0020808E0DFF89880404502D12A
:100B80004FF0030801E04FF0040808FA06F848EABD
:100B90000508CCF808804D68D9F80060ED024D4694
:100BA00001D5164300E096432E604D68DAF80060E8
:100BB000AD02554601D5164300E096432E604D68C0
:100BC000DBF80060AD035D4601D5164300E09643B7
:100BD0002E604D68DEF80060ED03754601D51643C2
:100BE00000E096432E60641C0D682A46E5407FF4C1
:100BF00031AFBDE8F88F000008040140000011107B
:100C0000001002400000014000080140000C0140BB
:100C100000100140001401400AB10161704709044D
:100C2000FBE70000014880687047000038000020A2
:100C300002488168027811448160704738000020C2
:100C4000074810B5016841F010010160032000F071
:100C5000A1F80F2000F006F800F04AF8002010BDBF
:100C60000020024030B505461C4887B0816941F438
:100C700000618161806906A900F40060009001A80C
:100C800000F030F900F05EF91549164AB0FBF1F1B9
:100C90001548491E0260416040F2E7320021C0E978
:100CA00003218160816100F015FB040012D10E4820
:100CB00000F03EFB04000DD1192000F03DF8102D8E
:100CC00007D200222946192000F044F807480560A1
:100CD00000E0012407B0204630BD000000100240B3
:100CE00040420F00002C0140780200203C00002010
:100CF0000F4808B5816941F001018161816901F006
:100D000001010091C16941F08051C161C0690022B7
:100D100000F0805000900F21901E00F01BF8054855
:100D2000416821F0E06141F00071416008BD0000C0
:100D30000010024000000140002809DB00F01F0203
:100D4000012191404009800000F1E020C0F800112D
:100D500070470000F0B40E4B1B680C46C3F302232F
:100D6000C3F10705042D00D90425191D072901D257
:100D7000002300E0DB1E012606FA05F1491E214092
:100D800099409E40761E16403143F0BC01F024BBD2
:100D90000CED00E0064900F0070208684FF6FF037B
:100DA000184040EA0220034A1043086070470000E0
:100DB0000CED00E00000FA052DE9F0470F460500B4
:100DC00061D0434E306800F00700B84209D2306865
:100DD00020F0070038433060306800F00700B84268
:100DE00051D128683B4C810712D5400703D5606874
:100DF00040F4E06060602878000703D5606840F444
:100E0000605060606068A96820F0F000084360608E
:100E10002878C00728D06868012810D021680228E7
:100E200010D0890700292EDA616821F003010143FF
:100E30006160FFF7F7FE804641F288390DE02168D6
:100E40008903EFE78901EDE7FFF7ECFEA0EB08016E
:100E5000494502D90320BDE8F0876068696800F061
:100E60000C00B0EB810FEFD1306800F00700B84202
:100E70000BD9306820F0070038433060306800F04C
:100E80000700B84201D00120E5E72878400705D5E2
:100E90006068E96820F4E060084360602878000733
:100EA00006D56068296920F4605040EAC10060609E
:100EB00000F058F86168084AC1F30311515CC8405A
:100EC0000649086006480068FFF7CCFE0020C2E72C
:100ED0000020024000100240164800084400002094
:100EE0003C0000200F2202600C4A536803F0030309
:100EF0004360536803F0F0038360536803F4E063D6
:100F0000C36052684FF4E06303EAD202026104480E
:100F1000006800F007000860704700000010024001
:100F2000002002400448054900684968044AC1F3AA
:100F30000221515CC840704744000020001002406C
:100F4000264800080448054900684968044AC1F376
:100F5000C221515CC840704744000020001002408C
:100F6000264800080E4A51680E4801F00C03042B75
:100F700011D0082B0FD10C48C1F38343C903C05CC7
:100F80000AD55168084AC1F34041921E515C054A96
:100F90005043B0FBF1F070470449484370470000EC
:100FA0000010024000127A000648000800093D00C7
:100FB0002DE9F84F040070D02078C04DC00749D00B
:100FC0006868C0F38100012807D06868C0F3810019
:100FD000022809D16868C00306D52868800339D57E
:100FE00060680028E7D035E06068B0F5803F0BD03E
:100FF00010B1B0F5A02F11D0286820F480302860FF
:10100000286820F4802002E0286840F480302860BE
:10101000606890B1FFF706FE06460AE0286840F4D3
:1010200080202860F0E700BFFFF7FCFD801B6428EC
:1010300073D828688003F7D50CE0FFF7F3FD064668
:1010400005E000BFFFF7EEFD801B6428F0D828689C
:101050008003F7D420789A4E80074FF001094FF0B3
:10106000000839D5686810F00C0F07D06868C0F325
:101070008100022809D16868C00306D42868800767
:1010800014D52069012808D110E02069B0B1C6F854
:101090000090FFF7C7FD074605E00AE1FFF7C2FD34
:1010A000C01B0228C4D828688007F7D52868616962
:1010B00020F0F80040EAC10028600DE0C6F800808A
:1010C000FFF7B0FD074604E0FFF7ACFDC01B0228A8
:1010D00023D828688007F7D4207800072CD57948D2
:1010E000A169D9B1C0F80090FFF79CFD074604E064
:1010F000FFF798FDC01B02280FD8686A8007F7D554
:1011000071484FF4FA510068B0FBF1F0009000BF55
:101110000098411E0091FAD20EE080E0C0F80080F5
:10112000FFF780FD074604E0FFF77CFDC01B0228A7
:1011300075D8686A8007F7D42078400760D5E869D9
:101140000027C00008D4E86940F08050E861E869F1
:10115000012700F0805000905C480168C90513D455
:101160000168834641F480710160FFF75BFD8246B0
:1011700006E000BFFFF756FDA0EB0A0064284ED83A
:10118000DBF80000C005F5D5E06801280AD008B1F9
:10119000052813D0286A20F001002862286A20F070
:1011A000040002E0286A40F001002862E06841F291
:1011B000883B98B1FFF736FD82460BE0286A40F085
:1011C00004002862EEE700BFFFF72CFDA0EB0A0148
:1011D00059455AD8286A8007F6D50CE0FFF722FD5A
:1011E000824605E0FFF71EFDA0EB0A0159454CD8E9
:1011F000286A8007F6D41FB1E86920F08050E861C2
:10120000E06988B36968C1F38101022944D00228EA
:10121000C6F8608004D0FFF705FD044638E034E0EE
:10122000FFF700FD074604E0FFF7FCFCC01B0228A7
:101230002BD828688001F7D4206AB0F5803F05D10B
:101240006868A16820F4003008436860D4E90801A8
:101250000843696821F4741108436860C6F8609017
:10126000FFF7E0FC044606E025E000BFFFF7DAFCEC
:10127000001B022809D828688001F7D51BE000BFB1
:10128000FFF7D0FC001B022802D90320BDE8F88F2D
:1012900028688001F4D40EE00128F7D06868226A3B
:1012A00000F48031914204D1616A00F470108842E8
:1012B00001D00120EAE70020E8E70000001002402A
:1012C000000042428004424244000020007000407E
:1012D0007047704710B5040003D094F83D0010B17A
:1012E00007E0012010BD002084F83C00204600F0FB
:1012F0001EF8022084F83D00211D206800F092FDB8
:10130000012084F8460084F83E0084F83F0084F809
:10131000400084F8410084F8420084F8430084F8D7
:10132000440084F8450084F83D00002010BD70475B
:1013300090F83D10012901D001207047022180F86A
:101340003D100168CA6842F00102CA6000680B499A
:10135000884208D0B0F1804F05D00949884202D0B8
:101360000849884204D1816801F00701062903D0A9
:10137000016841F00101016000207047002C01402C
:10138000000400400008004070472DE9F041044689
:101390000068C66805694FF00007A90713D5B107B3
:1013A00011D5F91E0161012020772068806980072E
:1013B000204602D0FFF7E8FF04E000F07EF8204668
:1013C00000F07CF82777680716D5700714D52168D8
:1013D0006FF004000861022020772068806910F413
:1013E000407F204602D0FFF7CFFF04E000F065F811
:1013F000204600F063F82777280715D5300713D566
:1014000021686FF008000861042020772068C06917
:101410008007204602D0FFF7B7FF04E000F04DF848
:10142000204600F04BF82777E80616D5F00614D5CD
:1014300021686FF010000861082020772068C069DB
:1014400010F4407F204602D0FFF79EFF04E000F03A
:1014500034F8204600F032F82777E80708D0F00784
:1014600006D021686FF001000861204600F028F8DE
:10147000280608D5300606D521686FF0800008617F
:101480002046FFF725FF680608D5700606D52168B7
:101490006FF040000861204600F01CF8A8060AD54D
:1014A000B00608D521686FF0200008612046BDE82D
:1014B000F041FFF70EBFBDE8F081704770470000B4
:1014C00000680349884201D1FFF7B2BB70470000B2
:1014D000002C01407047704710B504460068406911
:1014E00094F84110C0F3C010212911D180B12068B7
:1014F000143050E8001F21F0800140E80012002A5B
:10150000F5D1A06B08B1FFF718F9204600F0BCFD3B
:101510002068406994F84210C0F38010222911D14C
:1015200080B12068143050E8001F21F0400140E8ED
:101530000012002AF5D1E06B08B1FFF7FEF8204653
:1015400000F07BFD002010BD70470000F8B5016879
:1015500004460868CA684B6910F00F0F4FF0000589
:1015600059D003F0010602F49077374365D0C107E4
:1015700005D0D10503D5616C41F0010161644107DB
:1015800005D5D90703D0616C41F002016164810780
:1015900005D5D90703D0616C41F0040161640107EE
:1015A00007D502F02001314303D0616C41F00801FE
:1015B0006164616C00293AD0800604D5900602D59A
:1015C000204600F06FFD20684069616CC0F3801018
:1015D000090700D460B3204600F02FFD2068406961
:1015E000400621D52068143050E8001F21F040014A
:1015F00040E80012002AF5D1E06BA8B16D494163C3
:10160000E06BFFF7BDF8002811D0E06B416B01B033
:10161000BDE8F040084783060FD593060DD5204658
:10162000BDE8F84000F03EBD2046FFF78DFFF8BD55
:101630002046FFF789FF6564F8BD266B2023012E45
:101640007CD1C6067AD5D60678D508684868009059
:1016500048694FF00206400640D5E16B08684068D3
:101660000004000CE8D0A28D8242E5D9E0858869AB
:1016700020282DD020680C3050E8001F21F4807104
:1016800040E80012002AF5D12068143050E8001F0D
:1016900021F0010140E80012002AF5D12068143041
:1016A00050E8001F21F0400140E80012002AF5D167
:1016B00084F84230256320680C3050E8001F21F088
:1016C000100140E80012002AF5D1E06BFFF735F871
:1016D0006663A08DE18D401A81B22AE0A08DE18D74
:1016E000401A81B2E08D0028A6D00029A4D022683B
:1016F0000C3252E8000F20F4907042E80007002FEF
:10170000F5D12068143050E8002F22F0010240E8A3
:101710000027002FF5D184F84230256320680C3073
:1017200050E8002F22F0100240E80023002BF5D1F2
:1017300066632046FFF7CFFEF8BDFFE705062BD511
:10174000150629D594F841002128F5D1A068B0F5F7
:10175000805F01D12069B0B1206A411C21622168FB
:1017600000784860E08C401E0004000CE084E3D167
:101770002068C16821F08001C1602068C16841F023
:101780004001C160D8E7206A0088C0F308004860C3
:10179000206A801C2062E5E74006CDD55006CBD5F7
:1017A000CA68204622F04002CA6084F8413000F046
:1017B0002FF9C1E73D1F000870B5040004D094F86C
:1017C0004100002510B106E0012070BD84F84050B2
:1017D000204600F023F8242084F841002068C168E6
:1017E00021F40051C160204600F0BEFC2068016970
:1017F00021F4904101612068416921F02A01416191
:101800002068C16841F40051C1606564202084F8FB
:10181000410084F842006563002070BDF0B585B0DA
:10182000002400940194029403940646DFF808C152
:101830000368424802210322414D8027634538D185
:10184000836943F480438361836903F48043049391
:10185000836943F0040383618069039200F004000C
:1018600004900802CDE9000169462846FFF7E4F834
:101870002815CDE90004694628460294FFF7DCF8F4
:10188000314D3048C5E90004C5E902472C616C615F
:10189000AC612846EC61FFF769F808B1FEF74BFF31
:1018A000F5630022052125206E62FFF753FA2520FB
:1018B0003DE0DFF898C063453BD1C36943F4003392
:1018C000C361C36903F400330493836943F00403E1
:1018D00083618069039200F0040004900420CDE944
:1018E000000169462846FFF7A7F80820CDE9000463
:1018F000694628460294FFF79FF8134D1148443576
:101900001430C5E90004C5E902472C616C61AC6183
:101910002846EC61FFF72AF808B1FEF70CFFF563E3
:101920000022052126206E62FFF714FA2620FFF719
:1019300003FA05B0F0BD000000380140001002407D
:101940000008014058000240F0010020004400401F
:1019500090F84230202B01D00220704721B11AB1FB
:101960000023036300F05CBC0120704770477047A0
:101970002DE9F843044690F84100984616460D4676
:10198000202802D00220BDE8F88385B17EB1002076
:101990006064212084F84100FFF744F9A684814661
:1019A000E684A0682027B0F5805F02D003E0012024
:1019B000E9E7206910B12E4600250EE000260CE074
:1019C0008021204600F074FCA8B9C6B116F8010BBE
:1019D00021684860E08C401EE084E08C4B464FF06C
:1019E0000002CDF800800028EAD14FF040012046E7
:1019F00000F05EFC40B184F841700320C3E735F885
:101A0000020BC0F30800E3E784F841700020BAE756
:101A1000704700000D4808B5416941F0010141617E
:101A20004069002200F00100009005210F20FFF71F
:101A300091F90F20FFF780F9002205211020FFF710
:101A400089F9BDE808401020FFF776B90010024080
:101A500010B50121184A084600F0D2FD174C164A6D
:101A6000012120621032084600F0CAFD124A01210D
:101A700060622032084600F0C3FD0F4AA062903A2F
:101A800000210F4800F034FE0B4A20616C3A00211F
:101A90000C4800F02DFE084A6061483A00210A48CF
:101AA00000F026FE044AA061243A0021074800F015
:101AB0001FFEE06110BD00005C4700080000002030
:101AC000091D0008D1230008A11C000829240008D2
:101AD00030B585B000241448009401940294039416
:101AE000816941F020018161816901F02001049147
:101AF000816941F00401816180690C4D00F00400AE
:101B00000490012210212846FFF786F8102000904B
:101B10000120CDE901040320039069462846FEF721
:101B20008BFF05B030BD00000010024000080140EE
:101B30000C4810B50A4901604FF4E13141600021C1
:101B400081600C22C160C0E904128161C161FFF7AC
:101B500033FE002803D0BDE81040FEF7ECBD10BDF9
:101B600000380140600100200C4810B50A490160AE
:101B70004FF416514160002181600C22C160C0E920
:101B800004128161C161FFF717FE002803D0BDE890
:101B90001040FEF7D0BD10BD00440040A801002059
:101BA0002DE9F0410C4637491646884233D1A01939
:101BB000002110F8012C10F8027C41EA0221324D7C
:101BC0000F43B11E6F86207885F82100607885F874
:101BD0002200204600F010FCB8420AD1082E0AD09C
:101BE000072E06D1A07805F8260FE078A870207996
:101BF0006870BDE8F08135F8240FA17840EA012033
:101C00002880E17808432880E878E87028796179AD
:101C100008432871EDE71D498842EAD120786178B0
:101C2000E27840EA0120A17841EA0221227941EAE2
:101C30000241627941EA0261A279DAB10025144ACF
:101C4000154E9570104AE37934328CB2108055806D
:101C5000516010490C80488073B100F04DFC4FF486
:101C6000FA7000F063FC284600F051FC0B48048039
:101C7000012004E00125E2E700F053FC0020307071
:101C8000B7E70000A8010020941B0020600100209D
:101C90002C000020C800002000000020360000209A
:101CA000164E174C4FF0FF3706F12C053946706A77
:101CB00000F078FCD0B994F82200032816D12179DD
:101CC000002040EA012194F82A000843A97801295C
:101CD00001D079B100E0288094F820200849094813
:101CE000FFF75EFF40210648FEF7F1FB012000F000
:101CF0001DFCDBE7401EC043EDE7000000000020B4
:101D0000941B0020A80100201E4C9EB000262078C5
:101D1000012811D0A6601C49A0680988884202D316
:101D2000267000F0FEFB1949606802F003FC02F027
:101D3000CDFB00F0FBFBEAE71548008802F0E6FB6C
:101D4000616802F0F7FB134902F0E2FAE16802F081
:101D5000DFFA02F09FFBA16878220844A0600E49D8
:101D60006846FEF77AFB00256F46208981B2C5EBF5
:101D7000051007EB400001F057F96D1CEDB2042D82
:101D8000F3D3C8E700000020C800002000007A4418
:101D9000CA000020000070428C47000810B54FF0C8
:101DA000E020006902F0C2F8012803D0BDE810402D
:101DB00001F03ABC10BD30B58FB028216846FEF75F
:101DC000A8FB14210AA8FEF7A4FB01210804CDE911
:101DD00000100024029402250491CDE907504FF42D
:101DE000E01009906846FFF7E3F808B172B6FEE725
:101DF0000F20CDE90A054FF48060CDE90C400221A7
:101E00000AA80E94FEF7D8FF002801D072B6FEE7AC
:101E10000FB030BD704700000148FFF7B6BA0000B0
:101E200078020020F0B50268194B1A4C1A4D4FF099
:101E30008047984205D0B84203D0A04201D0A842C2
:101E400003D122F070064A683243984205D0B84266
:101E500003D0A04201D0A84203D122F44074CA6842
:101E600022434C6922F08002224302608A68C262E7
:101E70000A688262984201D10969016301214161C6
:101E80000169C90703D0016921F001010161F0BDB9
:101E9000002C0140000400400008004010B50B4831
:101EA000FFF71AFB0A494878891CC01EC2B20948CC
:101EB00080F82020FEF78CFA0749012008700748B7
:101EC0000068BDE8104000F0E7BB000060010020A2
:101ED000E0000020941B0020340000202800002097
:101EE00010B51248FFF7F8FA1048C06B0068406858
:101EF0000F4CC0F14000C2B284F82020072A0FD353
:101F00000C492046FEF764FA607884F822004022EB
:101F100008490648FFF71CFD0748006800F0BCFBB5
:101F2000BDE8104040210348FEF7D1BAA8010020C7
:101F3000941B0020200100202400002010B5406ADE
:101F40000021C185C184FFF7FFFA10BD70B5446A56
:101F50002068406994F84110C0F3C0100025212981
:101F600004D118B1E584204600F08EF8206840695D
:101F700094F84210C0F38010222904D118B1E585ED
:101F8000204600F05AF8606C40F010006064204673
:101F9000FFF7DAFA70BD10B50146406A09680968B2
:101FA0004FF0000289062ED4C28501680C3151E839
:101FB000003F23F4807341E80034002CF5D1016820
:101FC000143151E8003F23F0010341E80034002CB4
:101FD000F5D10168143151E8003F23F0400341E896
:101FE0000034002CF5D1202180F84210016B01292A
:101FF00009D101680C3151E8003F23F0100341E89A
:102000000034002CF5D14263016B012902D0FFF7A7
:10201000ADFC10BD818DFFF75EFA10BD10B5406AB2
:1020200001214163016B012902D0FFF7A0FC10BD23
:10203000818D4908FFF74FFA10BD01680C3151E856
:10204000002F22F4907241E80023002BF5D10168A3
:10205000143151E8002F22F0010241E80023002B47
:10206000F5D1016B012909D101680C3151E8002F2C
:1020700022F0100241E80023002BF5D1202180F846
:10208000421000210163704701680C3151E8002FB4
:1020900022F0C00241E80023002BF5D1202180F876
:1020A0004110704708B590F84210222901D0022053
:1020B00008BD82684FF480539A4201D1016921B171
:1020C000816A9A421BD04AB10AE00268816A52686A
:1020D000C2F308020A80816A891C08E0026972B1B1
:1020E0000268526802F07F020A70816A491C8162AC
:1020F000C18D491E0904090CC18503D01BE002688B
:102100005268F1E70168CA6822F02002CA600168DB
:10211000CA6822F48072CA6001684A6922F001022A
:102120004A61202180F8421000214163026B012A9C
:1021300003D0FFF71BFC002008BD016301680C31D0
:1021400051E8002F22F0100241E80023002BF5D1C6
:1021500001680A68D20602D50A6849680091818D33
:10216000FFF7B9F9E7E7000070B5044600680169B8
:10217000E26821F44051114301612169A0680843DC
:10218000616908432168CA6841F20C639A430243BB
:10219000CA6020684169A26921F44071114341611C
:1021A0001E492068884202D1FEF7CCFE01E0FEF70E
:1021B000B9FE00EBC00101EB0012606864218000F1
:1021C000B2FBF0F3B3FBF1F36FF018067343B2FB0D
:1021D000F0F5B2FBF0F605EB8305322303EB0515B2
:1021E000B5FBF1F5B6FBF1F605F0F00505EB0615CC
:1021F000B2FBF0F6B2FBF0F0B0FBF1F06FF01802BA
:10220000504306EB800003EB0010B0FBF1F02168B7
:1022100000F00F002844886070BD000000380140C5
:1022200038B581620446828500201346606422220C
:1022300084F84220E56B1B4AAA62E56B1A4AEA62FF
:10224000E56B1A4A2A63E26B50630A462168E06B29
:10225000091DFEF7B9FB20680168406800902069FD
:1022600048B120680C3050E8001F41F4807140E80C
:102270000012002AF5D12068143050E8001F41F008
:10228000010140E80012002AF5D12068143050E81E
:10229000001F41F0400140E80012002AF5D1002063
:1022A00038BD0000971F00081D2000084D1F0008C2
:1022B0002DE9F843984617460D460446089E24E04B
:1022C000701C22D0FEF7AEFCA0EB0800B0421AD87A
:1022D000CEB12068C168490717D5802D15D0402D93
:1022E00013D00168C94309070FD40168002540686D
:1022F00000902046FFF7A1FE0820606484F840505B
:102300000120BDE8F8830320FBE72068006835EA78
:10231000000004D00020B842D2D00020F1E7012014
:10232000F9E7000008B50848FFF710F9064800680B
:102330000168C90606D5016840680090BDE80840FC
:10234000FFF7ACBD08BD00006001002008B50848DB
:10235000FFF7FCF8064800680168C90606D5016861
:1023600040680090BDE80840FFF7BABD08BD000016
:10237000A801002010B5134C0122227006226270C1
:10238000020AA270E070080A2071617106212046DD
:1023900000F032F8A071000AE0710B490020225CC5
:1023A0000A54401CC0B20828F9D3012000F064F898
:1023B0006423082204490548FFF7DAFA002000F0F8
:1023C0005BF810BDCE000020D81B0020A801002023
:1023D000012000F0ABF8FBE70907090E002804DB39
:1023E00000F1E02080F80014704700F00F0000F1C9
:1023F000E02080F8141D704770B505464FF6FF7059
:1024000000224AF201040BE0AB5C58400023C607EF
:102410004FEA500000D060405B1C082BF7DB521CD9
:102420008A42F1DB70BD00000F4C104D4FF0FF36BB
:102430003146A06A00F0B6F890B995F820200B4913
:102440000B48FFF7ADFB34210848FEF740F8402168
:102450000848FEF73CF8402206490548FFF778FA9D
:10246000012000F063F8E3E700000020941B002047
:1024700060010020E0000020064B012806D0002863
:1024800006D1002210211846FEF7C6BB0122F9E74B
:102490007047000000080140FEF7D2FBFFF78BFCFD
:1024A000FFF7B8FAFFF714FBFFF742FBFFF75CFBFF
:1024B0000E480068C16841F01001C1600C48006816
:1024C000C16841F01001C16040220A490748FFF786
:1024D0003FFA0849402240310548FFF739FA00F039
:1024E00033F8FFF7B5FA00F041F8FEE7600100208D
:1024F000A8010020E000002020B140F6B831884259
:1025000000D30846014642F20100FFF733BF4FF403
:102510000052012803D008211046FFF72BBF0721E6
:10252000FAE706214FF40050FFF724BF10B5EFF390
:10253000058111B16FF0050403E0002408B100F03B
:10254000F1FE204610BD0000EFF3058010B16FF0E2
:10255000050070470448016811B14FF0FF30704723
:1025600001210160002070479800002010B5EFF3B2
:10257000058010B16FF0050010BD08480168012901
:1025800002D04FF0FF3010BD054A002182F8141D23
:102590000221016000F076FF002010BD98000020AD
:1025A0000BE000E0F8B50D460024211F4E1C00286A
:1025B00004D000BFEFF30582A2B10DB10C461BE0C1
:1025C00000216A46009101F015FB012813D1009803
:1025D00090B10A494FF080500860BFF34F8FBFF3AE
:1025E0006F8F09E0294601F053FB012804D015B193
:1025F0006FF0010400E034462046F8BD04ED00E031
:10260000F8B5144603460E464FF00005EFF305807B
:1026100098BB93B39E423DD84CB1A0680028E068B7
:1026200003D0502836D3012002E008B132E0002068
:10263000012B05D010B31846A26801F028F820E05D
:1026400040B103200090002211460120A36801F050
:102650005FF804E003220021012001F038F80500B2
:1026600018D086B100231A46194601F0C9F801288E
:1026700009D0284600F008FE00250BE0184600F0BF
:10268000E9FF050006D00CB1216800E000212846D2
:1026900000F0E6FD2846F8BD38B50024E51E002808
:1026A0000BD000BFEFF30581A9B10021009169466D
:1026B00001F0B5F9012815D102E06FF0030412E032
:1026C000009880B109494FF080500860BFF34F8FE8
:1026D000BFF36F8F07E000231A46194601F090F808
:1026E000012800D02C46204638BD000004ED00E053
:1026F0002DE9FF414FEA01034FF00005EFF305819B
:10270000039549BB40B38027182100244AB31668BB
:1027100006B1344696691EB13146761E382E02D275
:102720001679F60703D0002004B0BDE8F0815669A1
:1027300006B1B708D2F808C0BCF1000F0DD0D568BB
:102740005C2D18D312693AB136B18DE806103A46BD
:10275000214601F0C0FB03900DE0D6685EB9126916
:102760004AB903AACDE90012BAB2214601F086FBAC
:10277000012800D003950398D6E700002DE9F04129
:10278000134C0F460546E6682068001D00F06AFC01
:10279000681C07D137B12168BDE8F0410D48091D1B
:1027A00000F0B0BC20683544B5424560216805D2D0
:1027B000A06BBDE8F041091D00F08CBC606B091DE9
:1027C00000F088FCA06A854200D2A562BDE8F081D5
:1027D00048000020B00700202DE9F041054600F038
:1027E0009DFC2D4CA068401CA06020682B4F10B1B0
:1027F000606930B32BE02560A068012827D100264E
:1028000006EB860007EB800000F056FC761C382EA5
:10281000F6D3234800F050FC2148143000F04CFC63
:102820001F48283000F048FC1D483C3000F044FCB4
:102830001B48503000F040FC194860631430A0631E
:1028400005E02068E96AC06A884200D82560606AAD
:10285000401C60626864E86A2169884200D920618E
:1028600000EB800007EB8000291D00F04BFC00F01E
:1028700075FC606900280CD02068E96AC06A88424B
:1028800007D208494FF080500860BFF34F8FBFF365
:102890006F8FBDE8F0810000480000200003002099
:1028A0006007002004ED00E038B500F037FC104C64
:1028B0002068C8B90F4800F0FFFB0E48143000F044
:1028C000FBFB0C48E060143020610A4B0020F03B19
:1028D000009003F1500210210A2000F019FF20603F
:1028E00010B105A100F0BCFCBDE8384000F036BCDA
:1028F00084000020B4080020546D725100000000D4
:1029000030B4026C0B46002A0BD0C1681144C16080
:102910008468A14201D30168C16030BC1846FDF74C
:1029200057BD30BC70472DE9F041856B1746044612
:102930000026026C82B1C7B1E068FDF749FDE1688D
:10294000206C091AE1602268914202D2A168081A3B
:10295000E060022F16D017E02068A8B9A06801F047
:102960005DFB06460020A0600EE06068FDF730FDCC
:10297000216C606808446060A168884204D32068C4
:10298000606001E005B16D1E6D1CA5633046BDE8B9
:10299000F08110B5044690F8590058B101280CD0C8
:1029A00002280FD0502080F31188BFF34F8FBFF360
:1029B0006F8FFEE7206B00F0E5FB2046BDE810407E
:1029C00000F0E0BB10BD000010484FF4406142072A
:1029D00006D0C01D0D4920F00700411AC1F5406125
:1029E0000B4A00230144C2E900030839183A21F0D8
:1029F000070111604B600B600B1AC0E90013936074
:102A00004FF000405360506170470000940F002069
:102A1000B4000020144E154CA6F29C474FF080588D
:102A2000DFF84C9012E000BF00F078FBF068C5685A
:102A3000281D00F017FBA068401EA0606068401EC3
:102A4000606000F08BFB2846FFF7A3FF606800285A
:102A5000EAD138680128F9D9C9F80080BFF34F8F4F
:102A6000BFF36F8FF2E700009C07002048000020B2
:102A700004ED00E070B51D46049C51B1C4F800207F
:102A8000C4E90F010121204600F076FE84F84C5085
:102A900070BD2460F4E700002DE9F05F8846DDE9B1
:102AA0000B941546834691009A460A9EA522206BF8
:102AB000FDF705FD6FF00301206B01EB8501084474
:102AC00020F00707780707D0502080F31188BFF364
:102AD0004F8FBFF36F8FFEE70025B8F1000F0FD0C7
:102AE0005FF00000221818F8001082F8341018F86F
:102AF000001011B1401C1028F4D384F8435001E0B9
:102B000084F83450382E00D33726E662C4E91365C2
:102B1000201D00F0DCFA04F1180000F0D8FA24615E
:102B2000C6F138006462A061656584F85850524669
:102B30005946384600F066FA2060B9F1000F01D01E
:102B4000C9F80040BDE8F09F30B5114900E01146DA
:102B50000A688242FBD34B685C18844203D1406808
:102B600018444860084643681C18944209D1084C30
:102B7000183C2468A24209D052681A4442600A688C
:102B800012680260814200D0086030BD0460F9E73D
:102B9000B400002070B5002441600B4D00619142EB
:102BA00006D8D11A8269914206D2011D286907E030
:102BB0009A4203D2994201D3012403E0011DE8683F
:102BC00000F088FA204670BD8400002010B504464D
:102BD00000F0A4FAA06B28B15FF0000400F0BEFA88
:102BE000204610BD0124F9E730B589B03C4D6EE0B8
:102BF0000498002806DADDE90601059A9047049852
:102C0000002864DB069C606910B1201D00F02AFAE0
:102C100003A800F0D7F8024604980A2857D2DFE844
:102C200000F00505052D334A05052D3394F82800DD
:102C300040F0010084F828000599A069059B014433
:102C40002046FFF7A7FF68B3216A2046884794F81B
:102C5000280040073BD5002000900598A16900237B
:102C600042181946204601F01FFBD8B9502080F3C6
:102C70001188BFF34F8FBFF36F8FFEE714F8280F53
:102C800020F00100207022E094F8280040F00100BC
:102C900084F828000598A06128B1811813462046C1
:102CA000FFF778FF13E0502080F31188BFF34F8FB8
:102CB000BFF36F8FFEE794F82800810703D4204606
:102CC00000F060FA03E020F0010084F82800002200
:102CD00004A9286800F0F2FE002889D109B030BDAF
:102CE000840000202DE9FC410F46054600F00EFC53
:102CF00001A800F067F80446019818B101F042FA03
:102D0000BDE8FC81254EAFB130690068D0B3002723
:102D1000291B3A46306800F0E3FA01F033FA002844
:102D2000EED11F494FF080500860BFF34F8FBFF3C3
:102D30006F8FE5E7A542EBD801F024FAF06827464B
:102D4000C068C468201D00F08DF994F82800410780
:102D500019D5A0692B4641193A462046FFF71AFFBC
:102D6000A8B100200346014600902A46204601F003
:102D70009BFA60B9502080F31188BFF34F8FBFF3E7
:102D80006F8FFEE707E020F0010084F82800216A39
:102D900020468847B4E70127BAE7000084000020F6
:102DA00004ED00E00648416B096829B1416BC96830
:102DB000C9684968816270474FF0FF31FAE7000047
:102DC0004800002070B5054601F0BEF8064E0446E6
:102DD000B068844203D200F009F8012000E000202E
:102DE00028602046B46070BD84000020F8B5194DFD
:102DF00020E0C068C4680668201D00F033F9216A2D
:102E00002046884794F82800400713D5A06930442D
:102E1000B04206D924616060211DE86800F05AF9CB
:102E200008E000200346014600903246204601F0AB
:102E30003BFA38B1E86801680029DAD12969C5E9A7
:102E40000310F8BD502080F31188BFF34F8FBFF3FC
:102E50006F8FFEE78400002008484068401C4FF058
:102E6000500080F3118804D0BFF34F8FBFF36F8FF2
:102E7000FEE7BFF34F8FBFF36F8FFEE7BC0000206C
:102E8000074CE068016841B1C0680021D0F800003B
:102E9000FFF728FFFFF7A8FEF3E701210020F7E77F
:102EA000840000202DE9F041044600F037F994F940
:102EB000455004F1240609E0606A48B1304601F04B
:102EC00029F908B100F05CFA6D1E6DB2002DF3DC3B
:102ED0004FF0FF3684F8456000F040F900F01EF92D
:102EE00094F9445004F1100709E0206948B13846CC
:102EF00001F010F908B100F043FA6D1E6DB2002D1B
:102F0000F3DC84F84460BDE8F04100F027B900002C
:102F10002DE9F0410546002700F0F8FA324E3068FE
:102F200008B9FFF751FD706905424ED1C5B30835A8
:102F300068070ED005F00700C0F1080005446807D7
:102F400007D0502080F31188BFF34F8FBFF36F8FEE
:102F5000FEE72DB37068854237D823481830014604
:102F60000C6801E020460C466168A94202D2216843
:102F70000029F7D131688C4227D0076821680160A9
:102F800060680837411B10290FD96019420708D023
:102F9000502080F31188BFF34F8FBFF36F8FFEE790
:102FA00013E041606560FFF7CFFD61687068401A0B
:102FB0007060B268904200D2B06070690143002036
:102FC000C4E90001F068401CF06001F0DBF878070C
:102FD00007D0502080F31188BFF34F8FBFF36F8F5E
:102FE000FEE73846BDE8F0819C00002004490868EF
:102FF00018B10868026D521C02650868704700002D
:103000004800002010B5031F4FF080741C601B1F88
:1030100021F001011960191F024B0B60143940386F
:103020000A6010BD592E000830B589B00C4605461F
:1030300020216846FDF76DFA23462A4605A1684619
:10304000FDF716F9C2B2642369460548FEF790FC05
:1030500009B030BD25733D2564FFFFFF000000006F
:1030600060010020D0E9013201699A60D0E90123B2
:103070005A604A68824201D182684A600022026135
:103080000868401E0860086870470000034B036032
:1030900003F15C000860802010607047DC080020AD
:1030A000044B036003F15C0008604FF48070106013
:1030B00070470000380B002000F108014FF0FF328C
:1030C000C0E90112C1600161002101607047002167
:1030D0000161704730B50B685A1C02D000F108023C
:1030E00002E0026904E02246546825689D42FAD94C
:1030F00053684B6099608A60516008610168491C9F
:10310000016030BD42684A6093688B609368596083
:10311000916008610168491C01607047502080F38C
:103120001188BFF34F8FBFF36F8F0A494868401C67
:10313000486001280CD10848006810F0FF0F07D044
:10314000502080F31188BFF34F8FBFF36F8FFEE7DE
:1031500070470000BC00002004ED00E0084948680A
:1031600028B1401E486001D180F31188704750207B
:1031700080F31188BFF34F8FBFF36F8FFEE700001E
:10318000BC00002070B500282AD0164DA0F108041C
:1031900060686969084207D1502080F31188BFF345
:1031A0004F8FBFF36F8FFEE722683AB1502080F354
:1031B0001188BFF34F8FBFF36F8FFEE788436060C6
:1031C00000F0A4F960686968084468602046FFF769
:1031D000BBFC2869401C2861BDE8704000F0D2BFEC
:1031E00070BD00009C0000204FF0E0200021016134
:1031F000816105494FF47A720968B1FBF2F1491E09
:1032000041610721016170474400002010B5FDF7BE
:103210000BF8114910280ED300F1E02090F8F003CC
:103220000A78904207D2502080F31188BFF34F8F65
:10323000BFF36F8FFEE709480068896800F4E0601B
:10324000884207D9502080F31188BFF34F8FBFF316
:103250006F8FFEE710BD0000BC0000200CED00E009
:1032600010B5084B002200BF53F832401CB1521C6D
:10327000082AF9D310BD43F8321003EBC2014860AD
:1032800010BD0000C002002010B504000AD000F0FC
:1032900013F894F8460000280CD12046BDE81040F1
:1032A000FFF770BF502080F31188BFF34F8FBFF33B
:1032B0006F8FFEE710BD0000084A002102EBC1033A
:1032C0005B68834206D1002042F8310002EBC10165
:1032D00048607047491C0829F0D37047C00200209D
:1032E00070B515460E460446FFF718FF94F94410D2
:1032F0000020491C01D184F8440094F94510491C70
:1033000001D184F84500FFF729FFA06B28B92A46B0
:10331000314604F1240000F051F82046BDE8704029
:10332000FFF7C0BD10B5020014D00F48006B38B1D4
:10333000502080F31188BFF34F8FBFF36F8FFEE7EC
:1033400000F0E4F800211046FFF718FA00F01AFF29
:10335000002807D105494FF080500860BFF34F8F18
:10336000BFF36F8F10BD00004800002004ED00E0A7
:1033700002490A6A0260C96841607047480000203B
:1033800001490120C86170474800002010B50C4673
:1033900050B1094909681831FFF79CFE2046BDE885
:1033A00010400121FFF7EAB9502080F31188BFF3E4
:1033B0004F8FBFF36F8FFEE74800002070B51446B3
:1033C0000D4668B10A4909681831FFF79BFE0CB138
:1033D0004FF0FF3521462846BDE87040FFF7CEB9D3
:1033E000502080F31188BFF34F8FBFF36F8FFEE73C
:1033F0004800002070B504003ED0226DA2B1E06C00
:10340000884200D30146E06A884235D0012A33D190
:103410001A4D2A6894420FD1502080F31188BFF3CF
:103420004F8FBFF36F8FFEE7502080F31188BFF3FB
:103430004F8FBFF36F8FFEE7E162A269002A02DBC4
:10344000C1F13801A1610E4E00EB8000616906EB0D
:103450008000814210D1201DFFF704FEE06A296937
:10346000884200D9286100EB800006EB8000211D16
:10347000BDE87040FFF746BE70BD00004800002068
:103480000003002030B587B00024039405AA04A9E6
:1034900003A80494FFF7FAFDDDE903010094CDE9E8
:1034A0000110002315A11748059A00F014FD164DD0
:1034B0000028E8621FD000F0C7FE012809D0401C98
:1034C00019D1502080F31188BFF34F8FBFF36F8F56
:1034D000FEE7502080F31188BFF34F8FBFF36F8F4B
:1034E0004FF0FF30A86201206861EC6007B0BDE8D2
:1034F000304000F045B807B030BD000049444C45AD
:1035000000000000152A0008480000200248016B56
:10351000491C01637047000048000020164810B5A0
:10352000016B11B10121C16110BD0021C1610169AF
:10353000124A01E0B9B1491E01EB810352F8233070
:10354000002BF7D001EB810302EB830202F10804A8
:1035500053685B685360A34201D15B685360DA68CB
:103560000260016110BD502080F31188BFF34F8FBE
:10357000BFF36F8FFEE7000048000020000300202B
:103580001CB5264908780190FF20087008788DF84E
:1035900000009DF800009DF8002000F0F00090422F
:1035A00007D0502080F31188BFF34F8FBFF36F8F88
:1035B000FEE79DF800001A4C00F050002070072034
:1035C000A06005E09DF8002052008DF80020401E0C
:1035D0009DF800201206F5D4A060032807D05020E3
:1035E00080F31188BFF34F8FBFF36F8FFEE74FF467
:1035F0004070A060019808700A48016841F47001A9
:103600000160016841F070410160FFF7EDFD0020AD
:103610006060FCF7D3FD00201CBD000000E400E06A
:10362000BC00002020ED00E010B5502080F3118890
:10363000BFF34F8FBFF36F8F00F08CFC18B10449BC
:103640004FF080500860002080F3118810BD00000A
:1036500004ED00E010B50C4648B184420FD950206B
:1036600080F31188BFF34F8FBFF36F8FFEE75020B9
:1036700080F31188BFF34F8FBFF36F8FFEE70222F5
:10368000002100F024F8002800D0846310BD38B574
:103690000C4648B184420FD9502080F31188BFF303
:1036A0004F8FBFF36F8FFEE7502080F31188BFF379
:1036B0004F8FBFF36F8FFEE7022113460022009168
:1036C000114600F025F8002800D0846338BDF8B515
:1036D00017460E46050013D005FB06F05030FFF7E5
:1036E00017FC04000AD0002084F8460004F15002C0
:1036F0003B46314628460094FFF7BCF92046F8BD0A
:10370000502080F31188BFF34F8FBFF36F8FFEE718
:1037100038B5049D18B153B1CAB181B120E0502031
:1037200080F31188BFF34F8FBFF36F8FFEE75020F8
:1037300080F31188BFF34F8FBFF36F8FFEE75020E8
:1037400080F31188BFF34F8FBFF36F8FFEE739B15E
:10375000502080F31188BFF34F8FBFF36F8FFEE7C8
:1037600050241C46012384F846302B460094FFF772
:1037700081F9204638BD000070B50D46040025D003
:10378000FFF7CCFCD4E90F20216802FB0011A160F7
:103790000021A163216861600A46D4E90F01401E3F
:1037A00000FB0121E16021464FF0FF3001F8440F9A
:1037B000487004F110008DB1FFF77EFC04F1240085
:1037C000FFF77AFCFFF7CAFC012070BD502080F3A0
:1037D0001188BFF34F8FBFF36F8FFEE72169002978
:1037E000F0D000F097FC0028ECD004494FF0805056
:1037F0000860BFF34F8FBFF36F8FE3E704ED00E086
:103800002DE9FF4782B01D468A464FF000080400AC
:1038100003D0BAF1000F08D011E0502080F31188D6
:10382000BFF34F8FBFF36F8FFEE7206C38B150208E
:1038300080F31188BFF34F8FBFF36F8FFEE7022D28
:103840000AD1E06B012807D0502080F31188BFF324
:103850004F8FBFF36F8FFEE700F068FB3F4F4FF0D5
:1038600000094FF0805648B9049838B1502080F3D1
:103870001188BFF34F8FBFF36F8FFEE7FFF74EFC4A
:10388000A06BE16B884207D3022D05D00498D0B11C
:10389000B8F1000F1AD01EE02A4651462046FFF725
:1038A00042F8616A19B104F1240000F033FC20B140
:1038B0003E60BFF34F8FBFF36F8FFFF74FFC0120C8
:1038C00006B0BDE8F087FFF749FC22E06846FFF745
:1038D0004FFD4FF00108FFF741FCFFF717FEFFF720
:1038E0001DFC94F94400401C01D184F8449094F9E3
:1038F0004500401C01D184F84590FFF72FFC04A936
:10390000684600F081FA30B12046FFF7CBFA00F0AC
:1039100039FC0020D4E7FFF701FCA06BE16B884283
:1039200013D1FFF71BFC04F110000499FFF72EFDE3
:103930002046FFF7B7FA00F025FC00289ED13E6034
:10394000BFF34F8FBFF36F8F98E7FFF707FC204659
:10395000FFF7A8FA00F016FC90E7000004ED00E085
:103960002DE9F0471F4690468946040003D0B9F17F
:10397000000F08D011E0502080F31188BFF34F8F63
:10398000BFF36F8FFEE7206C38B1502080F31188B1
:10399000BFF34F8FBFF36F8FFEE7022F0AD1E06BAB
:1039A000012807D0502080F31188BFF34F8FBFF359
:1039B0006F8FFEE7FFF72AFC5020EFF3118680F3AC
:1039C0001188BFF34F8FBFF36F8FA06BE16B8842FD
:1039D00006D3022F04D0002086F31188BDE8F087BB
:1039E00094F94550A06B3A4649462046FEF79BFFA6
:1039F000681C04D06D1C84F845500120ECE7606A17
:103A00000028FAD004F1240000F084FB0028F4D050
:103A1000B8F1000FF1D00121C8F80010EDE770B542
:103A20000E46040009D0206C78B1502080F3118834
:103A3000BFF34F8FBFF36F8FFEE7502080F31188E5
:103A4000BFF34F8FBFF36F8FFEE7206848B9A068C0
:103A500038B1502080F31188BFF34F8FBFF36F8FC1
:103A6000FEE7FFF7D3FB5020EFF3118580F31188B9
:103A7000BFF34F8FBFF36F8FA16BE06B884218D9F4
:103A800094F94500491CA163411C04D0401C84F8F2
:103A9000450001200EE0606A0028FAD004F12400FD
:103AA00000F038FB0028F4D0002EF2D00120306066
:103AB000EFE7002085F3118870BD00002DE9F7477E
:103AC000002683B08A46040003D0BAF1000F08D064
:103AD00011E0502080F31188BFF34F8FBFF36F8F39
:103AE000FEE7206C38B1502080F31188BFF34F8F70
:103AF000BFF36F8FFEE700F019FADFF8F4804FF0A4
:103B000000094FF0805748B9059838B1502080F32C
:103B10001188BFF34F8FBFF36F8FFEE7FFF7FEFAF9
:103B2000A56BC5B151462046FEF7EAFE6D1EA563A2
:103B3000206950B104F1100000F0ECFA28B1C8F887
:103B40000070BFF34F8FBFF36F8FFFF707FB0120AC
:103B500006B0BDE8F087059808B11EB106E0FFF792
:103B6000FDFA27E06846FFF703FC0126FFF7F6FAA7
:103B7000FFF7CCFCFFF7D2FA94F94400401C01D1C6
:103B800084F8449094F94500401C01D184F8459094
:103B9000FFF7E4FA05A9684600F036F90028204648
:103BA0000AD0FFF77FF900F0EDFA2046FFF70EF894
:103BB0000028B3D00020CBE7FFF708F890B104F15C
:103BC00024000599FFF7E2FB2046FFF76BF900F0B0
:103BD000D9FA0028A2D1C8F80070BFF34F8FBFF305
:103BE0006F8F9BE72046FFF75DF900F0CBFA95E772
:103BF00004ED00E02DE9F04790468946040003D02B
:103C0000B9F1000F08D011E0502080F31188BFF304
:103C10004F8FBFF36F8FFEE7206C38B1502080F3D9
:103C20001188BFF34F8FBFF36F8FFEE7FFF7EEFAF8
:103C30005020EFF3118680F31188BFF34F8FBFF34D
:103C40006F8FA76BF7B194F9445049462046FEF7B1
:103C500057FE7F1EA763681C04D06D1C84F8445077
:103C6000012010E020690028FAD004F1100000F0D3
:103C700051FA0028F4D0B8F1000FF1D00121C8F8B2
:103C80000010EDE7002086F31188BDE8F087000002
:103C90002DE9F343002683B00400354609D0206C9B
:103CA00078B1502080F31188BFF34F8FBFF36F8F2F
:103CB000FEE7502080F31188BFF34F8FBFF36F8F63
:103CC000FEE700F033F9DFF83C814FF000094FF0D8
:103CD000805748B9049838B1502080F31188BFF359
:103CE0004F8FBFF36F8FFEE7FFF718FAA06BC8B1D5
:103CF000401EA063206810B9FFF778F9A060206922
:103D000050B104F1100000F005FA28B1C8F80070B5
:103D1000BFF34F8FBFF36F8FFFF720FA012005B07D
:103D2000BDE8F083049808B166B10FE03DB15020C2
:103D300080F31188BFF34F8FBFF36F8FFEE7FFF75C
:103D40000DFA5DE06846FFF713FB0126FFF706FA60
:103D5000FFF7DCFBFFF7E2F994F94400401C01D1C6
:103D600084F8449094F94500401C01D184F84590B2
:103D7000FFF7F4F904A9684600F046F80028204649
:103D800012D0FFF78FF800F0FDF92046FEF71EFF76
:103D90000028A9D09DB3FFF7C1F9606A50B3206B2A
:103DA0000068C0F1380126E0FEF710FFE0B120689E
:103DB00038B9FFF7B3F9A06800F070F90546FFF7CE
:103DC000CDF904F124000499FFF7E0FA2046FFF74B
:103DD00069F800F0D7F9002886D1C8F80070BFF361
:103DE0004F8FBFF36F8F7FE72046FFF75BF800F040
:103DF000C9F979E70021A068FFF7FCFA9FE7FFE720
:103E000000208CE704ED00E02DE9F0410C460500B0
:103E100011D0C4B1FFF782F9174BDA686E682068D9
:103E2000911B471C17D02F681B6A9F4219D09642DE
:103E300017D8012410E0502080F31188BFF34F8F72
:103E4000BFF36F8FFEE7502080F31188BFF34F8FD1
:103E5000BFF36F8FFEE70024FFF780F92046BDE82F
:103E6000F081884205D9401A20602846FFF780FA81
:103E7000F1E700202060DCE7480000202DE9FF5F2B
:103E80008346DDE90E87994616468A469000FFF77D
:103E90003FF805001CD05C20FFF73AF8040014D06E
:103EA0000020256384F85900CDE90240CDE9008760
:103EB0004B46324651465846FEF7EEFD2046FEF789
:103EC0008BFC012004B0BDE8F09F2846FFF75AF9AB
:103ED0004FF0FF30F6E7F0B585B0DDE90B640A9DE1
:103EE000A6B1DCB15C2700972663022684F85960EE
:103EF000002604AFCDE90246CDE90057FEF7CCFD20
:103F00002046FEF769FC049805B0F0BD502080F310
:103F10001188BFF34F8FBFF36F8FFEE7502080F300
:103F20001188BFF34F8FBFF36F8FFEE705484169DC
:103F300019B1006B18B100207047012070470220B2
:103F400070470000480000200148C068704700002A
:103F5000480000202DE9F0412E4C0027206B28B1AD
:103F6000A069401CA0613846BDE8F081E668761C77
:103F7000E66013D1606B006838B1502080F311887F
:103F8000BFF34F8FBFF36F8FFEE7606BA16B616371
:103F9000A063206A401C2062FEF704FFA06ADFF8DD
:103FA0007880864209D3606B0068A0B1606BC068FE
:103FB000C5686868864211D2A0622068C06A00EBBA
:103FC000800158F82100012800D90127E069002864
:103FD000C9D00127C7E74FF0FF30EDE7281DFFF7F5
:103FE00041F8A86A18B105F11800FFF73BF8E86A34
:103FF0002169884200D9206100EB800108EB810033
:10400000291DFFF77FF8E86A2168C96A8842CAD388
:104010000127C8E7480000200003002070B5040015
:104020004FF0000133D01B4D2868844207D0502048
:1040300080F31188BFF34F8FBFF36F8FFEE7206DC2
:1040400038B1401E2065E36CE26A9A421FD040B14D
:104050001DE0502080F31188BFF34F8FBFF36F8FA7
:10406000FEE7201DFEF7FEFFE06CE062C0F13800C5
:10407000A061E06A2969884200D92861064900EBFD
:10408000800001EB8000211DFFF73CF8012108466C
:1040900070BD0000480000200003002070B504003F
:1040A0004FF000002BD0194DE16A2A68D26A914284
:1040B00026D2A069002804DB2868C06AC0F1380055
:1040C000A061134E01EB8101606906EB810188421A
:1040D00011D1201DFEF7C6FF2868C06AE062296979
:1040E000884200D9286100EB800006EB8000211D8A
:1040F000FFF708F802E02868C06AE062012070BD9E
:10410000E16C2A68D26A9142F8D370BD4800002061
:104110000003002070B5C068C46854B104F11800F1
:104120000646FEF79FFF144D286B50B131461348E9
:1041300015E0502080F31188BFF34F8FBFF36F8FCE
:10414000FEE7201DFEF78EFFE06A2969884200D94C
:1041500028610B4900EB800001EB8000211DFEF778
:10416000D1FFE06A2968C96A884202D90120E86162
:1041700070BD002070BD00004800002088070020AE
:10418000000300202DE9F0472C4D00242746286B22
:1041900038B1FEF7C3FF286B401E2863286B40B17F
:1041A00046E0502080F31188BFF34F8FBFF36F8F2D
:1041B000FEE7A968224E0120D1B3A6F59169804699
:1041C0003068E0B1F068C46804F11800FEF74AFFF7
:1041D000201DFEF747FFE06A2969884200D928615F
:1041E00000EB800109EB8100211DFEF78BFFE06AE7
:1041F0002968C96A8842E3D3C5F81C80E0E70CB19E
:10420000FEF7D0FDAC694CB14FEA0806FFF7A2FEFD
:1042100000B1EE61641EF9D10020A861E86938B1EF
:104220000849012738070860BFF34F8FBFF36F8F2E
:10423000FEF794FF3846BDE8F087000048000020F4
:104240008807002004ED00E010B586B0FEF72CFBD7
:10425000114C2068B8B100200390049005AA04A96D
:1042600003A8FEF71DFFDDE9032102208DE807000A
:1042700000230AA10B48059AFFF72DFE606010B1DC
:1042800006B0012010BD502080F31188BFF34F8F7E
:10429000BFF36F8FFEE7000084000020546D722092
:1042A00053766300812E00082DE9FF411E46134618
:1042B00002000A9D4FF0000016D0144C2768002F12
:1042C0000FD0CDE900130292062917DAFFF72EFE70
:1042D00002284FF000030FD0002269462068FFF744
:1042E0008FFA04B0BDE8F081502080F31188BFF34D
:1042F0004F8FBFF36F8FFEE72A46EEE7002332466B
:1043000069463846FFF72CFBEBE7000084000020ED
:104310004FF47F0C1CEAD0121EBF1CEAD11392EAA4
:104320000C0F93EA0C0F00F0858090EA010F48BF54
:1043300042F4807240F4000C41F400002CF07F4104
:1043400020F07F4000B58142A2EB03020FF2081C6F
:10435000ACEB504EC0F100009EF800E04FEA4E0E6C
:1043600000FB0EFC38BF49004FEA2C1C02F5FA0294
:104370000CFB0EF34FEACE1E4FEA112C4FEAC1217F
:104380000EEB635E42EB22420EFB0CFC4FEA1C5329
:1043900000FB03114FEA112C4FEA01310EFB0CFC1C
:1043A0004FEADC4C00FB0C11C14228BF09184CEB52
:1043B00003335DF804EB10EB410143EBC250B2F55F
:1043C0007C0F38BF704729D512F0F00F1CBF00F1E9
:1043D000C04000F00040704700818283848586875A
:1043E00088898B8C8D8E8F919293959697999A9CB4
:1043F0009D9FA0A2A3A5A7A8AAACAEB0B2B3B5B723
:10440000B9BCBEC0C2C5C7C9CCCED1D4D7D9DCDFF8
:10441000E2E6E9ECF0F3F7FAFE0000004FEA400CA8
:104420000CF1807CBCF17E4F28BF7047B0F1C040DA
:1044300000F047B990EA010F0CEAD11348BF42F4EB
:104440008072624538BF634507D213F47F0F16D0E0
:1044500080EA010000F00040704710B500F0EBF872
:10446000097EFC3E00F005B880EA010000F0004043
:10447000704780EA010000F0004000F022B912F419
:104480007F0F04BF0248704780EA010000F019B9AD
:104490000000C07F41000B0ED3F19E0208D950F4FA
:1044A00000034FEA032323FA02F048BF404270475B
:1044B00010B500F0C0F800BF49922480002070477A
:1044C0006FF0004282EA200070470000C10DD1F178
:1044D0009E0206DB4FEA002343F0004323FA02F07A
:1044E0007047004207D54FEA4001B1F1FE4F02D2BA
:1044F0004FF00000704710B500F09DF849922480FD
:10450000002070476FEA200070470000B0FA80F387
:1045100010FA03F2C3F19D030AD0D90501EB122072
:10452000530638BF704700F1010008BF20F00100BA
:10453000704700004FF47F0C1CEAD0121EBF1CEA2B
:10454000D11392EA0C0F93EA0C0F00F0478090EA27
:10455000010F48BF42F480724FF0004C4CEA00203B
:104560004CEA012102EB0302A0FB0113A2F50002B9
:10457000002918BF43F001035B0028BF4FEA330353
:1045800042EB22425FEA132C4CEBC2502EBFBCEB35
:10459000436FB2F57C0F70474FEA036CBCF1004FDC
:1045A00008BF20F00100B2F57C0F38BF70470BD573
:1045B00082F0FF0212F5803FC8BF704700F1C04093
:1045C000D8BF00F00040704700F5000C5FEA4C0CCB
:1045D00048BF7047B0F1C04000F073B890EA010FD7
:1045E0000CEAD11348BF42F48072624538BF63457C
:1045F00004D280EA010000F00040704710B500F0DE
:104600001AF800BF8900013E00F007B800F009B8B1
:104610005FEA410C5FEA1C6C08D080EA010000F000
:1046200050B85FEA400C5FEA1C6CF6D14FF00040D6
:10463000A0F5800070470EF1020E2EF0030E5EF81A
:10464000044B244204D44FEA4102B2F17F4F11D807
:104650004FEA4003B3F17F4F0CD80ED14FEAD07C24
:10466000B2F17F4F0CEB4C0C0CF1020C08BF4CEB81
:10467000D17C04E04FF0080C01E04FEAD17C0CEB58
:104680004C0324FA03F404F00704B4F1040C06D23A
:104690000EEB840CBDE810404CF0010C6047DFE8E5
:1046A0000CF0070802024FF00040A0F5800010BD9A
:1046B0000846420018BFD2F1807288BF00F0004067
:1046C00010BDFF2141EAD050C0057047884800085E
:1046D00000000000000000000000000000000000DA
:1046E00000020000180000000000000000000000B0
:1046F00094480008000000000000000000000000D6
:10470000000000000002000008000000000000009F
:1047100000000000684800080000000000000000E1
:10472000000000000000000000020000080000007F
:1047300000000000000000007848000800000000B1
:104740000000000000000000000000000002000067
:1047500008000000000000000000000030480008D1
:1047600000000000000000000000000044480008B5
:104770000000000000000000000000005848000891
:10478000000000000000000000000000706167658C
:10479000322E6E302E76616C0000000000000000AA
:1047A0000000000000000000000070616765322E0C
:1047B0006E312E76616C00000000000000000000E9
:1047C000000000000000000070616765322E6E324C
:1047D0002E76616C00000000000000000000000068
:1047E00000000000000070616765322E6E332E7687
:1047F000616C0000000000000000000000000000EC
:1048000000000000010202030405060708090A0B64
:104810000C0D0E0F1010000000000000000001023F
:104820000304060708090000000001020304000059
:104830005772697465436D6442696E61727953653C
:104840006D30310052656164436D6442696E61721E
:104850007953656D303200007561727442696E6122
:10486000727953656D30330052656164436F6E66D3
:1048700069726D5461736B006461746150726F632F
:104880006573735461736B0064656661756C745411
:1048900061736B005772697465436F6E6669726D00
:1048A00054617300C448000800000020E0000000CC
:1048B00028010008A4490008E00000209821000019
:1048C00044010008000000000000803F00000000DC
:1048D0000000C03F000000000000000000000000D9
:1048E00000000000000000000000000000000000C8
:1048F00000000000000000000000000001000000B7
:10490000100000000000000000127A00000000000B
:104910000000000000000000000000000000000097
:104920000000000000000000000000000000000087
:104930000000000000000000000000000000000077
:104940000000000000000000000000000000000067
:104950000000000000000000000000000000000057
:104960000000000000000000000000000000000047
:104970000000000000000000000000000000000037
:1049800000000000AAAAAAAA00000000000000007F
:104990000000000000000000000000000000000017
:0449A0000000000013
:04000005080000ED02
:00000001FF
