:020000040800F2
:1000000018CB0020F1020008F12700089522000813
:100010005D2600082308000859340008000000008D
:100020000000000000000000000000003102000895
:10003000ED080008000000008D020008192A0008E1
:100040000B0300080B0300080B0300080B03000858
:100050000B0300080B0300080B0300080B03000848
:100060000B0300080B0300080B0300080B03000838
:10007000250800080B0300080B0300080B03000809
:100080000B0300080B0300080B0300080B03000818
:100090000B0300080B0300080B0300080B03000808
:1000A0000B030008D92A00080B0300080B03000803
:1000B0000B0300080B0300080B0300080B030008E8
:1000C0000B0300080B0300080B0300080B030008D8
:1000D0000B030008F13300080B0300080B030008B2
:1000E0000B0300080B0300080B0300080B030008B8
:1000F0000B0300080B0300080B0300080B030008A8
:100100000B0300080B0300080B0300080B03000897
:100110000B0300080B0300080B0300080B03000887
:100120000B0300080B030008310800080B0300084C
:100130000B0300080B0300080B0300080B03000867
:100140000B0300080B0300080B0300080B03000857
:100150000B0300080B0300083D0800080B03000810
:100160000B0300080B0300080B0300080B03000837
:100170000B0300080B0300080B030008000000003D
:100180000B0300080B03000800F002F800F041F830
:100190000AA090E8000C82448344AAF10107DA45E2
:1001A00001D100F036F8AFF2090EBAE80F0013F0F3
:1001B000010F18BFFB1A43F001031847E85A00006B
:1001C000085B0000103A24BF78C878C1FAD85207FB
:1001D00024BF30C830C144BF04680C6070470000C1
:1001E0000023002400250026103A28BF78C1FBD840
:1001F000520728BF30C148BF0B607047642900F028
:100200005981002070471FB505F0DBFA1FBD10B5FE
:1002100010BD00F0CCFA1146FFF7F5FF03F02EF900
:1002200000F0EAFA03B4FFF7F2FF03BC00F0F2FAC1
:100230002C4B19680868B0E8F04F80F30988BFF3C9
:100240006F8F4FF0000080F31188704700000000AE
:1002500008480068006880F308884FF0000080F3C9
:10026000148862B661B6BFF34F8FBFF36F8F00DFA4
:1002700000BF00BF08ED00E0DFF80C00016841F4AA
:1002800070010160704700BF88ED00E0EFF3098066
:10029000BFF36F8F134B1A681EF0100F08BF20EDCD
:1002A000108A20E9F04F106009B44FF0500080F33D
:1002B0001188BFF34F8FBFF36F8F04F0A7F94FF092
:1002C000000080F3118809BC19680868B0E8F04F95
:1002D0001EF0100F08BFB0EC108A80F30988BFF33E
:1002E0006F8F70474C000020EFF3058070470000CF
:1002F0000948804709480047FEE7FEE7FEE7FEE7BA
:10030000FEE7FEE7FEE7FEE7FEE7FEE704480549F5
:10031000054A064B70470000C92A000889010008F9
:1003200018C5002018CB002018C7002018C70020CF
:1003300053EA020C00F069802DE9F04B4FF0000603
:10034000002B1FBFB3FA83F503FA05F424FA05F670
:100350005E4012BF1643B2FA82F502FA05F4C5F107
:1003600020051EBF22FA05FC44EA0C04203556EA9B
:10037000044C4FEA144418BF641C4FF000084FF0BF
:100380000009904271EB030C39D3002919BFB1FA6F
:1003900081F701FA07F6B0FA80F700FA07F6C7F11D
:1003A00020071EBF20FA07FC46EA0C062037B6FBE2
:1003B000F4FCA7EB0507103F07F01F0BCBF120065D
:1003C0000CFA0BFB2CFA06F644BFB3460026202F8E
:1003D000A4BF5E464FF0000B5BEA060C08BF4FF06F
:1003E000010B19EB0B09ABFB027C48EB0608C01BA9
:1003F00006FB02CC0BFB03CC71EB0C01C1E70B46F7
:10040000024641464846BDE8F08B13B54FF0000068
:100410004FF00001AFF30080BDE81C4070470000C2
:100420000FB41CB5084B06AA7B446946009005989A
:1004300000F0A5F904460020694600F0B3F9204613
:100440001CBC5DF814FB0000790300002DE9F041AD
:100450000E460446002020622046E168884730B3FB
:10046000252805D0D4E901219047206A401CF2E7F5
:10047000E168204600278847050018D0A5F1410013
:10048000192802D820354FF4006732462946204605
:100490002760FFF7B3FE40B1012804D0F61D26F017
:1004A00007060836D8E7361DD6E72846DAE7206A79
:1004B000BDE8F0812DE9F041064600241068752959
:1004C000314616A510D0AFF30080002802DA404272
:1004D00013A507E031688A0701D512A502E0490794
:1004E00004D511A5012401E0AFF3008000210A2208
:1004F00006F1240709E0B0FBF2FCB0FBF2F302FBCB
:100500001C00303078541846491C0028F3D123468B
:100510002A463046BDE8F04100F0D3B800000000A4
:100520002D0000002B00000020000000032A40F2F4
:10053000308010F0030C00F0158011F8013BBCF185
:10054000020F624498BF11F801CB00F8013B38BF9D
:1005500011F8013BA2F1040298BF00F801CB38BFAB
:1005600000F8013B11F0030300F02580083AC0F0C9
:10057000088051F8043B083A51F804CBA0E8081071
:10058000F5E7121D5CBF51F8043B40F8043BAFF3A4
:100590000080D20724BF11F8013B11F801CB48BFFE
:1005A00011F8012B24BF00F8013B00F801CB48BF34
:1005B00000F8012B704710B5203AC0F00B80B1E86D
:1005C0001850203AA0E81850B1E81850A0E8185088
:1005D000BFF4F5AF5FEA027C24BFB1E81850A0E891
:1005E000185044BF18C918C0BDE810405FEA827CAB
:1005F00024BF51F8043B40F8043B08BF7047D207C2
:1006000028BF31F8023B48BF11F8012B28BF20F862
:10061000023B48BF00F8012B704702F0FF0343EA9A
:10062000032242EA024200F002B84FF0000204291D
:10063000C0F0128010F0030C00F01B80CCF1040C11
:10064000BCF1020F18BF00F8012BA8BF20F8022B45
:10065000A1EB0C0100F00DB85FEAC17C24BF00F8EB
:10066000012B00F8012B48BF00F8012B70474FF019
:10067000000200B5134694469646203922BFA0E8F2
:100680000C50A0E80C50B1F12001BFF4F7AF0907FE
:1006900028BFA0E80C5048BF0CC05DF804EB8900EF
:1006A00028BF40F8042B08BF704748BF20F8022B32
:1006B00011F0804F18BF00F8012B7047704770474A
:1006C00070472DE9F0470D4699469246044600F1E1
:1006D00024080168880604D5E06921F01001216032
:1006E00000E00120A84201DD471B00E00027A169CE
:1006F0007A1902EB0900081AA0612078C00602D41A
:100700002046AFF30080002608E0D4E901211AF862
:1007100006009047206A401C761C20624E45F4DBA0
:100720002078C0060AD52046AFF3008006E0D4E961
:10073000012130209047206A401C2062381EA7F11A
:100740000107F4DC07E0D4E9012118F8050090471F
:10075000206A401C2062281EA5F10105F3DC20461A
:10076000AFF300802078000602D50220BDE8F087B4
:100770000120FBE701694A1C02610878704700B557
:100780008FB0CDE901310021059105497944CDE9CA
:10079000031011466846FFF759FE0FB000BD000078
:1007A000E5FFFFFF0A6802F8010B0A607047754613
:1007B00000F02CF8AE4605006946534620F00700CD
:1007C000854618B020B5FFF7A1FDBDE820404FF0E9
:1007D00000064FF000074FF000084FF0000B21F02B
:1007E0000701AC46ACE8C009ACE8C009ACE8C009F8
:1007F000ACE8C0098D46704710B50446AFF30080E1
:100800002046BDE81040FFF70DBD000000487047CE
:10081000B4C4002001491820ABBEFEE72600020048
:100820007047FEE7014800F0BFB80000007A0020E2
:10083000014800F0B9B80000D87A0020014800F063
:10084000B3B80000387B002001681823CAB2103A00
:10085000B2FBF3F2054B6FF30901032A9B5CC365FE
:1008600000D9091D8165084670470000DC5B00085F
:1008700010B5014600208B698A6A4FF0C07453B1ED
:10088000B3F5005F15D072B1012A0CD0022A0AD04C
:10089000032A09D104E01AB1012A06D0022A03D1A1
:1008A000C96AC90100D5012010BDC96AA142FAD0A8
:1008B00010BD002AF7D0012AF2D0022AF3D0032A71
:1008C000F3D010BD30B50468256825F48025256077
:1008D000046863608368402B036803D099600068F4
:1008E000C26030BD9A600068C16030BD704772B6AA
:1008F000FEE72DE9F0410446876D00F0E7FA064671
:1009000094F835000025022806D08020606584F820
:1009100034500120BDE8F0812068016821F0160103
:1009200001602068416921F080014161206C08B9B3
:10093000A06C20B12068016821F0080101602068E6
:10094000016821F0010101600CE000F0BFFA801B9A
:10095000052807D920206065032084F8350084F835
:100960003450D7E720680068C007EED194F85C10D7
:100970003F208840B860012084F8350084F8345066
:100980000020C7E790F83510022903D08021416587
:1009900001207047052180F835100068016821F0BA
:1009A00001010160002070472DE9F84304464FF033
:1009B0000009CDF8009063484FF41651A56D00680A
:1009C000B0FBF1F72E6894F85C10082000FA01F1F2
:1009D00031420FD021680A6852070BD50A6822F00D
:1009E00004020A6094F85C108840A860606D40F0D2
:1009F0000100606594F85C104FF0010808FA01F0FE
:100A0000304208D021684969090604D5A860606DA4
:100A100040F00200606594F85C1004208840304289
:100A200008D021680968890704D5A860606D40F086
:100A30000400606594F85C1010208840304218D0A3
:100A400021680968090714D5A8602068016849036E
:100A500004D50068000308D5A16C07E00168C9054A
:100A600003D4016821F008010160216C09B120461E
:100A7000884794F85C1020208840304231D02168AB
:100A80000968C9062DD5A86094F8350005282068A6
:100A9000016806D0490347D5006800031DD4616C86
:100AA0001CE021F0160101602068416921F08001FD
:100AB0004161206C08B9A06C20B12068016821F068
:100AC0000801016094F85C103F208840A86084F819
:100AD000358084F83490216D1FE0E16B09B1204628
:100AE0008847606D00282BD0606DC00714D00520AA
:100AF00084F835002068016821F001010160009848
:100B0000401C0090B84203D820680068C007F6D1A6
:100B100084F8358084F83490E16C002910D001B05D
:100B20002046BDE8F04308470168C905D5D40168EF
:100B300021F01001016084F8358084F83490CCE70E
:100B4000BDE8F883480000202DE9F041044600F09C
:100B5000BDF906465CB1022084F83500002584F812
:100B600034502068016821F0010101600DE001208E
:100B7000BDE8F08100F0AAF9801B052805D92020E6
:100B80006065032084F83500F2E720680068C0073C
:100B9000F0D12268116820480140D4E901031843CC
:100BA000D4E903363343184363691843A3691843F0
:100BB000E3691843236A18430843616A042903D18F
:100BC000D4E90B1319430843106020684069666A32
:100BD00020F0070130460E43012704280CD1A06AFB
:100BE0000643E06A40B12046FFF742FE20B14020B4
:100BF000606584F83570BAE7206846612046FFF7E3
:100C000023FE94F85C203F2191408160656584F863
:100C100035700020ACE700003F8010F070B504464E
:100C200090F83400002501280CD0012084F834000D
:100C300094F835600020012E06D084F83400022597
:100C4000284670BD022070BD022684F835606065BC
:100C50002046FFF737FE2068016841F0010101607E
:100C6000EEE72DE9F0410446866D90F8340000254A
:100C700001280DD0012084F8340094F8357000204C
:100C8000012F07D084F8340002252846BDE8F08102
:100C90000220FBE7022784F8357060652046FFF7E5
:100CA00011FE94F85C103F208840B0602068016815
:100CB00041F016010160206C20B12068016841F00C
:100CC000080101602068016841F001010160DCE772
:100CD0002DE9F84FDFF8BCA10022012503264FF0D3
:100CE0000F090AF1040BAAF1040E00BF0B6805FA04
:100CF00002F42340A34270D10F7907F00307012FBC
:100D000001D0022F16D187684FEA420806FA08FC84
:100D100027EA0C07D1F80CC00CFA08FC4CEA070CC7
:100D2000C0F808C04768A7430C79C4F30014944086
:100D30003C4344600C79E443A4070AD0C4684FEAFA
:100D4000420C06FA0CF7BC438F6807FA0CF72743EE
:100D5000C7600C7904F00304022C12D1D40800EB14
:100D6000840CDCF820405707FF0E09FA07F824EA44
:100D70000804D1F8108008FA07F848EA0408CCF80B
:100D8000208004684FEA420C06FA0CF7BC430F7946
:100D900007F0030707FA0CF7274307604C6814F4C1
:100DA000403F70D03C4C276847F480472760246858
:100DB00022F0030704F480440094384C07EB040C41
:100DC000DCF8084897074FEA177809FA08F7BC4398
:100DD000334FB84202D1002724E054E0314FB842EB
:100DE00001D101271EE0304FB84201D1022719E09E
:100DF0002E4FB84201D1032714E02D4FB84201D144
:100E000004270FE02B4FB84201D105270AE02A4FF3
:100E1000B84201D1062705E0284FB84201D1072783
:100E200000E0082707FA08F72743CCF80878DAF833
:100E300000405746D1F804C09C435FEACC2C00D553
:100E40001C433C60DBF800405F46D1F804C09C4383
:100E50005FEA8C2C00D51C433C60DEF800407746EE
:100E6000D1F804C09C435FEA8C3C00D51C433C6035
:100E7000084F083F3C68D1F804C09C435FEACC3C73
:100E800000D51C433C60521C102AFFF42FAFBDE874
:100E9000F88F0000083C0140443802400030014017
:100EA000000002400004024000080240000C024022
:100EB000001002400014024000180240001C0240D2
:100EC0000AB1816170470904FBE7000001488068AE
:100ED000704700003C0000200248816802781144FD
:100EE000816070473C0000200B4810B5016841F458
:100EF00000710160016841F480610160016841F4A2
:100F000080710160032000F099F80F2000F006F8CE
:100F100000F04AF8002010BD003C024030B5054604
:100F20001C4887B00024016841F00101016000689D
:100F300006A900F00100009001A800F02BF900F0D4
:100F400059F915494000B0FBF1F11548134A491E03
:100F5000026040F2E732C0E90324C0E90114846171
:100F600000F0F4FB040012D10D4800F07FFC0400F7
:100F70000DD1192000F034F8102D07D20022294697
:100F8000192000F03BF80748056000E0012407B095
:100F9000204630BD4438024040420F00000001406E
:100FA000987B0020400000200C4882B0016841F48A
:100FB00080410160006800F4804000900748001FF5
:100FC000016841F0805101600068002200F080500B
:100FD00000900F21901E02B000F010B8443802407B
:100FE000002809DB00F01F02012191404009800028
:100FF00000F1E020C0F8001170470000F0B40E4B83
:101000001B680C46C3F30223C3F10705042D00D966
:101010000425191D072901D2002300E0DB1E01264B
:1010200006FA05F1491E214099409E40761E164061
:101030003143F0BC02F011BA0CED00E0064900F0BB
:10104000070208684FF6FF03184040EA0220034AEF
:1010500010430860704700000CED00E00000FA0546
:101060002DE9F0470E46050065D0DFF81481D8F869
:101070000000F7B200F00700B04207D288F8007015
:10108000D8F8000000F00700B04254D128683D4C69
:10109000810712D5400703D5206840F4E050206056
:1010A0002878000703D5206840F46040206020685D
:1010B000A96820F0F000084320602878C0072DD0F0
:1010C000304968680839012812D0022813D0032853
:1010D00011D00968890700292DDA216821F0030160
:1010E00001432160FFF7F2FE814641F2883A0EE0AB
:1010F00009688903EFE709688901ECE7FFF7E6FE75
:10110000A0EB0901514502D90320BDE8F087206812
:10111000696800F00C00B0EB810FEFD1D8F8001037
:10112000404601F00701B14207D90770006800F09E
:101130000700B04201D00120E7E72878400705D535
:101140002068E96820F4E050084320602878000710
:1011500006D52068296920F4604040EAC10020607B
:1011600000F058F82168084AC1F30311515CC840E7
:101170000649086006480068FFF7D0FE0020C4E773
:10118000003C024008380240E45B000848000020B0
:10119000400000200F2202600C4A136803F0030392
:1011A0004360136803F0F0038360136803F4E053B3
:1011B000C36012684FF4E05303EAD20202610448AC
:1011C000006800F00700086070470000083802401F
:1011D000003C02400448054900680968044AC1F31C
:1011E0008221515CC8407047480000200838024006
:1011F000F45B00080448054900680968044AC1F323
:101200004231515CC8407047480000200838024015
:10121000F45B0008154810B5006810F00C02144883
:1012200013D01449042A0FD0082A0ED10F4C241FC2
:101230002268236802F03F025B0207D52068C0F3F2
:101240008810A0FB010106E0084610BD2168C1F32B
:101250008811A1FB00010023FFF76AF82168C1F3A0
:101260000141491C4900B0FBF1F010BD08380240B3
:101270000024F40040787D012DE9F84F04006ED081
:101280002078DFF84C93C007A9F104054AD009F192
:1012900004000168C1F38101012908D00068C0F38E
:1012A000810002280AD1D9F80000400206D528683A
:1012B000800337D560680028E1D033E06068B0F57E
:1012C000803F10D0B0F5A02F286810D020F48030D7
:1012D0002860286820F4802028606068A8B1FFF7A3
:1012E000F5FD06460DE0286840F48030F4E740F450
:1012F00080202860F7E700BFFFF7E8FD801B642827
:1013000073D828688003F7D50CE0FFF7DFFD0646A9
:1013100005E000BFFFF7DAFD801B6428F0D82868DD
:101320008003F7D42078DFF8AC8280074FF0000A02
:101330003ED5A748001D016811F00C0F08D00068C9
:10134000C0F3810002280BD1D9F80000400207D475
:101350002868800716D5E068012800D112E033E143
:10136000E068B8B10120C8F80000FFF7AFFD0646FD
:1013700005E000BFFFF7AAFD801B0228C0D828683F
:101380008007F7D52868216920F0F80040EAC100FD
:1013900028600DE0C8F800A0FFF798FD064604E0BD
:1013A000FFF794FD801B02281FD828688007F7D418
:1013B0002078000722D5864F87486169703771B160
:1013C00001210160FFF782FD064604E0FFF77EFD84
:1013D000801B022809D838688007F7D50EE0C0F8CE
:1013E00000A0FFF773FD064605E082E0FFF76EFD03
:1013F000801B02287DD838688007F7D42078400702
:1014000068D5DFF8CCB100270BF13C0BDBF800000E
:10141000C0000BD4DBF8001041F08051CBF8001075
:10142000DBF80000012700F0805000906B4E306820
:10143000C00510D4306840F480703060FFF746FD7E
:10144000009005E0FFF742FD0099401A022850D8AD
:101450003068C005F6D55E4EA0686C3601280FD006
:101460000528306810D020F001003060306820F08E
:1014700004003060A068B8B1FFF728FD00900FE0CD
:10148000306840F00100F4E740F004003060F7E716
:10149000FFF71CFD0099411A41F28830814266D85D
:1014A00030688007F4D50EE0FFF710FD009007E0EC
:1014B000FFF70CFD0099411A41F28830814256D85D
:1014C00030688007F4D42FB1DBF8001021F0805190
:1014D000CBF80010A069C8B33D49091D0968C1F3E4
:1014E000810102294AD00228504607D0C8F860007E
:1014F00000E03CE0FFF7EAFC04463BE04746C8F862
:101500006000FFF7E3FC064605E000BFFFF7DEFCE6
:10151000801B02282BD828688001F7D4D4E9070162
:101520000843A16A2E4A490802EB0141626A41EA76
:101530008211084394F82C1040EA0161C9F80010A8
:1015400001203866FFF7C2FC044606E03EE000BF1B
:10155000FFF7BCFC001B022809D828688001F7D5DA
:1015600034E000BFFFF7B2FC001B022802D90320C1
:10157000BDE8F88F28688001F4D427E00128F7D06F
:10158000D9F80000E26900F4800191421CD1226A7E
:1015900000F03F01914217D147F6C071626A0140E5
:1015A000B1EB821F10D1A26A4FF0FF3300F440313B
:1015B00003EB5202B1EB024F06D194F82C1000F06D
:1015C0007060B0EB016F01D00120D1E70020CFE7C0
:1015D0000438024000004742800E4742007000403D
:1015E0000000FFFF7047704770B588B00E460400DA
:1015F00004D094F83D00002518B107E0012008B0A0
:1016000070BD84F83C50204600F056F8022084F863
:101610003D00211D206801F065FAB368316803229E
:10162000206801F0BBFB2068816921F00C01816119
:10163000206881697268114381612068416841F0C6
:10164000800141602068816821F07001816020681C
:10165000816841F0400181602068816821F00701C4
:1016600081602068816841F00401816070200595E7
:1016700004950695039502950090F06801906946DF
:10168000206801F0E7FA2068416821F070014160AC
:101690002068416841F050014160012084F8460013
:1016A00084F83E0084F83F0084F8420084F8430048
:1016B00084F83D000020A2E77047000070B590F864
:1016C0003C20012A32D0012480F83C40022280F8DC
:1016D0003D2003685A689D6822F070060A6832430C
:1016E0005A60134B02689A4214D0B2F1804F11D065
:1016F000104B9A420ED0104B9A420BD00F4B9A428D
:1017000008D00F4B9A4205D00E4B9A4202D00E4B96
:101710009A4204D1496825F080031943916080F80A
:101720003D40002180F83C10084670BD022070BD8D
:10173000000001400004004000080040000C004090
:1017400000040140004001400018004010B50400B2
:1017500003D094F83D0010B107E0012010BD002037
:1017600084F83C00204600F01FF8022084F83D0079
:10177000211D206801F0B6F9012084F8460084F8A4
:101780003E0084F83F0084F8400084F8410084F86B
:10179000420084F8430084F8440084F8450084F84B
:1017A0003D00002010BD000070B586B00546142134
:1017B0006846FEF75CFF296800262748B1F1804F94
:1017C0000CD0264A914207D1016841F0080101601E
:1017D000006800F00800059006B070BD016841F097
:1017E00001010160006800F0010005901A481038FE
:1017F000016841F0010101600068694600F00100E4
:101800000590072000900220CDE901060120CDE9D6
:1018100003601348FFF75CFA134C124820604FF046
:10182000C060C4E901064FF48060C4E90360800031
:1018300060618000A0618011E0614FF44030C4E934
:1018400008062046FFF780F908B1FFF750F82C6230
:10185000EC62A563C0E7000040380240000C004085
:101860000000024028600240007A002090F83D10FD
:10187000012901D001207047022180F83D10016844
:10188000CA6842F00102CA6000681149884214D057
:10189000B0F1804F11D00F4988420ED00E498842D6
:1018A0000BD00E49884208D00D49884205D00D4919
:1018B000884202D00C49884204D1816801F00701B6
:1018C000062903D0016841F0010101600020704742
:1018D000000001400004004000080040000C0040EF
:1018E00000040140004001400018004070B504466B
:1018F00090F83C000025012817D0012684F83C60B0
:10190000022084F83D002068826822F0770222F4E9
:101910007F4282600868502838D00DDC20284FD0E4
:1019200005DC90B3102811D14AE0022070BD3028A8
:1019300046D040280AD13BE060282FD070280DD037
:10194000B0F5805F03D0B0F5005F12D0012584F8B8
:101950003D60002084F83C00284670BDCB68D1E98A
:101960000121206801F033F92068816841F0770196
:1019700009E0CB68D1E90121206801F028F920684D
:10198000816841F480418160E1E719E0CA684968F3
:10199000206801F0F1F95021206806E0CA68496822
:1019A000206801F03BFA6021206801F01AF9CEE7C7
:1019B000CA684968206801F0DFF940212068F4E72F
:1019C000226801461046F0E770B590F83E60044684
:1019D00090F83F5090F8423090F84320022021B117
:1019E00004290ED0012E1BD114E0012E18D1012B99
:1019F00016D184F83E0084F84200012200212068BC
:101A000020E0012D0CD1012A0AD184F83F0084F88E
:101A1000430014E0012D03D1012B01D1012A01D093
:101A2000012070BD84F83E0084F83F0084F8420035
:101A300084F8430001220021206801F0BBF8012254
:101A40000421206801F0B6F82068016841F0010126
:101A50000160002070BD70472DE9F0410446006828
:101A6000C66805694FF00007A90713D5B10711D55E
:101A7000F91E0161012020772068806980072046D7
:101A800002D0FFF7E8FF04E000F0A6F8204600F0DF
:101A900038F92777680716D5700714D521686FF0D5
:101AA00004000861022020772068806910F4407FDC
:101AB000204602D0FFF7CFFF04E000F08DF820466B
:101AC00000F01FF92777280715D5300713D52168AF
:101AD0006FF008000861042020772068C069800743
:101AE000204602D0FFF7B7FF04E000F075F820466B
:101AF00000F007F92777E80616D5F00614D5216817
:101B00006FF010000861082020772068C06910F489
:101B1000407F204602D0FFF79EFF04E000F05CF813
:101B2000204600F0EEF82777E80708D0F00706D047
:101B300021686FF001000861204600F047F928068F
:101B400008D5300606D521686FF080000861204670
:101B5000FFF748FD680608D5700606D521686FF0C6
:101B600040000861204600F03BF9A8060AD5B006FF
:101B700008D521686FF0200008612046BDE8F041DB
:101B8000FFF731BDBDE8F08110B586B004461421E1
:101B90006846FEF76CFD0D492068884214D10C4858
:101BA0000021026842F001020260006800F00100BA
:101BB0000590082000900220CDE90101CDE9031035
:101BC00069460448FFF784F806B010BD000C0040D9
:101BD0003038024000000240704770B5044690F86B
:101BE0003C0000260D4601280FD0012084F83C005F
:101BF0006AB1042A1DD0082A2FD00C2A3FD0012612
:101C0000002084F83C00304670BD022070BD206882
:101C100000F0F0FF2068816941F0080181612068CF
:101C2000816921F004018161206881692A69114379
:101C300011E0206801F00EF82068816941F400612C
:101C400081612068816921F48061816120688169F6
:101C50002A6941EA02218161D2E7206801F030F867
:101C60002068C16941F00801C1612068C16921F0A3
:101C70000401C1612068C1692A69114311E020682B
:101C800001F052F82068C16941F40061C161206827
:101C9000C16921F48061C1612068C1692A6941EA92
:101CA0000221C161ACE710B5040003D094F83D00F7
:101CB00010B107E0012010BD002084F83C00204650
:101CC00000F01EF8022084F83D00211D206800F07D
:101CD00009FF012084F8460084F83E0084F83F00A4
:101CE00084F8400084F8410084F8420084F84300FE
:101CF00084F8440084F8450084F83D00002010BDBD
:101D00007047704710B50446022249B104290ED02D
:101D1000082913D094F84100012816D0012010BDE5
:101D200094F83E000128F9D184F83E200FE094F8A1
:101D30003F000128F2D184F83F2008E094F84000E9
:101D40000128EBD184F8402001E084F841200122F1
:101D5000206800F02FFF16492068164A884201D0FB
:101D6000904203D1436C43F40043436420688842AB
:101D700013D0B0F1804F10D00F4988420DD00F49D9
:101D800088420AD00E49884207D0904205D00D49BA
:101D9000884202D00C49884204D1816801F00701D1
:101DA000062903D0016841F001010160002010BD47
:101DB0000000014000040140000400400008004011
:101DC000000C00400040014000180040006803493A
:101DD000884201D1FFF780B8704700000000014041
:101DE000704770477047704770477047F8B5016893
:101DF00004460868CA684B6910F00F0F4FF00005E1
:101E000056D003F0010602F49077374361D0C10742
:101E100005D0D10503D5616C41F001016164410732
:101E200005D5D90703D0616C41F0020161648107D7
:101E300005D5D90703D0616C41F004016164010745
:101E400007D502F02001314303D0616C41F0080155
:101E50006164616C00293BD0800604D5900602D5F0
:101E6000204601F053F920684069616CC0F380108E
:101E7000090700D440B3204601F05CF820684069AF
:101E800040061ED52068143050E8001F21F04001A4
:101E900040E80012002AF5D1E06B90B1724901656B
:101EA000E06BFEF76FFD002812D0E06B016DD7E00C
:101EB00083060ED593060CD52046BDE8F84001F008
:101EC00025B92046A16DCBE0A16D20468847656409
:101ED000F8BD266B2023012E7ED1C6067CD5D60602
:101EE0007AD508684868009048694FF002064006B5
:101EF00049D5E26B106840684FF480770004000C0D
:101F00003AD0A18D814237D9E085D069B8422DD031
:101F100020680C3050E8001F21F4807140E8001266
:101F2000002AF5D12068143050E8001F21F001018B
:101F300040E80012002AF5D12068143050E8001F54
:101F400021F0400140E80012002AF5D184F8423027
:101F5000256320680C3050E8001F21F0100140E894
:101F60000012002AF5D1E06BFEF7C3FC6663A08D7A
:101F7000E18D401A81B233E0A18D8142A8D1D069B0
:101F8000B8422CD0F8BDA08DE18D401A81B2E08D11
:101F90000028F7D00029F5D020680C3050E8002F39
:101FA00022F4907240E80027002FF5D12068143009
:101FB00050E8002F22F0010240E80027002FF5D161
:101FC00084F84230256320680C3050E8002F22F05E
:101FD000100240E8002300E008E0002BF3D1666324
:101FE000E26E01B02046BDE8F040104705062BD553
:101FF000150629D594F841002128C3D1A068B0F571
:10200000805F01D12069B0B1206A411C2162216842
:1020100000784860E08C401E0004000CE084B1D1E0
:102020002068C16821F08001C1602068C16841F06A
:102030004001C160F8BD206A0088C0F30800486014
:10204000206A801C2062E5E74006F3D55006F1D5F2
:10205000CA68204622F04002CA6084F84130E16C30
:1020600001B0BDE8F0400847412E000870B50400FB
:1020700004D094F84100002510B10DE0012070BD9E
:1020800084F84050204601F01BF8206F08B914482E
:102090002067014620468847242084F841002068B4
:1020A000C16821F40051C160204601F091F8206818
:1020B000016921F4904101612068416921F02A0100
:1020C00041612068C16841F40051C160656420200D
:1020D00084F8410084F842006563002070BD000070
:1020E000E52000082DE9F04186B006461421684637
:1020F000FEF7BDFA3149306888425CD1304800248F
:10210000016841F010010160006800F010000590C6
:102110002B481438016841F00101016000686946EC
:1021200000F0010005904FF4C06000900220CDE95E
:10213000010403200390072004902248FEF7C8FD05
:10214000224D21484FF000672860C5E901744FF423
:102150008068C5E9034880156C61C5E906404FF405
:102160004030C5E908042846FEF7EEFC08B1FEF74A
:10217000BEFBF563AE63154D134860357830E5E876
:1021800002074020A5E81101104845F814496030C5
:10219000AC61EC612C626C62FEF7D6FC08B1FEF714
:1021A000A6FBB563002205212520AE63FEF726FFBE
:1021B0002520FEF715FF06B0BDE8F08100100140B4
:1021C000443802400000024040640240D87A0020B7
:1021D00090F84230202B01D00220704721B11AB173
:1021E0000023036301F07AB80120704770477047FD
:1021F0002DE9F843044690F84100984616460D46EE
:10220000202802D00220BDE8F88385B17EB10020ED
:102210006064212084F84100FEF758FEA6848146C0
:10222000E684A0682027B0F5805F02D003E001209B
:10223000E9E7206910B12E4600250EE000260CE0EB
:102240008021204601F09AF8A8B9C6B116F8010B12
:1022500021684860E08C401EE084E08C4B464FF0E3
:102260000002CDF800800028EAD14FF0400120465E
:1022700001F084F840B184F841700320C3E735F8D9
:10228000020BC0F30800E3E784F841700020BAE7CE
:1022900070477047FEE70000154808B5016841F433
:1022A00080010160016801F480010091016841F43E
:1022B000001101600068002200F400100090052168
:1022C0000C20FEF79BFE0C20FEF78AFE0022052163
:1022D0003A20FEF793FE3A20FEF782FE0022052107
:1022E0004620FEF78BFEBDE808404620FEF778BE8C
:1022F0003038024010B5224801F0D2F9214C204A72
:10230000012120621032084601F02CFA1C4A0121FA
:1023100060622032084601F025FA194A0121A062C4
:102320003032084601F01EFA154A0121E0624032BF
:10233000084601F017FA124A2063B43A0021124805
:1023400001F05CFA0E4AE060903A00210F4801F07B
:1023500055FA0B4A20616C3A00210D4801F04EFA03
:10236000074A6061483A00210A4801F047FA044AE6
:10237000A061243A0021084801F040FAE06110BD54
:102380008C5B000808000020392800086928000834
:1023900085290008B9290008E92900082DE9F0433A
:1023A00087B014216846FEF762F94F48002401689F
:1023B00041F010010160016801F010010591016810
:1023C00041F004010160016801F004010591016818
:1023D00041F080010160016801F080010591016810
:1023E00041F001010160016801F0010105910168FE
:1023F00041F002010160016801F0020105910168EC
:1024000041F0080101600068DFF8E08000F008009A
:102410004FF4E0470590002239464046FEF750FD54
:10242000DFF8CC90002227214846FEF749FD4FF601
:10243000FF7603250096CDE9015469462D48FEF745
:1024400047FC0096CDE9015469462B48FEF740FC55
:1024500049F6F010CDE90005694602942748FEF7D9
:1024600037FC48F6FF70CDE9000569460294404606
:10247000FEF72EFC0126CDE9007669464046CDE9FF
:102480000245FEF725FC4FF4E26000904FF4041083
:10249000CDE9010669464846FEF71AFC4FF6C00032
:1024A000CDE90005694602944846FEF711FC072075
:1024B000CDE9000669464846CDE90245FEF708FC2D
:1024C0000820CDE90004694648460294FEF700FC66
:1024D00020200090CDE90164694648460394FEF748
:1024E000F7FB07B0BDE8F08330380240000402403B
:1024F000000C0240001002400008024000000240B0
:1025000010B58AB000241E480494059406940794DC
:10251000039400940194029408944FF0804109942C
:10252000C0E90014611EC0E902418021046181619B
:10253000FFF70CF908B1FEF7DAF94FF48050049078
:1025400004A90F48FFF7D2F908B1FEF7D0F905202A
:102550000094CDE90140694609480394FFF744F827
:1025600008B1FEF7C4F95020CDE9080408A90448D1
:10257000FFF7A4F8002801D0FEF7B9F90AB010BDA2
:102580007079002010B58EB0002407940894099447
:102590000A940B941C2168460C94FEF768F82048B6
:1025A0001E4901605321C0E9011440F2E731C0E93E
:1025B000031480218161FFF7C9F808B1FEF797F98C
:1025C0004FF48050079007A91548FFF78FF908B11D
:1025D000FEF78DF91248FFF766FB08B1FEF787F9A1
:1025E0000B940BA90E480C94FFF768F808B1FEF79E
:1025F0007EF9602000904FF4FA70CDE901040C22BE
:10260000694607480494FFF7E8FA08B1FEF76FF946
:102610000348FFF7B9FA0EB010BD0000000C0040EF
:10262000B87900200C4810B50A4901604FF4E13137
:102630004160002181600C22C160C0E90412816107
:10264000C161FFF713FD002803D0BDE81040FEF77D
:102650004EB910BD00100140607A0020FEE7000076
:102660002DE9F041ADF5047D4FF400723C49684618
:10267000FDF7A1FF3BA0002600688096CDE98160B0
:10268000394D3AA168462A68FDF7CAFE8DF8000266
:1026900036A110A86A68FDF7C3FE8DF8010233A1C8
:1026A00020A8AA68FDF7BCFE8DF802022FA130A871
:1026B000EA68FDF7B5FE8DF8030200222BA140A8C1
:1026C000FDF7AEFE8DF80402002228A150A8FDF708
:1026D000A7FE8DF80502002224A160A8FDF7A0FE48
:1026E0008DF80602002221A170A8FDF799FE8DF851
:1026F000070200246F460DF5007800BF18F804208B
:1027000007EB841164231A48FFF772FD6423032248
:1027100082A91748FFF76CFD641CE4B2082CEDD3C6
:102720000021084600F03AFF0021012000F036FFAA
:102730000021022000F032FF0021032000F02EFFD4
:102740002E606E600B48AE60EE6001684E620068FD
:102750004663094806600DF5047DBDE8F081000080
:10276000D8570008FFFFFF006079002025640000B3
:10277000607A00207079002010000020044B0128AE
:1027800004D0012202211846FEF79ABB0022F9E785
:10279000000C02404FF47A71884200D30846024987
:1027A000401E096808647047B879002010B50F4CC6
:1027B00001280DD0002201212046FEF781FB0022D6
:1027C00004212046FEF77CFBBDE81040FFF748BF20
:1027D000012211462046FEF773FB01220421204608
:1027E000FEF76EFBBDE8104000F080BE000C02401A
:1027F000FEE7000070B50E4948788A78CD7940EA46
:102800000224CA78087942EA00204A7940EA024064
:102810008A7940EA0266087AFFF7C8FF2046FFF788
:10282000B9FF2846FFF7AAFF0248066070BD000006
:10283000CC000020100000200A4E094C4FF47A789A
:10284000002506F10C074146606A00F05DFF28B1E3
:10285000B0683860642000F0E7FEF4E72570F9E71F
:102860000800002054790020DFF8ECB0DFF8ECA07D
:10287000DFF8EC803B4C41F2883500BFDAF800709D
:10288000D7F82490DBF8000040682E1A44E036495F
:10289000E2889FED361A31F82010E1808A1A92B250
:1028A00000EE102A3968B8EE400AC0EE010AB7EE11
:1028B000000A80EE201A9FED2E0A21EE000AB1EEEA
:1028C000081AC0EE010AB7EE081A80EE810A401C11
:1028D000B0FBF5F205FB1200A080C1F3001188F8EF
:1028E00000104846BCEEC00A88ED010A02F002FF63
:1028F0009FED201B53EC112B02F0A4FD9FED1F1B3D
:1029000053EC112B02F09EFD02F06AFD00EE100A5E
:10291000BCEEC00A88ED020AA088B042B7D11049C7
:1029200000200C3151F820201AB1401CC0B20428FC
:10293000F8D3032801D1FFF793FED8F80810A26856
:102940002046914203D1806808B1FFF789FE0A2032
:1029500000F06AFE92E70000007A00207079002003
:102960005479002008000020342B002000247449F2
:10297000000070420000000000001840000000004D
:102980000000F83F0B4F0A4C002607F10C084FF4EB
:102990007A752946A06A00F0B7FE30B1B968C8F868
:1029A0000410284600F040FEF3E76670F9E70000E7
:1029B00008000020547900200A4E094C4FF47A7820
:1029C000002506F10C074146E06A00F09DFE28B1A3
:1029D000B068B860642000F027FEF4E7A570F9E75E
:1029E00008000020547900200A4E094C4FF47A78F0
:1029F000002506F10C074146206B00F085FE28B14A
:102A0000B068F860642000F00FFEF4E76570F9E745
:102A1000080000205479002010B54FF0E020006934
:102A200002F0ECFA012803D0BDE8104001F09ABE94
:102A300010BD000030B593B030216846FDF717FE99
:102A400014210CA8FDF713FE1D480025016841F074
:102A500080510160006800F08050119019480168B1
:102A600041F4804101600068022400F4804011902C
:102A70000120039010200490009406940820CDE9D2
:102A80000750A820CDE9090404200B906846FEF702
:102A9000F3FB08B172B6FEE70CA90F2081E8310004
:102AA0004FF4A0500F904FF48050109005210CA8C7
:102AB000FEF7D6FA002801D072B6FEE713B030BD9B
:102AC00040380240007000400248016841F4700143
:102AD0000160704788ED00E00148FEF7BDBF0000CF
:102AE000987B0020F0B50268274B284D284E294FCF
:102AF000294C4FF0804C984209D0604507D0A8423D
:102B000005D0B04203D0B84201D0A04204D122F097
:102B1000700E4A6842EA0E0298421BD0604519D0F6
:102B2000A84217D0B04215D0B84213D0A04211D05D
:102B30001A4DA8420ED01A4DA8420BD0194DA842EA
:102B400008D0194DA84205D0184DA84202D0184D02
:102B5000A84203D122F44075CA682A434D6922F085
:102B600080022A438D68C5620D688562984201D053
:102B7000A04201D109690163016841F004010160CB
:102B8000012141610260F0BD0000014000040040ED
:102B900000080040000C00400004014000400140DB
:102BA000004401400048014000180040001C004063
:102BB0000020004010B501F01F030121046A994074
:102BC0008C430462016A9A401143016210BD10B542
:102BD000846842EA032224F47F440A432243826049
:102BE00010BD826822F070020A4342F00701816042
:102BF00070470000F0B5036A026A22F00102026227
:102C000042688469124E24F073050C682C4323F04B
:102C100002058B682B430D4DA84201D0B04205D16F
:102C200023F00807CB683B4323F00403A84201D0FC
:102C3000B04205D14D6922F4407215438A692A4396
:102C400042608461496841630362F0BD0000014055
:102C500000040140F0B5026A036A23F01003036226
:102C6000436884690D6824F4E64444EA05248D68C9
:102C700022F0200242EA05120F4D104EA84201D068
:102C8000B04206D1CF6822F0800242EA071222F059
:102C90004002A84201D0B04207D14D6923F44063FD
:102CA00043EA85038D6943EA85034360846149688B
:102CB00081630262F0BD0000000001400004014099
:102CC000F0B5026A036A23F4807303624368C4693F
:102CD00022F4007224F073050C68124E2C438D68A8
:102CE00042EA05220E4DA84201D0B04206D1CF687B
:102CF00022F4006242EA072222F48062A84201D054
:102D0000B04207D14D6923F4405343EA05138D695E
:102D100043EA05134360C4614968C1630262F0BDC0
:102D2000000001400004014030B5046A026A22F448
:102D3000805202624268C3690D6823F4E64343EAA5
:102D400005238D6824F4005444EA0534084DA84254
:102D500002D0084DA84204D14D6922F4804242EAD3
:102D600085124260C36149680164046230BD00009D
:102D7000000001400004014010B5036A046A24F019
:102D800001040462846924F0F00444EA021423F08C
:102D90000A020A438461026210BD000070B5056A30
:102DA000046A24F0010404628469154EB04214D010
:102DB000B0F1804F11D0134EB0420ED0124EB0423F
:102DC0000BD0124EB04208D0114EB04205D0114E79
:102DD000B04202D0104EB04203D124F00304144399
:102DE00001E044F001041A0724F0F00444EA1262FE
:102DF00025F00A0301F00A0119438261016270BDE6
:102E0000000001400004004000080040000C0040A9
:102E100000040140004001400018004010B5036A62
:102E2000046A24F010040462846923F0A00324F4EB
:102E3000704444EA023243EA01118261016210BD2A
:102E4000806B0021C185816D084770B5846B206857
:102E5000406994F84110C0F3C0100025212904D125
:102E600018B1E584204600F08CF82068406994F899
:102E70004210C0F38010222904D118B1E585204604
:102E800000F058F8606C40F0100060642046A16DBE
:102E9000BDE87040084730B40146806B0968096896
:102EA0004FF00002C9052ED4C28501680C3151E8EB
:102EB000003F23F4807341E80034002CF5D1016811
:102EC000143151E8003F23F0010341E80034002CA5
:102ED000F5D10168143151E8003F23F0400341E887
:102EE0000034002CF5D1202180F84210016B01291B
:102EF00009D101680C3151E8003F23F0100341E88B
:102F00000034002CF5D14263016B012902D0416DE0
:102F100030BC0847818DC26E30BC1047806B0121E8
:102F20004163016B012901D0016D0847818DC26E9B
:102F30004908104701680C3151E8002F22F49072C3
:102F400041E80023002BF5D10168143151E8002F2E
:102F500022F0010241E80023002BF5D1016B012989
:102F600009D101680C3151E8002F22F0100241E82C
:102F70000023002BF5D1202180F8421000210163AD
:102F8000704701680C3151E8002F22F0C00241E87F
:102F90000023002BF5D1202180F84110704700005C
:102FA0002DE9F0474248C06B00684068414CC0F5CD
:102FB000007080B2A080E188884201D3401A02E00C
:102FC000C1F50072104482B2501E14253A4BB0F580
:102FD000007F19D22078A3F5007C03EB4026002067
:102FE00007E00F18C7F308071CF807703754401C98
:102FF00080B29042F5D32078401CB0FBF5F105FB80
:1030000011002070A088E080002027786678DFF823
:10301000AC900246BE4248D003EB462194F902C070
:10302000095CBCF1000F09D0BCF1010F0CD0BCF160
:10303000020F12D0BCF1030F25D127E05A2922D16B
:103040000121A170C2B21EE039B14FF0020C84F828
:1030500002C0C91E89F8001015E099F800C00CF1F3
:103060000208804506D0A52904D009EB000C0CF815
:10307000011C08E002F10208C444844503D1A529DB
:1030800001D10321A170401C80B2C3E70020A070D1
:10309000FFF7B0FB65210948FDF7C7FA6078401CCF
:1030A000B0FBF5F105FB11006070BDE8F087000092
:1030B000607A00200000002031030020CC000020B6
:1030C000094981640949C1640949016509494165A2
:1030D000094981650949C16509490166094941668E
:1030E0000949C16670470000932200089122000838
:1030F000EF210008ED210008EB1D0008E51D000888
:10310000E91D0008E71D0008E31D000808B590F858
:103110004210222901D0022008BD82684FF480535A
:103120009A4201D1016921B1816A9A421BD04AB108
:103130000AE00268816A5268C2F308020A80816A62
:10314000891C08E0026972B10268526802F07F02CD
:103150000A70816A491C8162C18D491E0904090CEB
:10316000C18503D01BE002685268F1E70168CA68B4
:1031700022F02002CA600168CA6822F48072CA6024
:1031800001684A6922F001024A61202180F8421058
:1031900000214163026B012A03D0416D8847002062
:1031A00008BD016301680C3151E8002F22F01002C4
:1031B00041E80023002BF5D101680A68D20602D548
:1031C0000A6849680091C26E818D9047E7E7000068
:1031D00070B5044600680169E26821F4405111436A
:1031E00001612169A068E2690843616911430843EC
:1031F0002168CA6849F20C639A430243CA60206896
:103200004169A26921F4407111434161314920684B
:10321000884202D03049884202D1FDF7EBFF01E03D
:10322000FDF7D8FFE2690023192164253226B2F5A3
:10323000004F626828D0A0FB0101930F9200FDF7B8
:1032400077F80146B0FBF5F06FF01802504301EB40
:10325000800006EB0010B0FBF5F000F0F002B1FBCF
:10326000F5F002EB0012B1FBF5F06FF018035843D4
:1032700001EB800006EB0010B0FBF5F000F00F0052
:1032800021681044886070BDA0FB010192185B4169
:10329000FDF74EF80146B0FBF5F00201B1FBF5F089
:1032A0006FF01803584301EB800006EBC000B0FB41
:1032B000F5F000F0F80002EB4002B1FBF5F05843E6
:1032C00001EB800006EBC000B0FBF5F000F007005A
:1032D000D6E70000001001400014014038B58162BB
:1032E00004468285002013466064222284F842202E
:1032F000E56B1F4AEA63E56B1E4A2A64E56B1E4ACA
:10330000EA64E26B10650A462168E06B091DFDF76F
:10331000A8FC30B110206064202084F84200012015
:1033200038BD2068016840680090206948B1206875
:103330000C3050E8001F41F4807140E80012002A70
:10334000F5D12068143050E8001F41F0010140E839
:103350000012002AF5D12068143050E8001F41F017
:10336000400140E80012002AF5D1002038BD0000DD
:10337000972E00081D2F00084B2E00082DE9F8435A
:10338000984617460D460446089E24E0701C22D03D
:10339000FDF79CFDA0EB0800B0421AD8CEB1206822
:1033A000C168490717D5802D15D0402D13D001686D
:1033B000C94309070FD401680025406800902046E2
:1033C000FFF7B8FD0820606484F840500120BDE894
:1033D000F8830320FBE72068006835EA000004D08A
:1033E0000020B842D2D00020F1E70120F9E7000028
:1033F00008B50B48FEF7FAFC094800680168C906E1
:1034000004D5016840680090FFF7CAFD01B064234D
:103410001E2204A102485DF804EBFEF7E9BE00009D
:10342000607A002031313131313131313131313156
:103430000D0A000010B54FF4007205490548FEF76B
:10344000C7FE04480068C16841F01001C16010BDAA
:1034500031010020607A0020FEE70907090E0028EC
:1034600004DB00F1E02080F80014704700F00F004A
:1034700000F1E02080F8141D70470000FDF734FDD6
:10348000FFF7D8FAFEF78AFFFEF706FFFFF738F8D6
:10349000FFF778F8FFF7C6F83C210F48FEF794FADB
:1034A00041F288330D4A0E490E48FDF7B7FB0A4832
:1034B0000068C16841F40071C1600C210A48FEF740
:1034C00021FCFFF7B7FF00F011F800F0BBF8FEF7A2
:1034D00011FF00F0C9F8FEE770790020342B0020BE
:1034E00034000040007A0020B879002070B5C2B0E6
:1034F0000121002000F052F80121084600F04EF8AA
:103500000121022000F04AF80121032000F046F8D2
:103510004FF480721D496846FDF74DF81CA001224A
:1035200000684190002040901AA16846FCF778FF9F
:103530008DF80001012217A110A8FCF771FF8DF88A
:103540000101012213A120A8FCF76AFF8DF80201F6
:10355000012210A130A8FCF763FF8DF803010024BD
:103560006D4640AE05EB8411325D64230A48FEF7D8
:103570003FFE6423032241A90748FEF739FE641C7D
:10358000E4B2042CEED342B070BD0000D85900085C
:10359000FFFFFF0025640000607A00202DE9F04164
:1035A0004FF400541E4E1F4F650040B1012815D046
:1035B000022820D0032831D149B3002228E04FF45B
:1035C000805029B1014600223846FDF779FC06E01B
:1035D000014601223846FDF773FC06E029B10022BE
:1035E00021463846FDF76CFC06E0012221463846AC
:1035F000FDF766FC06E029B1002229463846FDF7B2
:103600005FFCDAE7012229463846FDF759FC012222
:103610003046BDE8F0412021FDF752BCBDE8F08105
:10362000000C02400004024010B5EFF3058111B117
:103630006FF0050403E0002408B100F0EBFE204623
:1036400010BD0000EFF3058010B16FF0050070476A
:103650000448016811B14FF0FF307047012101604B
:10366000002070479C00002010B5EFF3058010B1DA
:103670006FF0050010BD08480168012902D04FF025
:10368000FF3010BD054A002182F8141D022101609F
:1036900000F070FF002010BD9C0000200BE000E057
:1036A00070B505464FF00004EFF3058050BB0DB137
:1036B000686800E00020C10701D0012600E0002674
:1036C00000071FD46DB1D5E9021021B1502819D3DC
:1036D0001EB1042002E020B114E0012001F0A0F8A6
:1036E00005E00EB1042000E0012001F08EF8040096
:1036F00008D00DB1296800E0002100F029FE0EB1CC
:1037000044F00104204670BDF8B50D460024211F89
:103710004E1C002804D000BFEFF30582A2B10DB10A
:103720000C461BE000216A46009101F0CBFA01280B
:1037300013D1009890B10A494FF080500860BFF350
:103740004F8FBFF36F8F09E0294601F009FB012875
:1037500004D015B16FF0010400E034462046F8BDF6
:1037600004ED00E0F8B5144603460E464FF00005A0
:10377000EFF3058098BB93B39E423DD84CB1A0684F
:103780000028E06803D0502836D3012002E008B1B9
:1037900032E00020012B05D010B31846A26801F0DA
:1037A00014F820E040B103200090002211460120CF
:1037B000A36801F063F804E003220021012001F076
:1037C0003CF8050018D086B100231A46194601F0CE
:1037D000CDF8012809D0284600F0CEFD00250BE0E9
:1037E000184600F0D5FF050006D00CB1216800E0B6
:1037F0000021284600F0ACFD2846F8BD2DE9FF4128
:103800004FEA01034FF00005EFF30581039549BB33
:1038100040B38027182100244AB3166806B1344605
:1038200096691EB13146761E382E02D21679F607F9
:1038300003D0002004B0BDE8F081566906B1B70896
:10384000D2F808C0BCF1000F0DD0D5685C2D18D39C
:1038500012693AB136B18DE806103A46214601F0B8
:10386000A2FB03900DE0D6685EB912694AB903AABB
:10387000CDE90012BAB2214601F068FB012800D060
:1038800003950398D6E700002DE9F041134C0F464D
:103890000546E6682068001D00F05CFC681C07D146
:1038A00037B12168BDE8F0410D48091D00F0A2BC08
:1038B00020683544B5424560216805D2A06BBDE85B
:1038C000F041091D00F07EBC606B091D00F07AFC20
:1038D000A06A854200D2A562BDE8F0814C000020BC
:1038E000D08000202DE9F041054600F08FFC2D4CE2
:1038F000A068401CA06020682B4F10B1606930B3F5
:103900002BE02560A068012827D1002606EB860061
:1039100007EB800000F048FC761C382EF6D32348D5
:1039200000F042FC2148143000F03EFC1F482830D3
:1039300000F03AFC1D483C3000F036FC1B4850308B
:1039400000F032FC194860631430A06305E0206881
:10395000E96AC06A884200D82560606A401C6062DB
:103960006864E86A2169884200D9206100EB800020
:1039700007EB8000291D00F03DFC00F067FC60694A
:1039800000280CD02068E96AC06A884207D208493A
:103990004FF080500860BFF34F8FBFF36F8FBDE8CB
:1039A000F08100004C000020207C0020808000205E
:1039B00004ED00E038B500F029FC104C2068C8B9CF
:1039C0000F4800F0F1FB0E48143000F0EDFB0C48FE
:1039D000E060143020610A4B0020F03B009003F1BE
:1039E000500210210A2000F049FF206010B105A10B
:1039F00000F0AEFCBDE8384000F028BC8800002094
:103A0000D4810020546D72510000000030B4026C6B
:103A10000B46002A0BD0C1681144C1608468A142E2
:103A200001D30168C16030BC1846FCF77FBD30BCD3
:103A300070472DE9F041856B174604460026026C5D
:103A400082B1C7B1E068FCF771FDE168206C091A2A
:103A5000E1602268914202D2A168081AE060022F58
:103A600016D017E02068A8B9A06801F03FFB064611
:103A70000020A0600EE06068FCF758FD216C6068D3
:103A800008446060A168884204D32068606001E057
:103A900005B16D1E6D1CA5633046BDE8F08110B503
:103AA000044690F8590058B101280CD002280FD0D4
:103AB000502080F31188BFF34F8FBFF36F8FFEE765
:103AC000206B00F0D7FB2046BDE8104000F0D2BBD1
:103AD00010BD000010484FF47051420706D0C01DC1
:103AE0000D4920F00700411AC1F570510B4A00231F
:103AF0000144C2E900030839183A21F007011160B6
:103B00004B600B600B1AC0E9001393604FF000404C
:103B10005360506170470000B4880020B800002056
:103B2000144E154CA6F29C474FF08058DFF84C908D
:103B300012E000BF00F06AFBF068C568281D00F0C5
:103B400009FBA068401EA0606068401E606000F035
:103B50007DFB2846FFF7A3FF60680028EAD138689C
:103B60000128F9D9C9F80080BFF34F8FBFF36F8FD9
:103B7000F2E70000BC8000204C00002004ED00E0D3
:103B8000002807D00021816001600B460A46C16011
:103B900000F0ECBE7047000070B51D46049C51B1AA
:103BA000C4F80020C4E90F010121204600F09AFE6C
:103BB00084F84C5070BD2460F4E700002DE9F05FFC
:103BC0008846DDE90B941546834691009A460A9E85
:103BD000A522206BFCF721FD6FF00301206B01EBA8
:103BE0008501084420F00707780707D0502080F3AC
:103BF0001188BFF34F8FBFF36F8FFEE70025B8F139
:103C0000000F0FD05FF00000221818F8001082F8A3
:103C1000341018F8001011B1401C1028F4D384F8A7
:103C2000435001E084F83450382E00D33726E66242
:103C3000C4E91365201D00F0C2FA04F1180000F079
:103C4000BEFA2461C6F138006462A061656584F83B
:103C5000585052465946384600F066FA2060B9F18D
:103C6000000F01D0C9F80040BDE8F09F30B5114900
:103C700000E011460A688242FBD34B685C1884421C
:103C800003D1406818444860084643681C189442B1
:103C900009D1084C183C2468A24209D052681A4441
:103CA00042600A6812680260814200D0086030BD3C
:103CB0000460F9E7B800002070B5002441600B4DA6
:103CC0000061914206D8D11A8269914206D2011D43
:103CD000286907E09A4203D2994201D3012403E004
:103CE000011DE86800F06EFA204670BD88000020D3
:103CF00010B5044600F08AFAA06B28B15FF000040A
:103D000000F0A4FA204610BD0124F9E730B589B0CF
:103D10003C4D6EE00498002806DADDE90601059ABC
:103D200090470498002864DB069C606910B1201D50
:103D300000F010FA03A800F0D7F8024604980A2809
:103D400057D2DFE800F00505052D334A05052D3370
:103D500094F8280040F0010084F828000599A06933
:103D6000059B01442046FFF7A7FF68B3216A204660
:103D7000884794F8280040073BD50020009005981C
:103D8000A169002342181946204601F0F5FAD8B976
:103D9000502080F31188BFF34F8FBFF36F8FFEE782
:103DA00014F8280F20F00100207022E094F8280079
:103DB00040F0010084F828000598A06128B181181E
:103DC00013462046FFF778FF13E0502080F3118858
:103DD000BFF34F8FBFF36F8FFEE794F82800810782
:103DE00003D4204600F046FA03E020F0010084F8F6
:103DF0002800002204A9286800F0C8FE002889D104
:103E000009B030BD880000202DE9FC410F46054671
:103E100000F0F4FB01A800F067F80446019818B11F
:103E200001F018FABDE8FC81254EAFB13069006899
:103E3000D0B30027291B3A46306800F0C9FA01F0D8
:103E400009FA0028EED11F494FF080500860BFF3F7
:103E50004F8FBFF36F8FE5E7A542EBD801F0FAF97A
:103E6000F0682746C068C468201D00F073F994F814
:103E70002800410719D5A0692B4641193A4620462A
:103E8000FFF71AFFA8B100200346014600902A461A
:103E9000204601F071FA60B9502080F31188BFF319
:103EA0004F8FBFF36F8FFEE707E020F0010084F82B
:103EB0002800216A20468847B4E70127BAE70000B6
:103EC0008800002004ED00E00648416B096829B134
:103ED000416BC968C9684968816270474FF0FF311A
:103EE000FAE700004C00002070B5054601F094F898
:103EF000064E0446B068844203D200F009F801205F
:103F000000E0002028602046B46070BD88000020DA
:103F1000F8B5194D20E0C068C4680668201D00F09F
:103F200019F9216A2046884794F82800400713D5DC
:103F3000A0693044B04206D924616060211DE86860
:103F400000F040F908E000200346014600903246A8
:103F5000204601F011FA38B1E86801680029DAD189
:103F60002969C5E90310F8BD502080F31188BFF31B
:103F70004F8FBFF36F8FFEE788000020084840682E
:103F8000401C4FF0500080F3118804D0BFF34F8FD6
:103F9000BFF36F8FFEE7BFF34F8FBFF36F8FFEE767
:103FA000C0000020074CE068016841B1C0680021F2
:103FB000D0F80000FFF728FFFFF7A8FEF3E7012184
:103FC0000020F7E7880000202DE9F041044600F0CA
:103FD0001DF994F9455004F1240609E0606A48B1DE
:103FE000304601F0FFF808B100F042FA6D1E6DB2E4
:103FF000002DF3DC4FF0FF3684F8456000F026F921
:1040000000F004F994F9445004F1100709E0206924
:1040100048B1384601F0E6F808B100F029FA6D1E03
:104020006DB2002DF3DC84F84460BDE8F04100F08F
:104030000DB900002DE9F0410546002700F0DEFA39
:10404000324E306808B9FFF745FD706905424ED120
:10405000C5B3083568070ED005F00700C0F10800A9
:104060000544680707D0502080F31188BFF34F8FB5
:10407000BFF36F8FFEE72DB37068854237D82348B2
:10408000183001460C6801E020460C466168A942E0
:1040900002D221680029F7D131688C4227D0076805
:1040A0002168016060680837411B10290FD9601929
:1040B000420708D0502080F31188BFF34F8FBFF321
:1040C0006F8FFEE713E041606560FFF7CFFD616829
:1040D0007068401A7060B268904200D2B060706937
:1040E00001430020C4E90001F068401CF06001F0C9
:1040F000B1F8780707D0502080F31188BFF34F8FB5
:10410000BFF36F8FFEE73846BDE8F081A0000020C6
:104110000449086818B10868026D521C02650868F5
:10412000704700004C00002010B5031F4FF0807452
:104130001C601B1F21F001011960191F044B0B604B
:1041400014390A60091F6FF0020244380A6010BD7A
:104150007D3F0008D0E9013201699A60D0E901236E
:104160005A604A68824201D182684A600022026134
:104170000868401E0860086870470000034B036031
:1041800003F15C000860802010607047FC81002013
:10419000044B036003F15C0008604FF48070106012
:1041A000704700005884002000F108014FF0FF32F2
:1041B000C0E90112C1600161002101607047002166
:1041C0000161704730B50B685A1C02D000F108023B
:1041D00002E0026904E02246546825689D42FAD94B
:1041E00053684B6099608A60516008610168491C9E
:1041F000016030BD42684A6093688B609368596083
:10420000916008610168491C01607047502080F38B
:104210001188BFF34F8FBFF36F8F0A494868401C66
:10422000486001280CD10848006810F0FF0F07D043
:10423000502080F31188BFF34F8FBFF36F8FFEE7DD
:1042400070470000C000002004ED00E00849486805
:1042500028B1401E486001D180F31188704750207A
:1042600080F31188BFF34F8FBFF36F8FFEE700001D
:10427000C000002070B500282AD0164DA0F1080417
:1042800060686969084207D1502080F31188BFF344
:104290004F8FBFF36F8FFEE722683AB1502080F353
:1042A0001188BFF34F8FBFF36F8FFEE788436060C5
:1042B00000F0A4F960686968084468602046FFF768
:1042C000D5FC2869401C2861BDE8704000F0C2BFE1
:1042D00070BD0000A00000204FF0E020002101612F
:1042E000816105494FF47A720968B1FBF2F1491E08
:1042F00041610721016170474800002010B5FBF7BC
:10430000F3FF114910280ED300F1E02090F8F003DC
:104310000A78904207D2502080F31188BFF34F8F64
:10432000BFF36F8FFEE709480068896800F4E0601A
:10433000884207D9502080F31188BFF34F8FBFF315
:104340006F8FFEE710BD0000C00000200CED00E004
:1043500010B5084B002200BF53F832401CB1521C6C
:10436000082AF9D310BD43F8321003EBC2014860AC
:1043700010BD0000E07B002010B504000AD000F062
:1043800013F894F8460000280CD12046BDE81040F0
:10439000FFF770BF502080F31188BFF34F8FBFF33A
:1043A0006F8FFEE710BD0000084A002102EBC10339
:1043B0005B68834206D1002042F8310002EBC10164
:1043C00048607047491C0829F0D37047E07B002003
:1043D00070B515460E460446FFF718FF94F94410D1
:1043E0000020491C01D184F8440094F94510491C6F
:1043F00001D184F84500FFF729FFA06B28B92A46B0
:10440000314604F1240000F051F82046BDE8704028
:10441000FFF7DABD10B5020014D00F48006B38B1B9
:10442000502080F31188BFF34F8FBFF36F8FFEE7EB
:1044300000F0E4F800211046FFF726FA00F00AFF2A
:10444000002807D105494FF080500860BFF34F8F17
:10445000BFF36F8F10BD00004C00002004ED00E0A2
:1044600002490A6A0260C968416070474C00002036
:1044700001490120C86170474C00002010B50C466E
:1044800050B1094909681831FFF79CFE2046BDE884
:1044900010400121FFF7F8B9502080F31188BFF3D5
:1044A0004F8FBFF36F8FFEE74C00002070B51446AE
:1044B0000D4668B10A4909681831FFF79BFE0CB137
:1044C0004FF0FF3521462846BDE87040FFF7DCB9C4
:1044D000502080F31188BFF34F8FBFF36F8FFEE73B
:1044E0004C00002070B504003ED0226DA2B1E06CFB
:1044F000884200D30146E06A884235D0012A33D190
:104500001A4D2A6894420FD1502080F31188BFF3CE
:104510004F8FBFF36F8FFEE7502080F31188BFF3FA
:104520004F8FBFF36F8FFEE7E162A269002A02DBC3
:10453000C1F13801A1610E4E00EB8000616906EB0C
:104540008000814210D1201DFFF704FEE06A296936
:10455000884200D9286100EB800006EB8000211D15
:10456000BDE87040FFF746BE70BD00004C00002063
:10457000207C002030B587B00024039405AA04A94C
:1045800003A80494FFF7FAFDDDE903010094CDE9E7
:104590000110002315A11748059A00F004FD164DDF
:1045A0000028E8621FD000F0B7FE012809D0401CA7
:1045B00019D1502080F31188BFF34F8FBFF36F8F55
:1045C000FEE7502080F31188BFF34F8FBFF36F8F4A
:1045D0004FF0FF30A86201206861EC6007B0BDE8D1
:1045E000304000F045B807B030BD000049444C45AC
:1045F00000000000213B00084C0000200248016B35
:10460000491C0163704700004C000020164810B59B
:10461000016B11B10121C16110BD0021C1610169AE
:10462000124A01E0B9B1491E01EB810352F823306F
:10463000002BF7D001EB810302EB830202F10804A7
:1046400053685B685360A34201D15B685360DA68CA
:104650000260016110BD502080F31188BFF34F8FBD
:10466000BFF36F8FFEE700004C000020207C00208D
:104670001CB537480168374A914207D1502080F372
:104680001188BFF34F8FBFF36F8FFEE7006831498A
:10469000491E884207D1502080F31188BFF34F8F05
:1046A000BFF36F8FFEE72C4908780190FF20087058
:1046B00008788DF800009DF800009DF8002000F0BB
:1046C000F000904207D0502080F31188BFF34F8F45
:1046D000BFF36F8FFEE79DF80000204C00F0500004
:1046E00020700720A06005E09DF8002052008DF8A2
:1046F0000020401E9DF800201206F5D4A06003287B
:1047000007D0502080F31188BFF34F8FBFF36F8F16
:10471000FEE74FF44070A060019808700C4820300C
:10472000016841F470010160016841F0704101606D
:10473000FFF7D2FD00206060FBF79EFD084801688E
:1047400041F040410160FBF783FD00201CBD0000EB
:1047500000ED00E071C20F4100E400E0C000002065
:1047600034EF00E010B5502080F31188BFF34F8F75
:10477000BFF36F8F00F056FC18B104494FF0805022
:104780000860002080F3118810BD000004ED00E0F7
:1047900010B50C4648B184420FD9502080F31188DF
:1047A000BFF34F8FBFF36F8FFEE7502080F3118868
:1047B000BFF34F8FBFF36F8FFEE70222002100F09F
:1047C0003CF8002800D0846310BD38B50C4648B1D1
:1047D00084420FD9502080F31188BFF34F8FBFF36D
:1047E0006F8FFEE7502080F31188BFF34F8FBFF328
:1047F0006F8FFEE70221134600220091114600F060
:104800003DF8002800D0846338BD10B50246002171
:10481000012000F012F80446FFF7B2F9204610BD5F
:1048200038B50B46002200901146012000F026F812
:104830000446FFF7A5F9204638BDF8B517460E46E1
:10484000050013D005FB06F05030FFF7F3FB040022
:104850000AD0002084F8460004F150023B4631465D
:1048600028460094FFF798F92046F8BD502080F3C1
:104870001188BFF34F8FBFF36F8FFEE738B5049DEC
:1048800018B153B1CAB181B120E0502080F3118832
:10489000BFF34F8FBFF36F8FFEE7502080F3118877
:1048A000BFF34F8FBFF36F8FFEE7502080F3118867
:1048B000BFF34F8FBFF36F8FFEE739B1502080F306
:1048C0001188BFF34F8FBFF36F8FFEE750241C4654
:1048D000012384F846302B460094FFF75DF920460B
:1048E00038BD000070B50D46040025D0FFF78EFCE2
:1048F000D4E90F20216802FB0011A1600021A1630F
:10490000216861600A46D4E90F01401E00FB0121C5
:10491000E16021464FF0FF3001F8440F487004F188
:1049200010008DB1FFF740FC04F12400FFF73CFCC0
:10493000FFF78CFC012070BD502080F31188BFF37D
:104940004F8FBFF36F8FFEE721690029F0D000F091
:1049500049FC0028ECD004494FF080500860BFF3B8
:104960004F8FBFF36F8FE3E704ED00E02DE9FF47C2
:1049700082B01D468A464FF00008040003D0BAF109
:10498000000F08D011E0502080F31188BFF34F8F43
:10499000BFF36F8FFEE7206C38B1502080F3118891
:1049A000BFF34F8FBFF36F8FFEE7022D0AD1E06B8D
:1049B000012807D0502080F31188BFF34F8FBFF339
:1049C0006F8FFEE700F01AFB3F4F4FF000094FF0EA
:1049D000805648B9049838B1502080F31188BFF34D
:1049E0004F8FBFF36F8FFEE7FFF710FCA06BE16BFB
:1049F000884207D3022D05D00498D0B1B8F1000F3A
:104A00001AD01EE02A4651462046FFF712F8616A86
:104A100019B104F1240000F0E5FB20B13E60BFF3C2
:104A20004F8FBFF36F8FFFF711FC012006B0BDE879
:104A3000F087FFF70BFC22E06846FFF711FD4FF00F
:104A40000108FFF703FCFFF7D9FDFFF7DFFB94F93F
:104A50004400401C01D184F8449094F94500401C66
:104A600001D184F84590FFF7F1FB04A9684600F0F6
:104A700033FA30B12046FFF7A7FA00F0EBFB002035
:104A8000D4E7FFF7C3FBA06BE16B884213D1FFF7BC
:104A9000DDFB04F110000499FFF7F0FC2046FFF75E
:104AA00093FA00F0D7FB00289ED13E60BFF34F8FF2
:104AB000BFF36F8F98E7FFF7C9FB2046FFF784FA33
:104AC00000F0C8FB90E7000004ED00E02DE9F0479E
:104AD0001F4690468946040003D0B9F1000F08D064
:104AE00011E0502080F31188BFF34F8FBFF36F8F19
:104AF000FEE7206C38B1502080F31188BFF34F8F50
:104B0000BFF36F8FFEE7022F0AD1E06B012807D0B9
:104B1000502080F31188BFF34F8FBFF36F8FFEE7F4
:104B2000FFF7ECFB5020EFF3118680F31188BFF301
:104B30004F8FBFF36F8FA06BE16B884206D3022FBC
:104B400004D0002086F31188BDE8F08794F9455021
:104B5000A06B3A4649462046FEF76BFF681C04D01E
:104B60006D1C84F845500120ECE7606A0028FAD0FB
:104B700004F1240000F036FB0028F4D0B8F1000F57
:104B8000F1D00121C8F80010EDE700002DE9F7474A
:104B9000002683B08A46040003D0BAF1000F08D083
:104BA00011E0502080F31188BFF34F8FBFF36F8F58
:104BB000FEE7206C38B1502080F31188BFF34F8F8F
:104BC000BFF36F8FFEE700F019FADFF8F4804FF0C3
:104BD00000094FF0805748B9059838B1502080F34C
:104BE0001188BFF34F8FBFF36F8FFEE7FFF70EFB08
:104BF000A56BC5B151462046FEF708FF6D1EA563A3
:104C0000206950B104F1100000F0ECFA28B1C8F8A6
:104C10000070BFF34F8FBFF36F8FFFF717FB0120BB
:104C200006B0BDE8F087059808B11EB106E0FFF7B1
:104C30000DFB27E06846FFF713FC0126FFF706FB94
:104C4000FFF7DCFCFFF7E2FA94F94400401C01D1C5
:104C500084F8449094F94500401C01D184F84590B3
:104C6000FFF7F4FA05A9684600F036F90028204657
:104C70000AD0FFF7A9F900F0EDFA2046FFF738F85F
:104C80000028B3D00020CBE7FFF732F890B104F151
:104C900024000599FFF7F2FB2046FFF795F900F095
:104CA000D9FA0028A2D1C8F80070BFF34F8FBFF324
:104CB0006F8F9BE72046FFF787F900F0CBFA95E767
:104CC00004ED00E02DE9F04790468946040003D04A
:104CD000B9F1000F08D011E0502080F31188BFF324
:104CE0004F8FBFF36F8FFEE7206C38B1502080F3F9
:104CF0001188BFF34F8FBFF36F8FFEE7FFF7FEFA08
:104D00005020EFF3118680F31188BFF34F8FBFF36C
:104D10006F8FA76BF7B194F9445049462046FEF7D0
:104D200075FE7F1EA763681C04D06D1C84F8445078
:104D3000012010E020690028FAD004F1100000F0F2
:104D400051FA0028F4D0B8F1000FF1D00121C8F8D1
:104D50000010EDE7002086F31188BDE8F087000021
:104D60002DE9F343002683B00400354609D0206CBA
:104D700078B1502080F31188BFF34F8FBFF36F8F4E
:104D8000FEE7502080F31188BFF34F8FBFF36F8F82
:104D9000FEE700F033F9DFF83C814FF000094FF0F7
:104DA000805748B9049838B1502080F31188BFF378
:104DB0004F8FBFF36F8FFEE7FFF728FAA06BC8B1E4
:104DC000401EA063206810B9FFF7A2F9A060206917
:104DD00050B104F1100000F005FA28B1C8F80070D5
:104DE000BFF34F8FBFF36F8FFFF730FA012005B08D
:104DF000BDE8F083049808B166B10FE03DB15020E2
:104E000080F31188BFF34F8FBFF36F8FFEE7FFF77B
:104E10001DFA5DE06846FFF723FB0126FFF716FA4F
:104E2000FFF7ECFBFFF7F2F994F94400401C01D1C5
:104E300084F8449094F94500401C01D184F84590D1
:104E4000FFF704FA04A9684600F046F80028204657
:104E500012D0FFF7B9F800F0FDF92046FEF748FF41
:104E60000028A9D09DB3FFF7D1F9606A50B3206B39
:104E70000068C0F1380126E0FEF73AFFE0B1206893
:104E800038B9FFF7C3F9A06800F070F90546FFF7DD
:104E9000DDF904F124000499FFF7F0FA2046FFF74A
:104EA00093F800F0D7F9002886D1C8F80070BFF356
:104EB0004F8FBFF36F8F7FE72046FFF785F800F035
:104EC000C9F979E70021A068FFF70CFB9FE7FFE72E
:104ED00000208CE704ED00E02DE9F0410C460500D0
:104EE00011D0C4B1FFF792F9174BDA686E682068E9
:104EF000911B471C17D02F681B6A9F4219D09642FE
:104F000017D8012410E0502080F31188BFF34F8F91
:104F1000BFF36F8FFEE7502080F31188BFF34F8FF0
:104F2000BFF36F8FFEE70024FFF790F92046BDE83E
:104F3000F081884205D9401A20602846FFF790FA90
:104F4000F1E700202060DCE74C0000202DE9FF5F46
:104F50008346DDE90E87994616468A469000FFF79C
:104F600069F805001CD05C20FFF764F8040014D039
:104F70000020256384F85900CDE90240CDE900877F
:104F80004B46324651465846FEF718FE2046FEF77D
:104F9000A9FC012004B0BDE8F09F2846FFF76AF99C
:104FA0004FF0FF30F6E7F0B585B0DDE90B640A9D00
:104FB000A6B1DCB15C2700972663022684F859600D
:104FC000002604AFCDE90246CDE90057FEF7F6FD15
:104FD0002046FEF787FC049805B0F0BD502080F312
:104FE0001188BFF34F8FBFF36F8FFEE7502080F320
:104FF0001188BFF34F8FBFF36F8FFEE705484169FC
:1050000019B1006B18B100207047012070470220D1
:10501000704700004C0000200148C0687047000045
:105020004C0000202DE9F0412E4C0027206B28B1C8
:10503000A069401CA0613846BDE8F081E668761C96
:10504000E66013D1606B006838B1502080F311889E
:10505000BFF34F8FBFF36F8FFEE7606BA16B616390
:10506000A063206A401C2062FEF72EFFA06ADFF8D2
:105070007880864209D3606B0068A0B1606BC0681D
:10508000C5686868864211D2A0622068C06A00EBD9
:10509000800158F82100012800D90127E069002883
:1050A000C9D00127C7E74FF0FF30EDE7281DFFF714
:1050B00051F8A86A18B105F11800FFF74BF8E86A33
:1050C0002169884200D9206100EB800108EB810052
:1050D000291DFFF78FF8E86A2168C96A8842CAD398
:1050E0000127C8E74C000020207C002070B5040098
:1050F0004FF0000133D01B4D2868844207D0502068
:1051000080F31188BFF34F8FBFF36F8FFEE7206DE1
:1051100038B1401E2065E36CE26A9A421FD040B16C
:105120001DE0502080F31188BFF34F8FBFF36F8FC6
:10513000FEE7201DFFF70EF8E06CE062C0F13800DA
:10514000A061E06A2969884200D92861064900EB1C
:10515000800001EB8000211DFFF74CF8012108467B
:1051600070BD00004C000020207C002070B50400C1
:105170004FF000002BD0194DE16A2A68D26A9142A3
:1051800026D2A069002804DB2868C06AC0F1380074
:10519000A061134E01EB8101606906EB8101884239
:1051A00011D1201DFEF7D6FF2868C06AE062296988
:1051B000884200D9286100EB800006EB8000211DA9
:1051C000FFF718F802E02868C06AE062012070BDAD
:1051D000E16C2A68D26A9142F8D370BD4C0000207D
:1051E000207C002070B5C068C46854B104F1180078
:1051F0000646FEF7AFFF144D286B50B131461348F9
:1052000015E0502080F31188BFF34F8FBFF36F8FED
:10521000FEE7201DFEF79EFFE06A2969884200D95B
:1052200028610B4900EB800001EB8000211DFEF797
:10523000E1FFE06A2968C96A884202D90120E86171
:1052400070BD002070BD00004C000020A880002030
:10525000207C00202DE9F0472C4D00242746286BA8
:1052600038B1FEF7D3FF286B401E2863286B40B18E
:1052700046E0502080F31188BFF34F8FBFF36F8F4C
:10528000FEE7A968224E0120D1B3A6F591698046B8
:105290003068E0B1F068C46804F11800FEF75AFF06
:1052A000201DFEF757FFE06A2969884200D928616E
:1052B00000EB800109EB8100211DFEF79BFFE06AF6
:1052C0002968C96A8842E3D3C5F81C80E0E70CB1BD
:1052D000FEF7FAFDAC694CB14FEA0806FFF7A2FEF3
:1052E00000B1EE61641EF9D10020A861E86938B10F
:1052F0000849012738070860BFF34F8FBFF36F8F4E
:10530000FEF7A4FF3846BDE8F08700004C000020FF
:10531000A880002004ED00E010B586B0FEF74AFB3F
:10532000114C2068B8B100200390049005AA04A98C
:1053300003A8FEF72DFFDDE9032102208DE8070019
:1053400000230AA10B48059AFFF72DFE606010B1FB
:1053500006B0012010BD502080F31188BFF34F8F9D
:10536000BFF36F8FFEE7000088000020546D7220AD
:1053700053766300A53F00082DE9FF411E46134602
:1053800002000A9D4FF0000016D0144C2768002F31
:105390000FD0CDE900130292062917DAFFF72EFE8F
:1053A00002284FF000030FD0002269462068FFF763
:1053B000DDFA04B0BDE8F081502080F31188BFF31E
:1053C0004F8FBFF36F8FFEE72A46EEE7002332468A
:1053D00069463846FFF77AFBEBE7000088000020BB
:1053E00021F00042A2F16052B2F5801F01F00043AB
:1053F00028BFD2F17F6C0BD95FEA001C43EAC202DE
:1054000042EB507018BF704728BF20F00100704772
:10541000B2F5801FBCBF184670474FEA410C1CF51F
:10542000001F02D2084600F0D1B970B500F075F93E
:1054300000000089FFF7F6BF4FF00040A0F58000A4
:10544000704700002DE9C04130B4DFF8A0C23CEA4B
:10545000111418BF3CEA131400F0EC8081EA030534
:105460001CEA111444EAD57418BF1CEA131500F0A5
:10547000C780A4EB05044FF0004545EAC12145EA89
:10548000C32341EA505143EA525304F17F749942D5
:1054900004F500344FEAC0204FEAC22208BF904210
:1054A00000F09C804FEA13650FF24016765D4FEADC
:1054B000134506FB05F7C7F1807706FB07F74FEAB0
:1054C000D737A7FB03687642C8F58038A7FB06CE1E
:1054D00038BFA8F1010807FB08E64FF0000EA6FB55
:1054E000028CE6FB03CEDCF1000CCEF1004E38BF9F
:1054F000AEF1010EA6FB0C584FF000074FF000056F
:10550000E6FB0E87A1FB08C6A0FB07CE16EB0E0636
:1055100045F10005E1FB076515F1E04E7EBFA4F5FE
:1055200080345FEA46066D4116F1800745F10005BB
:105530004FEA17274FEA066647EA0567A6F1DE46F7
:10554000B6F1805F4FEA15251FD9384624F0010CCB
:1055500005EBC471BCF1FE6F01EB0C1102D8F0BC7D
:10556000BDE8008124425CBF01F5801E9EEAC47F35
:1055700002D4F0BCBDE80081244238D4F0BCA1F1D3
:10558000C041BDE8004100F016B94FEAD22242EA1C
:1055900043524FEAD323A7FB02864FEAD02040EACA
:1055A000415007FB03661EEA0E0F4FEAD12105FBAF
:1055B000026658BFA6EB0056B6EB00564FEA520EF5
:1055C0004EEAC37E18EB0E0E56EB530EBDD518EB0C
:1055D00002085E417F1C55F10005B6E74FF48015C7
:1055E0004FF000074FF000064FF00008ADE7F0BCA9
:1055F0004FF0000001F1C04101F00041BDE8008121
:1056000011EA0C1F0CEA131500D00CE013EA0C1F72
:1056100000F025804FF00000F0BC81EA030101F0AA
:105620000041BDE80081F0BCBDE8004181EA030112
:1056300000F0C1B8F0BCBDE8004170B500F06DF8F5
:10564000097EFC3E00F007B881EA03014FF000003C
:1056500001F00041704781EA030100F0ACB8F0BCF2
:10566000BDE800414FF0000021497047FFFDFBF904
:10567000F7F5F4F2F0EEEDEBE9E8E6E4E3E1E0DE85
:10568000DDDBDAD8D7D5D4D3D1D0CFCDCCCBCAC8F7
:10569000C7C6C5C4C2C1C0BFBEBDBCBBBAB9B8B71E
:1056A000B6B5B4B3B2B1B0AFAEADACABAAA9A8A811
:1056B000A7A6A5A4A3A3A2A1A09F9F9E9D9C9C9BDF
:1056C0009A9999989797969595949393929191908A
:1056D0008F8F8E8E8D8C8C8B8B8A8989888887871B
:1056E0008685858484838382828181800000FF0790
:1056F0000000F87FB0FA80F310FA03F10AD0C3F18A
:105700001D0303F580634FEA41504FEA035202EB59
:10571000D12170474FF0000070470EF1020E2EF0BD
:10572000030E5EF8046B364205D4012A43EB0305F1
:1057300015F5001F12D8012841EB010C1CF5001FC4
:105740000CD80ED14FEAD17C15F5001F0CEB4C0C98
:105750000CF1020C08BF4CEBD37C04E04FF0080CBA
:1057600001E04FEAD37C0CEB4C0526FA05F606F077
:105770000706B6F1040C06D20EEB860CBDE87040AD
:105780004CF0010C6047DFE80CF0090B02024FF00F
:1057900000414FF00000A1F5002170BD19461046F0
:1057A000012851EB010418BFD4F5001484BF002078
:1057B00001F0004170BD0808A0F500114FEA310169
:1057C00070474FF04070E1EE100A7047FF2141EA48
:1057D000D050C0057047000070616765322E6E3092
:1057E0002E76616C3D00000000000000000000000B
:1057F00000000000000000000000000000000000A9
:105800000000000000000000000000000000000098
:10581000000000000000000070616765322E6E31EC
:105820002E76616C3D0000000000000000000000CA
:105830000000000000000000000000000000000068
:105840000000000000000000000000000000000058
:10585000000000000000000070616765322E6E32AB
:105860002E76616C3D00000000000000000000008A
:105870000000000000000000000000000000000028
:105880000000000000000000000000000000000018
:10589000000000000000000070616765322E6E336A
:1058A0002E76616C3D00000000000000000000004A
:1058B00000000000000000000000000000000000E8
:1058C00000000000000000000000000000000000D8
:1058D000000000000000000070616765322E6E3429
:1058E0002E76616C3D00000000000000000000000A
:1058F00000000000000000000000000000000000A8
:105900000000000000000000000000000000000097
:10591000000000000000000070616765322E6E35E7
:105920002E76616C3D0000000000000000000000C9
:105930000000000000000000000000000000000067
:105940000000000000000000000000000000000057
:10595000000000000000000070616765322E6E36A6
:105960002E76616C3D000000000000000000000089
:105970000000000000000000000000000000000027
:105980000000000000000000000000000000000017
:10599000000000000000000070616765322E6E3765
:1059A0002E76616C3D000000000000000000000049
:1059B00000000000000000000000000000000000E7
:1059C00000000000000000000000000000000000D7
:1059D000000000000000000070616765322E6E3428
:1059E0002E76616C3D000000000000000000000009
:1059F00000000000000000000000000000000000A7
:105A00000000000000000000000000000000000096
:105A1000000000000000000070616765322E6E35E6
:105A20002E76616C3D0000000000000000000000C8
:105A30000000000000000000000000000000000066
:105A40000000000000000000000000000000000056
:105A5000000000000000000070616765322E6E36A5
:105A60002E76616C3D000000000000000000000088
:105A70000000000000000000000000000000000026
:105A80000000000000000000000000000000000016
:105A9000000000000000000070616765322E6E3764
:105AA0002E76616C3D000000000000000000000048
:105AB00000000000000000000000000000000000E6
:105AC00000000000000000000000000000000000D6
:105AD0000000000000000000985C000800000000CA
