:020000040800F2
:100000000081002031020008A12E0008FD28000810
:10001000ED2C0008870600082539000800000000C4
:10002000000000000000000000000000212F000878
:10003000A707000800000000A52E0008232F0008D5
:100040004B0200084B0200084B0200084B0200085C
:100050004B0200084B0200084B0200084B0200084C
:100060004B0200084B0200084B0200084B0200083C
:100070008D0600084B0200084B0200084B020008E6
:100080004B0200084B0200084B0200084B0200081C
:100090004B0200084B0200084B0200084B0200080C
:1000A0004B020008F12F00084B0200084B02000829
:1000B0004B0200084B020008013000084B02000808
:1000C0004B0200084B0200084B0200084B020008DC
:1000D0004B020008153900084B0200084B020008CB
:1000E0004B0200084B0200084B0200084B020008BC
:1000F0004B0200084B0200084B0200084B020008AC
:100100004B0200084B0200084B0200084B0200089B
:100110004B0200084B0200084B0200084B0200088B
:100120004B0200084B0200084B0200084B0200087B
:100130004B0200084B0200084B0200084B0200086B
:100140004B0200084B0200084B0200084B0200085B
:100150004B0200084B0200084B0200084B0200084B
:100160004B0200084B0200084B0200084B0200083B
:100170004B0200084B0200084B0200080000000080
:100180004B0200084B02000800F002F800F041F8B2
:100190000AA090E8000C82448344AAF10107DA45E2
:1001A00001D100F036F8AFF2090EBAE80F0013F0F3
:1001B000010F18BFFB1A43F0010318476C41000000
:1001C0008C410000103A24BF78C878C1FAD8520791
:1001D00024BF30C830C144BF04680C6070470000C1
:1001E0000023002400250026103A28BF78C1FBD840
:1001F000520728BF30C148BF0B607047642900F028
:10020000F980002070471FB503F0F3FE1FBD10B545
:1002100010BD00F0FEF91146FFF7F5FF03F0A0FB5B
:1002200000F01CFA03B4FFF7F2FF03BC00F024FA5D
:100230000948804709480047FEE7FEE7FEE7FEE77A
:10024000FEE7FEE7FEE7FEE7FEE7FEE704480549B6
:10025000054A064B70470000DD2F000889010008A1
:10026000007B002000810020007D0020007D002018
:1002700053EA020C00F069802DE9F04B4FF00006C4
:10028000002B1FBFB3FA83F503FA05F424FA05F631
:100290005E4012BF1643B2FA82F502FA05F4C5F1C8
:1002A00020051EBF22FA05FC44EA0C04203556EA5C
:1002B000044C4FEA144418BF641C4FF000084FF080
:1002C0000009904271EB030C39D3002919BFB1FA30
:1002D00081F701FA07F6B0FA80F700FA07F6C7F1DE
:1002E00020071EBF20FA07FC46EA0C062037B6FBA3
:1002F000F4FCA7EB0507103F07F01F0BCBF120061E
:100300000CFA0BFB2CFA06F644BFB3460026202F4E
:10031000A4BF5E464FF0000B5BEA060C08BF4FF02F
:10032000010B19EB0B09ABFB027C48EB0608C01B69
:1003300006FB02CC0BFB03CC71EB0C01C1E70B46B7
:10034000024641464846BDE8F08B13B54FF0000029
:100350004FF00001AFF30080BDE81C407047000083
:100360000FB41CB5084B06AA7B446946009005985B
:1003700000F037F904460020694600F045F92046B0
:100380001CBC5DF814FB00009D0200002DE9F0414B
:100390000E460446002020622046E168884730B3BC
:1003A000252805D0D4E901219047206A401CF2E7B6
:1003B000E168204600278847050018D0A5F14100D4
:1003C000192802D820354FF40067324629462046C6
:1003D0002760FFF713FF40B1012804D0F61D26F077
:1003E00007060836D8E7361DD6E72846DAE7206A3A
:1003F000BDE8F0812DE9F04106460024106875291A
:10040000314616A510D0AFF30080002802DA404232
:1004100013A507E031688A0701D512A502E0490754
:1004200004D511A5012401E0AFF3008000210A22C8
:1004300006F1240709E0B0FBF2FCB0FBF2F302FB8B
:100440001C00303078541846491C0028F3D123464C
:100450002A463046BDE8F04100F064B800000000D4
:100460002D0000002B0000002000000010B5203AF5
:10047000C0F00B80B1E81850203AA0E81850B1E85D
:100480001850A0E81850BFF4F5AF5FEA027C24BF13
:10049000B1E81850A0E8185044BF18C918C0BDE80A
:1004A00010405FEA827C24BF51F8043B40F8043BD3
:1004B00008BF7047D20728BF31F8023B48BF11F888
:1004C000012B28BF20F8023B48BF00F8012B7047E2
:1004D0004FF0000200B5134694469646203922BFDD
:1004E000A0E80C50A0E80C50B1F12001BFF4F7AF28
:1004F000090728BFA0E80C5048BF0CC05DF804EB0A
:10050000890028BF40F8042B08BF704748BF20F877
:10051000022B11F0804F18BF00F8012B7047704775
:10052000704770472DE9F0470D46994692460446BC
:1005300000F124080168880604D5E06921F0100163
:10054000216000E00120A84201DD471B00E00027F8
:10055000A1697A1902EB0900081AA0612078C00687
:1005600002D42046AFF30080002608E0D4E9012140
:100570001AF806009047206A401C761C20624E45FF
:10058000F4DB2078C0060AD52046AFF3008006E0F1
:10059000D4E9012130209047206A401C2062381E97
:1005A000A7F10107F4DC07E0D4E9012118F8050000
:1005B0009047206A401C2062281EA5F10105F3DC4B
:1005C0002046AFF300802078000602D50220BDE867
:1005D000F0870120FBE7000001694A1C02610878EE
:1005E000704700B58FB0CDE9013100210591054973
:1005F0007944CDE9031011466846FFF7C7FE0FB0F6
:1006000000BD0000E5FFFFFF0A6802F8010B0A6069
:100610007047754600F02CF8AE4605006946534613
:1006200020F00700854618B020B5FFF70FFEBDE8A3
:1006300020404FF000064FF000074FF000084FF049
:10064000000B21F00701AC46ACE8C009ACE8C009DA
:10065000ACE8C009ACE8C0098D46704710B5044647
:10066000AFF300802046BDE81040FFF7DBBD00007F
:10067000004870479C7A002001491820ABBEFEE775
:1006800026000200704700BFFEE7000010B50248D8
:1006900000F0F8F810BD00007C79002001460878D1
:1006A00010381823B0FBF3F20848805CC865032AB1
:1006B00005D908686FF30900001D886503E0086824
:1006C0006FF309008865886D7047000008430008D3
:1006D000014600208A6A8B69CBB932B1012A0DD05C
:1006E000022A03D0032A10D10EE000BFCB6A03F028
:1006F0008073B3F1807F00D1012007E0CB6AB3F1B2
:10070000C07F00D1012001E000E000BF34E08B6930
:10071000B3F5005F1AD132B1012A07D0022A03D003
:10072000032A11D10AE000BF01200EE0CB6A03F0DA
:100730008073B3F1807F00D1012006E0CB6AB3F172
:10074000C07F00D1012000E000BF15E032B1012AD6
:1007500005D0022A04D0032A0CD103E000BF00BF59
:10076000012008E0CB6A03F08073B3F1807F00D1F1
:10077000012000E000BF00BF704730B50468246866
:1007800024F4802405682C60046863608468402C2D
:1007900004D10468A2600468E16003E00468A16019
:1007A0000468E26030BD704772B600BFFEE770B506
:1007B0000446A56D00F030FB064694F8350002288B
:1007C00008D08020606500BF002084F8340000BF9E
:1007D000012070BD2068006820F0160021680860C4
:1007E0002068406920F0800021684861206C08B9C9
:1007F000A06C28B12068006820F00800216808601B
:100800002068006820F001002168086010E000F016
:1008100003FB801B05280BD920206065032084F88A
:10082000350000BF002084F8340000BF0320D0E76B
:100830002068006800F001000028E8D194F85C10FE
:100840003F208840A860012084F8350000BF0020C8
:1008500084F8340000BF00BFBBE7014691F83500C3
:10086000022803D08020486501207047052081F8C8
:1008700035000868006820F001000A681060002058
:10088000F3E70000F8B50446002000908C480068AB
:100890004FF41651B0FBF1F7A56D2E6894F85C107B
:1008A00008208840304098B12068006800F00400BB
:1008B00070B12068006820F004002168086094F896
:1008C0005C1008208840A860606D40F00100606501
:1008D00094F85C1001208840304068B1206840697D
:1008E00000F0800040B194F85C1001208840A860BE
:1008F000606D40F00200606594F85C100420884050
:10090000304068B12068006800F0020040B194F8FF
:100910005C1004208840A860606D40F004006065B1
:1009200094F85C1010208840304078B3206800684C
:1009300000F0080050B394F85C1010208840A860C4
:100940002068006800F4802080B12068006800F40E
:10095000002028B9206CC8B12046216C884715E0DA
:10096000A06C98B12046A16C88470FE02068006811
:1009700000F4807028B92068006820F00800216821
:100980000860206C10B12046216C884794F85C10F8
:10099000202088403040002865D02068006800F0A2
:1009A000100000285FD094F85C1020208840A860D8
:1009B00094F83500052828D12068006820F016003A
:1009C000216808602068406920F080002168486143
:1009D000206C08B9A06C28B12068006820F00800DD
:1009E0002168086094F85C103F208840A8600120CE
:1009F00084F8350000BF002084F8340000BF206D6B
:100A000010B12046216D8847F8BD2068006800F4C9
:100A1000802080B12068006800F4002028B9606C54
:100A200010B12046616C88471DE0E06BD8B12046CC
:100A3000E16B884717E02068006800F4807068B9AF
:100A40002068006820F0100021680860012084F808
:100A5000350000BF002084F8340000BFE06B10B107
:100A60002046E16B8847606D38B3606D00F001008F
:100A7000F0B1052084F835002068006820F00100FE
:100A80002168086000BF0098401C0090B84200D95F
:100A900005E02068006800F001000028F3D100BFE5
:100AA000012084F8350000BF002084F8340000BF26
:100AB000E06C10B12046E16C884700BFA4E700005D
:100AC000240000202DE9F0410446002500F0A4F99F
:100AD000074614B90120BDE8F081606A00B100BF8B
:100AE000022084F8350000BF002084F8340000BFE5
:100AF0002068006820F00100216808600AE000F02A
:100B00008BF9C01B052805D920206065032084F8D7
:100B10003500E0E72068006800F001000028EED111
:100B20002068056821480540D4E901010843E168CF
:100B300008432169084361690843A1690843E169E1
:100B40000843216A08430543606A042803D1D4E9B5
:100B50000B0108430543206805602068456925F0BE
:100B60000705606A0543606A04280DD1A06A054341
:100B7000E06A48B12046FFF7ABFD28B14020606530
:100B8000012084F83500A6E7206845612046FFF77C
:100B900085FD064694F85C103F208840B060002038
:100BA0006065012084F83500002094E73F8010F054
:100BB0002DE9F04104460D4616461F464FF0000849
:100BC00000BF94F83400012802D10220BDE8F08172
:100BD000012084F8340000BF94F83500012811D1B9
:100BE000022084F83500002060653B4632462946E5
:100BF0002046FFF7C2FD2068006840F00100216830
:100C0000086006E000BF002084F8340000BF4FF009
:100C100002084046DAE70000F8B502460B46002518
:100C2000002400200021D6E0012606FA01F51E6806
:100C300006EA0504AC4274D11E7906F00306012EC3
:100C400004D01E7906F00306022E13D190684F00DF
:100C50000326BE40B0434F00DE68BE403043906084
:100C6000506801268E40B0431E79C6F300168E40B0
:100C7000304350601E7906F00306032E09D0D06879
:100C80004F000326BE40B0434F009E68BE40304335
:100C9000D0601E7906F00306022E13D1CF0802F1B0
:100CA000200656F827004E07F70E0F26BE40B04329
:100CB0004F07FF0E1E69BE403043CF0802F12006E9
:100CC00046F8270010684F000326BE40B0431E7947
:100CD00006F003064F00BE40304310605E6806F425
:100CE0004036002E76D000BF002600963C4E366877
:100CF00046F480463A4F3E603E46366806F48046EB
:100D0000009600BF00BF374E8F0856F827008E07A9
:100D1000370F0F26BE40B043334EB24202D10026F9
:100D200024E057E0314EB24201D101261EE0304EA0
:100D3000B24201D1022619E02E4EB24201D1032661
:100D400014E02D4EB24201D104260FE02B4EB242E8
:100D500001D105260AE02A4EB24201D1062605E05D
:100D6000284EB24201D1072600E008268F073F0F28
:100D7000BE4030431B4E8F0846F82700224E306895
:100D8000A0435E6806F4801606B120431E4E306014
:100D9000361D3068A0435E6806F4001606B1204395
:100DA000194E361D3060184E361F3068A0435E68FD
:100DB00006F4003606B12043134E361F3060361F4E
:100DC0003068A0435E6806F4803606B120430E4EBC
:100DD000083E3060491C1029FFF426AFF8BD000022
:100DE000443802400838014000000240000402403C
:100DF00000080240000C02400010024000140240B3
:100E000000180240001C0240083C01400AB1816108
:100E100001E00B04836170470148006870470000DF
:100E20001800002010B50D48006840F400700B4910
:100E300008600846006840F4806008600846006862
:100E400040F480700860032000F0D0F80F2000F01C
:100E500007F800F055F8002010BD0000003C0240EB
:100E6000F0B587B004460026002700BF00200090A0
:100E70001E48006840F001001C49086008460068F0
:100E800000F00100009000BF00BF01A902A800F01F
:100E900083F900F0B9F946001548B6FBF0F0471E9B
:100EA00014481549086040F2E7311348C1604760B3
:100EB000002101618160816100F02EFD054695B938
:100EC0000D4800F0FDFD05466DB9192000F03CF815
:100ED000102C07D200222146192000F049F80748BB
:100EE000046000E00125284607B0F0BD4438024008
:100EF00040420F0000000140547A00201C000020F6
:100F000008B500BF002000900E48006840F4804003
:100F10000C4908600846006800F48040009000BF5B
:100F200000BF00BF00200090081F006840F0805004
:100F3000091F08600846006800F08050009000BF5C
:100F400000BF08BD443802400146084600280DDBBA
:100F500000BF00BF00F01F0301229A4043099B001D
:100F600003F1E023C3F8002100BF00BF00BF7047BA
:100F70002DE9F05F80460D461646002702F0D4FCAE
:100F8000074639462A46334601F00700C0F1070AF2
:100F9000BAF1040F02D94FF0040A01E0C0F1070AC8
:100FA000D14600F1040ABAF1070F02D24FF0000A4D
:100FB00001E0A0F1030AD4464FF0010A0AFA09FA47
:100FC000AAF1010A0AEA020A0AFA0CFA4FF0010B26
:100FD0000BFA0CFBABF1010B0BEA030B4AEA0B0417
:100FE0002146404602F0A8FCBDE8F09F00BF00F09B
:100FF0000702064B19684FF6FF031940044B0B43D9
:1010000043EA0221014B196000BF70470CED00E07C
:101010000000FA0570B504460D460CB9012070BDFC
:101020005848006800F00700A84209D255490D70E1
:101030000846006800F00700A84201D00120EEE752
:10104000207800F0020002281DD1207800F0040072
:10105000042805D14C48006840F4E0504A49086033
:10106000207800F00800082805D14748006840F4BF
:101070006040454908604448006820F0F000A168DD
:10108000084341490860207800F00100A8B3606877
:10109000012807D13C4808380068C0F34040B8B97F
:1010A0000120BCE76068022802D06068032807D1ED
:1010B000354808380068C0F3406048B90120AEE701
:1010C000314808380068C0F3400008B90120A6E79D
:1010D0002D48006820F00300616808432A49086031
:1010E000FFF79AFE064609E0FFF796FE801B41F2E5
:1010F0008831884202D9032091E707E0224800683E
:1011000000F00C006168B0EB810FEDD11D48006864
:1011100000F00700A84209D91A490D700846006876
:1011200000F00700A84201D0012078E7207800F005
:101130000400042807D11448006820F4E050E16856
:10114000084311490860207800F00800082808D1F9
:101150000D48006820F46040216940EAC1000A4956
:10116000086000F061F808490968C1F30311074AF3
:10117000515CC8400649086006480068FFF770FEE9
:1011800000204CE7003C02400838024010430008B1
:10119000240000201C0000200F2202600D4A12686B
:1011A00002F0030242600B4A126802F0F002826011
:1011B000084A126802F4E052C260064A126802F459
:1011C0006042D2080261044A126802F007020A6013
:1011D0007047000008380240003C024001480068A7
:1011E000704700002400002000B5FFF7F7FF044916
:1011F0000968C1F38221034A515CC84000BD000068
:10120000083802402043000800B5FFF7E7FF044913
:101210000968C1F34231034A515CC84000BD000077
:1012200008380240204300082DE9F047002400253B
:101230000026A1462548006800F00C0020B10428D3
:1012400005D008283AD105E0DFF8849039E0DFF8CE
:10125000849036E01D48001F006800F03F041B48E2
:10126000001F006800F4800078B11A481749091F70
:101270000968C1F38811A0FB0170014622460023D2
:101280003846FEF7F5FF05460EE011480F49091FE5
:101290000968C1F38811A0FB0170014622460023B2
:1012A0003846FEF7E5FF05460848001F0068C0F312
:1012B0000140401C4600B5FBF6F902E0DFF8109053
:1012C00000BF00BF4846BDE8F08700000838024074
:1012D0000024F40040787D01F8B504460CB90120E3
:1012E000F8BD207800F00100002874D0F9480068AB
:1012F00000F00C0004280DD0F648006800F00C0047
:10130000082813D1F348001F006800F48000B0F5EE
:10131000800F0BD1EF4808380068C0F34040002828
:1013200059D06068002856D10120D9E700BF606815
:10133000B0F5803F08D1E7480838006840F48030B5
:10134000E449083908601EE06068B0F5A02F0DD1AF
:10135000E0480838006840F48020DE490839086019
:101360000846006840F4803008600CE0D94808382E
:10137000006820F48030D7490839086008460068C2
:1013800020F48020086000BF606890B1FFF744FD42
:10139000054606E0FFF740FD401B642801D9032005
:1013A0009EE7CC4808380068C0F340400028F1D0E0
:1013B00011E0FFF731FD054606E0FFF72DFD401B6C
:1013C000642801D903208BE7C24808380068C0F3BD
:1013D00040400028F1D1207800F0020002285FD1BF
:1013E000BC48006800F00C0058B1BA48006800F032
:1013F0000C0008281CD1B748001F006800F48000CA
:10140000B0B9B44808380068C0F3400020B1E068C3
:10141000012801D0012063E7AE480838006820F0B9
:10142000F800216940EAC100AA490839086037E09C
:10143000E06800B30120A8490860FFF7EDFC05460D
:1014400006E0FFF7E9FC401B022801D9032047E72B
:10145000A04808380068C0F340000028F1D09D483B
:101460000838006820F0F800216940EAC100994975
:101470000839086014E0002097490860FFF7CCFCA9
:10148000054606E0FFF7C8FC401B022801D90320EF
:1014900026E7904808380068C0F340000028F1D1E2
:1014A000207800F0080008282CD16069A8B101203C
:1014B0008A490860FFF7B0FC054606E0FFF7ACFC80
:1014C000401B022801D903200AE782486C300068DB
:1014D000C0F340000028F1D014E000207F490860EC
:1014E000FFF79AFC054606E0FFF796FC401B022832
:1014F00001D90320F4E677486C300068C0F340005F
:101500000028F1D1207800F00400042870D10027D1
:1015100070483830006800F0805090B900BF00205B
:1015200000906C483830006840F08050694938318C
:1015300008600846006800F08050009000BF00BFBF
:1015400001276748006800F48070B0B964480068FB
:1015500040F4807062490860FFF75EFC054606E0D3
:10156000FFF75AFC401B022801D90320B8E65C486B
:10157000006800F480700028F2D000BFA068012845
:1015800008D154486830006840F001005149683182
:1015900008601DE0A06805280DD14E48683000683D
:1015A00040F004004B49683108600846006840F08C
:1015B000010008600CE047486830006820F0010036
:1015C0004449683108600846006820F0040008605B
:1015D00000BFA068A8B1FFF71FFC054609E0FFF7B0
:1015E0001BFC401B41F28831884202D9032077E678
:1015F00026E0384868300068C0F340000028EED08C
:1016000013E0FFF709FC054608E0FFF705FC401B67
:1016100041F28831884201D9032061E62D486830C3
:101620000068C0F340000028EFD1012F07D12948FE
:101630003830006820F0805026493831086000BFFB
:10164000A069002845D02348006800F00C00082855
:101650005DD0A069022845D100201F490866FFF728
:10166000DBFB054606E0FFF7D7FB401B022801D94C
:10167000032035E6174808380068C0F340600028AA
:10168000F1D1D4E907010843616A40EA81110122DE
:10169000A06AC2EB500041EA00412C20005D41EA03
:1016A00000600C49091F086001200B490866FFF71C
:1016B000B3FB054606E0FFF7AFFB401B022801D94C
:1016C00003200DE6034808380068C0F34060002896
:1016D000F1D049E00838024000004742800E4742FE
:1016E00000700040002021490866FFF795FB054681
:1016F00006E0FFF791FB401B022801D90320EFE52C
:101700001B480068C0F340600028F2D12CE0A069BB
:10171000012800D1E4E51648001D0668A0690128EB
:1017200020D006F48001E06981421BD106F03F0120
:10173000206A814216D147F6C0703040616AB0EB32
:10174000811F0FD106F440310122A06AC2EB500084
:10175000B1EB004F06D106F070612C20005DB1EBBB
:10176000006F01D00120BBE50020B9E50000474231
:10177000003802407047704730B587B004460D46C8
:1017800014B9012007B030BD94F83D0028B90020FD
:1017900084F83C00204600F064F8022084F83D0004
:1017A000211D206801F034FCAB6829680322206801
:1017B00001F0B4FD2068806920F00C002168886188
:1017C00020688069696808432168886120684068EA
:1017D00040F08000216848602068806820F0700038
:1017E000216888602068806840F040002168886037
:1017F0002068806820F00700216888602068806881
:1018000040F004002168886000200490059070205A
:1018100000900020069003900290E86801906946CD
:10182000206801F0C3FC2068406820F07000216847
:1018300048602068406840F05000216848600120FE
:1018400084F8460084F83E0001213F200155012024
:1018500084F8420043200155012084F83D00002017
:1018600090E7704730B502460B4600BF92F83C0047
:10187000012801D1022030BD012082F83C0000BFC8
:10188000022082F83D00106844681068816824F0E6
:1018900070041868044310684460184D1068A8422A
:1018A0001BD01068B0F1804F17D0154D1068A842BA
:1018B00013D0144D1068A8420FD0134D1068A842E1
:1018C0000BD0124D1068A84207D0114D1068A842E5
:1018D00003D0104D1068A84205D121F0800158684E
:1018E000014310688160012082F83D0000BF0020A4
:1018F00082F83C0000BF00BFBDE7000000000140CF
:101900000004004000080040000C004000040140BA
:10191000004001400018004010B504460CB90120F9
:1019200010BD94F83D0028B9002084F83C00204602
:1019300000F026F8022084F83D00211D206801F007
:1019400067FB012084F8460000BF84F83E000121B7
:101950003F200155402001554120015500BF00BFE7
:10196000012084F8420043200155442001554520C0
:10197000015500BF012084F83D000020D0E70000A1
:1019800010B586B00446142101A8FEF7A1FD206819
:10199000B0F1804F55D100BF002000904248006850
:1019A00040F00100404908600846006800F001006E
:1019B000009000BF00BF00BF002000903A481038E0
:1019C000006840F001003849103908600846006896
:1019D00000F00100009000BF00BF0720019002202E
:1019E00002900020039004900120059001A92F4847
:1019F000FFF712F92E482F4908604FF0C060486089
:101A000000212C488160C1604FF480610161890030
:101A10004161890081618911C1614FF440310162E6
:101A200000214162FFF74EF808B1FEF7BDFE00BF8E
:101A300020482062846300BF00BF0146E1628463E6
:101A400030E01D492068884218D100BF0020009076
:101A50001548006840F00400134908600846006813
:101A600000F00400009000BF00BF002211461E20BD
:101A7000FFF77EFA1E20FFF767FA13E00F49206890
:101A800088420FD100BF002000900748006840F056
:101A90000800054908600846006800F0080000904A
:101AA00000BF00BF06B010BD403802400000024039
:101AB000286002407C79002000080040000C0040B3
:101AC000014691F83D00012801D001207047022015
:101AD00081F83D000868C06840F001000B68D860DC
:101AE0001A4B086898421BD00868B0F1804F17D095
:101AF000174B0868984213D0164B086898420FD0CD
:101B0000154B086898420BD0144B0868984207D0D0
:101B1000134B0868984203D0124B086898420CD1C6
:101B20000868806800F00702062A0CD00868006880
:101B300040F001000B68186005E00868006840F09C
:101B400001000B6818600020C0E7000000000140A1
:101B50000004004000080040000C00400004014068
:101B600000400140001800402DE9F04104460D46B8
:101B7000002700BF94F83C00012802D10220BDE8F4
:101B8000F081012084F83C0000BF022084F83D0071
:101B90002068866826F0770626F47F4620688660EF
:101BA0002868502833D00CDC202850D004DC0028D2
:101BB0004BD0102851D149E0302849D040284CD191
:101BC00039E060282DD0702807D0B0F5805F03D0B1
:101BD000B0F5005F41D10DE041E0D5E902136A683C
:101BE000206801F096FA2068866846F0770620683B
:101BF000866034E0D5E902136A68206801F089FA4A
:101C00002068806840F480402168886027E0EA68A6
:101C10006968206801F06EFB5021206801F084FAA9
:101C20001DE0EA686968206801F0C0FB6021206857
:101C300001F07AFA13E0EA686968206801F05AFB5B
:101C40004021206801F070FA09E000BF00BF00BF2A
:101C50002968206801F068FA01E0012700BF00BF91
:101C6000012084F83D0000BF002084F83C0000BF44
:101C7000384684E72DE9F04304460D4694F83E606B
:101C80003F20075D94F84280432010F804906DB91E
:101C9000012E02D1B8F1010F02D00120BDE8F0837E
:101CA000022084F83E0084F8420025E0042D0CD187
:101CB000012F02D1B9F1010F01D00120EEE702217D
:101CC0003F2001554320015516E0012E07D1012F79
:101CD00005D1B8F1010F02D1B9F1010F01D00120F6
:101CE000DCE7022084F83E0002213F20015502205B
:101CF00084F842004320015515B1042D0CD105E0B4
:101D000001220021206801F0F3F910E001220421F2
:101D1000206801F0EDF90AE001220021206801F0BD
:101D2000E7F901220421206801F0E2F900BF00BFB9
:101D30002068006840F00100216808600020ADE7DD
:101D4000704770B504462068C5682068066906F0CB
:101D50000200022819D105F00200022815D1401F07
:101D600021680861012020772068806900F0030065
:101D700018B12046FFF7E4FF05E0204600F0C8F860
:101D8000204600F07CF90020207706F004000428AB
:101D900019D105F00400042815D1C0432168086159
:101DA000022020772068806900F4407018B1204636
:101DB000FFF7C6FF05E0204600F0AAF8204600F035
:101DC0005EF90020207706F00800082819D105F0F8
:101DD0000800082815D1C043216808610420207735
:101DE0002068C06900F0030018B12046FFF7A8FF83
:101DF00005E0204600F08CF8204600F040F9002075
:101E0000207706F01000102819D105F010001028D6
:101E100015D1C04321680861082020772068C06977
:101E200000F4407018B12046FFF78AFF05E0204615
:101E300000F06EF8204600F022F90020207706F02E
:101E4000010048B105F0010030B16FF001002168D8
:101E50000861204600F09AF906F08000802809D138
:101E600005F08000802805D1C04321680861204624
:101E7000FFF780FC06F04000402809D105F0400043
:101E8000402805D1C04321680861204600F046FA89
:101E900006F02000202809D105F02000202805D1D7
:101EA000C043216808612046FFF765FC70BD000053
:101EB00010B586B00446142101A8FEF709FB1149AC
:101EC000206888421CD100BF002000900E480068A6
:101ED00040F001000C4908600846006800F001006D
:101EE000009000BF00BF0820019002200290002057
:101EF000039004900220059001A90448FEF78CFE8F
:101F000006B010BD000C0040303802400000024016
:101F100070472DE9F04104460D461646002700BFE4
:101F200094F83C00012802D10220BDE8F081012094
:101F300084F83C0000BF36B1042E1BD0082E31D0EF
:101F40000C2E5ED145E02946206801F0F7F82068A4
:101F5000806940F00800216888612068806920F06D
:101F60000400216888612068806929690843216824
:101F7000886148E02946206801F018F920688069E6
:101F800040F40060216888612068806920F48060E6
:101F90002168886120688069296940EA01202168F8
:101FA000886130E02946206801F03EF92068C06968
:101FB00040F008002168C8612068C06920F0040072
:101FC0002168C8612068C069296908432168C8611F
:101FD00019E02946206801F063F92068C06940F4DF
:101FE00000602168C8612068C06920F480602168B1
:101FF000C8612068C069296940EA01202168C86178
:1020000001E0012700BF00BF00BF002084F83C00B2
:1020100000BF384689E710B504460CB9012010BD51
:1020200094F83D0028B9002084F83C00204600F0D8
:1020300025F8022084F83D00211D206800F0E8FF0B
:10204000012084F8460000BF84F83E0001213F20B3
:102050000155402001554120015500BF00BF01201E
:1020600084F8420043200155442001554520015584
:1020700000BF012084F83D000020D0E77047704782
:1020800070B504460D4615B994F83E000BE0042DDA
:1020900002D13F20005D06E0082D02D14020005D06
:1020A00001E04120005D012801D0012070BD1DB973
:1020B000022084F83E000EE0042D03D102213F20CF
:1020C000015508E0082D03D102214020015502E00E
:1020D00002214120015501222946206801F008F81B
:1020E00023492068884203D022492068884201D1D0
:1020F000012000E0002028B12068406C40F400403E
:10210000216848641A49206888421BD02068B0F1D1
:10211000804F17D018492068884213D0174920688B
:1021200088420FD01649206888420BD01149206898
:10213000884207D013492068884203D0124920689A
:1021400088420CD12068806800F00706062E0CD06B
:102150002068006840F001002168086005E0206800
:10216000006840F001002168086000209EE7000040
:10217000000001400004014000040040000800404D
:10218000000C004000400140001800402DE9F047DD
:102190002DED0A8B0546514885427DD15048006897
:1021A000D0F824A04F480068406841F288310F1AE7
:1021B0009FED4D0AF0EE408A69E04C484C49098891
:1021C00050F821604B480088301A80B208EE100A9F
:1021D00048490E80B8EE480AB0EE409ADFED460A54
:1021E00089EE200AB7EE001AC1EE000A9FED430AFD
:1021F00020EE800AF1EE080A80EE201A11EE109A05
:10220000484601F085FE41EC1B0B9FED3D0B53EC66
:10221000102B01F0BDFC41EC1A0B01F087FC09EE1C
:10222000900A2F4800680068C0F300183048008802
:10223000401C41F2883190FBF1F201FB12002C4965
:102240000880314880F80080BCEEE90A80ED010A80
:10225000504601F0F5FD41EC1C0B9FED2C0B53ECAF
:10226000102B01F095FC41EC1B0B9FED250B53EC63
:10227000102B01F08DFC41EC1A0B01F057FC08EE1D
:10228000900ABCEEE80A204880ED020A00BF184818
:102290000088B84291D100E01BE0002406E01D4810
:1022A00050F8240000B903E0601CC4B2042CF6DB33
:1022B00000BF032C01D100F01BFD134880681649B4
:1022C0000968884204D11448006808B100F010FD84
:1022D00000BFBDEC0A8BBDE8F0870000EC78002061
:1022E000A47800207C79002000000000282A00202B
:1022F0000A0000200C0000200024744900007042F5
:10230000000000000000F83F987800200000000066
:1023100000001840487800200000002070477047F7
:1023200070477047704770472DE9F84F04462068A2
:1023300005682068C668206847694FF00009CA46EA
:1023400005F00F09B9F1000F0AD105F0200038B1EE
:1023500006F0200020B1204601F0B2F8BDE8F88F69
:10236000B9F1000F7CD007F0010018B906F49070A5
:10237000002875D005F0010030B106F4807018B166
:10238000606C40F00100606405F0040030B107F0BB
:10239000010018B1606C40F00200606405F00200BA
:1023A00030B107F0010018B1606C40F004006064C7
:1023B00005F0080048B106F0200010B907F0010050
:1023C00018B1606C40F008006064606C002846D072
:1023D00005F0200028B106F0200010B1204601F0E1
:1023E0006FF820684069C0F3801A606C00F0080044
:1023F00010B9BAF1000F2DD0204600F0F4FF20688C
:10240000406900F04000402820D100BF00BF216893
:10241000143151E8001F21F040002168143141E8D7
:102420000002002AF3D100BFE06B50B17F48E16B9E
:102430000865E06BFEF711FA88B1E06B016D884723
:102440000DE02046A16D884709E009E02046A16D16
:10245000884704E02046A16D8847002060647DE73E
:10246000206B012878D105F01000002874D006F008
:1024700010000028FAD000BF0020009020680068FB
:10248000009020684068009000BF00BF206840694D
:1024900000F04000402870D1E06B006840681FFAEF
:1024A00080F8B8F1000F58D0A08D404555DDA4F854
:1024B0002E80E06BC069B0F5807F43D000BF00BFC5
:1024C00021680C3151E8001F21F4807021680C3123
:1024D00041E80002002AF3D100BF00BF00BF21681D
:1024E000143151E8001F21F001002168143141E846
:1024F0000002002AF3D100BF00BF00BF21681431E1
:1025000051E8001F21F040002168143141E8000229
:10251000002AF3D100BF202084F84200002020636D
:1025200000BF00BF21680C3151E8001F21F01000EE
:1025300021680C3141E80002002AF3D100BFE06BB2
:10254000FEF735F902206063A08DE38DC01A81B2D9
:102550002046E26E90470EE052E0A08D40450AD141
:10256000E06BC069B0F5807F05D102206063A18D6A
:102570002046E26E9047F1E6FFE7A08DE18D401A1C
:102580001FFA80F8E08DD0B3B8F1000F37D000BF4C
:1025900000BF21680C3151E8001F21F490702168C0
:1025A0000C3141E80002002AF3D100BF00BF00BF98
:1025B0002168143151E8001F21F001002168143115
:1025C00041E80002002AF3D100BF202084F8420035
:1025D0000020206300BF00BF21680C3151E8001FBC
:1025E00021F0100021680C3141E80002002AF3D1EB
:1025F00000BF0220606341462046E26E9047ADE690
:1026000005F0800030B106F0800018B1204601F0DE
:102610000BF9A3E605F0400030B106F0400018B118
:10262000204600F016FF99E600BF97E6D533000874
:1026300010B504460CB9012010BDA06900B100E03E
:1026400000BF94F8410060B9002084F840002046A3
:1026500000F010FF206F08B9164820672046216F50
:102660008847242084F841002068C06820F4005086
:102670002168C860204600F0A1FF2068006920F4AE
:102680009040216808612068406920F02A00216894
:1026900048612068C06840F400502168C86000208C
:1026A0006064202084F8410084F8420000206063C8
:1026B00000BFC1E7B926000810B586B00446142152
:1026C00001A8FDF705FF1F492068884238D100BFE7
:1026D000002000901C48006840F010001A49086073
:1026E0000846006800F01000009000BF00BF00BF67
:1026F0000020009014481438006840F0010012498E
:10270000143908600846006800F00100009000BF1E
:1027100000BF4FF4C060019002200290002003909F
:10272000032004900720059001A90848FEF774FAD9
:10273000002211462520FEF71BFC2520FEF704FC95
:1027400006B010BD001001404438024000000240B5
:1027500070B504460D46164694F8420020280BD169
:1027600005B10EB9012070BD002020633246294614
:10277000204601F039F8F6E70220F4E710B50446E8
:10278000012227492748FFF7E3FF2648844246D124
:102790002548007820B101280AD0022836D117E058
:1027A0001F4800785A2802D101201F4908702EE0E6
:1027B0001B480078002807DB194800781B4908707F
:1027C00002201949087002E00020174908701EE035
:1027D00016480078001F1649097888420BDB10481C
:1027E00000781449124A1278885411480078401C25
:1027F0000F49087009E00F4800F056FB00200A4915
:1028000008700B4908700949087000E000BF00BF5C
:102810000548007818B940210648FDF759FE10BD5B
:1028200015000020DC790020130000201200002099
:10283000140000205878002070472DE9F84F044616
:102840000E46174699464FF0000A94F8410020289A
:1028500050D106B117B90120BDE8F88F002060649F
:10286000212084F84100FEF7D7FA8246A784E78446
:10287000A068B0F5805F04D1206910B90025B0468A
:1028800002E035464FF000081EE05346002280214A
:102890002046CDF8009000F0F7FF20B1202084F80A
:1028A00041000320D8E745B9B8F80000C0F308009C
:1028B0002168486008F1020803E028782168486030
:1028C0006D1CE08C401EE084E08C0028DDD1534676
:1028D000002240212046CDF8009000F0D5FF20B125
:1028E000202084F841000320B6E7202084F841002E
:1028F0000020B1E70220AFE77047704700BFFEE756
:1029000008B500BF002000900A48006840F400109D
:10291000084908600846006800F40010009000BFF5
:1029200000BF002211460C20FEF722FB0C20FEF710
:102930000BFB08BD3038024000B587B0142102A857
:10294000FDF7C6FD00BF002001906A48006840F016
:102950001000684908600846006800F01000019007
:1029600000BF00BF00BF002001900846006840F093
:10297000040008600846006800F00400019000BFF1
:1029800000BF00BF002001900846006840F08000B2
:1029900008600846006800F08000019000BF00BF9A
:1029A00000BF002001900846006840F00100086068
:1029B0000846006800F00100019000BF00BF00BFA2
:1029C000002001900846006840F0020008600846B8
:1029D000006800F00200019000BF00BF00BF0020AF
:1029E00001900846006840F008000860084600684A
:1029F00000F00800019000BF00BF00224FF4E0414A
:102A00003D48FEF703FA002227213C48FEF7FEF975
:102A10004FF6FF700290032003900020049002A95B
:102A20003748FEF7F9F84FF6FF7002900320039045
:102A30000020049002A93348FEF7EEF849F6F010A2
:102A40000290032003900020049002A92E48FEF774
:102A5000E3F848F6FF7002900320039000200490F2
:102A600002A92548FEF7D8F84FF4E0400290012073
:102A70000390002004900320059002A91E48FEF751
:102A8000CBF84FF4E26002904FF404100390012061
:102A9000049002A91948FEF7BFF84FF6C000029053
:102AA000032003900020049002A91448FEF7B4F814
:102AB000072002900120039000200490032005903D
:102AC00002A90E48FEF7A8F8082002900020039003
:102AD000049002A90948FEF79FF8202002900120E7
:102AE000039000200490059002A90448FEF794F892
:102AF00007B000BD3038024000040240000C024024
:102B000000100240000802400000024000B58BB0F7
:102B100000200790089009900A9003900490059077
:102B20000690019002904FF080401B490860002001
:102B30004860002118488160491EC1600021016180
:102B400080218161FEF7E8FE08B1FDF72DFE4FF40C
:102B50008050079007A91048FFF706F808B1FDF765
:102B600023FE00200390049005200590002006908D
:102B700003A90948FEF700FE08B1FDF715FE502035
:102B800001900020029001A90348FEF76BFE08B1F6
:102B9000FDF70AFE0BB000BDA478002000B587B099
:102BA0000020039004900590069001900290154833
:102BB000154908605320486000211348816040F2A5
:102BC000E731C1600021016180218161FEF7A4FE2F
:102BD00008B1FDF7E9FD4FF48050039003A90A48BE
:102BE000FEF7C2FF08B1FDF7DFFD00200190029063
:102BF00001A90548FEF736FE08B1FDF7D5FD07B07F
:102C000000BD000000080040EC78002000B58DB049
:102C1000002009900A900B900C90079008901C21BE
:102C20006846FDF755FC214821490860532048605B
:102C300000211F48816040F2E731C160002101613D
:102C400080218161FEF768FE08B1FDF7ADFD4FF40C
:102C50008050099009A91648FEF786FF08B1FDF7D4
:102C6000A3FD1348FFF7D7F908B1FDF79DFD00203C
:102C70000790089007A90E48FEF7F4FD08B1FDF78C
:102C800093FD602000904FF4FA70019000200290B4
:102C900004900C2269460648FFF73BF908B1FDF79E
:102CA00083FD0348FFF704F90DB000BD000C0040A0
:102CB0003479002010B50B480B4908604FF46120AF
:102CC0004860002108488160C16001610C214161B8
:102CD00000218161C161FFF7ABFC08B1FDF764FD24
:102CE00010BD000000100140DC79002000BFFEE7AD
:102CF00010B5ADF5047D4FF40072424904A8FDF70C
:102D0000B5FB41A0006803900020019002903F486D
:102D10003FA1026804A8FDF723FBC0B28DF80400B0
:102D20003A483BA1426814A8FDF71AFBC0B28DF8DF
:102D30000500364836A1826824A8FDF711FBC0B211
:102D40008DF80600314832A1C26834A8FDF708FBAF
:102D5000C0B28DF8070000222DA144A8FDF700FBAA
:102D6000C0B28DF80800002229A154A8FDF7F8FA96
:102D7000C0B28DF80900002225A164A8FDF7F0FA81
:102D8000C0B28DF80A00002221A174A8FDF7E8FA6C
:102D9000C0B28DF80B00002410E001A8025D04A869
:102DA00000EB841164231B48FFF747FD64230322D3
:102DB00003A91848FFF741FD601CC4B2082CECDBE6
:102DC0000021084600F06CFE0021012000F068FEA2
:102DD0000021022000F064FE0021032000F060FECC
:102DE0000A480021016041608160C16000200A49F9
:102DF00009684862084909684863084908600DF590
:102E0000047D10BD08400008FFFFFF004878002047
:102E100025640000DC790020A47800200000002058
:102E200010B50446012C05D1002202210448FDF70B
:102E3000EDFF04E0012202210148FDF7E7FF10BD8C
:102E4000000C02400146B1F57A7F01DB4FF47A7144
:102E50004A1E024B1B681A64704700003479002038
:102E600010B50446012C0CD1012211460B48FDF788
:102E7000CDFF012204210948FDF7C8FF00F0B4FD91
:102E80000BE0002201210548FDF7C0FF00220421CC
:102E90000248FDF7BBFFFFF72BFF10BD000C0240FF
:102EA00000BFFEE7704700002DE9F0470446002709
:102EB0000026B046B146002529466D1C605C0743DC
:102EC00029466D1C605C47EA002729466D1C605C42
:102ED000064329466D1C605C46EA002629466D1CA7
:102EE000605C46EA004629466D1C605C46EA006666
:102EF00029466D1C14F801802846691CCDB214F8CF
:102F000000904846FFF7ACFF3846FFF79BFF40466E
:102F1000FFF786FF01480660BDE8F087000000204B
:102F20007047704700B593B0302107A8FDF7D0FA7D
:102F3000142102A8FDF7CCFA00BF0020019025481B
:102F4000006840F08050234908600846006800F09F
:102F50008050019000BF00BF00BF002001901E48BC
:102F6000006840F480401C4908600846006800F48E
:102F70008040019000BF00BF0220079001200A900E
:102F800010200B9002200D9000210E9108210F912E
:102F9000A8211091022111910421129107A8FEF796
:102FA0009BF908B1FDF700FC0F200290022003906E
:102FB000002004904FF4A05005904FF480500690EC
:102FC000052102A8FEF726F808B1FDF7EDFB13B0C6
:102FD00000BD000040380240007000400348006817
:102FE00040F47000014908607047000088ED00E07F
:102FF00010B50248FEF7A5FE10BD0000547A00206F
:1030000010B50248FEF79DFE10BD0000EC780020D0
:1030100010B502682B4B98420ED0B0F1804F0BD008
:10302000294B984208D0294B984205D0284B98420A
:1030300002D0284B984203D122F070024B681A4309
:10304000204B984220D0B0F1804F1DD01E4B9842AB
:103050001AD01E4B984217D01D4B984214D01D4BCE
:10306000984211D01C4B98420ED01C4B98420BD06A
:103070001B4B984208D01B4B984205D01A4B9842E4
:1030800002D01A4B984203D122F44072CB681A4303
:1030900022F080034C6943EA04028B68C3620B6828
:1030A0008362084B984202D00A4B984201D10B69C7
:1030B0000363036843F00403036001234361026078
:1030C00010BD000000000140000400400008004066
:1030D000000C004000040140004001400044014059
:1030E0000048014000180040001C00400020004043
:1030F00030B501F01F05012404FA05F3046A9C436E
:103100000462046A01F01F0502FA05F52C4304620B
:1031100030BD30B50C46816821F47F4142EA032579
:1031200025432943816030BD0A46816821F0700142
:1031300042F00703194381607047000030B5026A0E
:10314000056A25F0010505624368846924F070046E
:1031500024F003040D682C4322F002028D682A43F8
:10316000104DA84200D103E00F4DA84206D100BF88
:1031700022F00802CD682A4322F00402094DA84239
:1031800002D0094DA84207D123F4807323F40073C1
:103190004D692B438D692B43436084614D684563C2
:1031A000026230BD000001400004014030B5026AF7
:1031B000056A25F0100505624368846924F4E0443B
:1031C00024F440740D6844EA052422F020028D683E
:1031D00042EA0512124DA84200D103E0114DA84267
:1031E00007D100BF22F08002CD6842EA051222F02A
:1031F00040020B4DA84202D00A4DA84209D123F447
:10320000806323F400634D6943EA85038D6943EAD3
:103210008503436084614D688563026230BD0000B0
:10322000000001400004014030B5026A056A25F43F
:10323000807505624368C46924F0700424F00304B7
:103240000D682C4322F400728D6842EA0522124D6B
:10325000A84200D103E0114DA84207D100BF22F4DB
:103260000062CD6842EA052222F480620A4DA8423B
:1032700002D00A4DA84209D123F4805323F400530D
:103280004D6943EA05138D6943EA05134360C46140
:103290004D68C563026230BD00000140000401407A
:1032A00030B5036A056A25F4805505624468C26931
:1032B00022F4E04222F440720D6842EA052223F42F
:1032C00000538D6843EA0533084DA84202D0084DEB
:1032D000A84204D124F480444D6944EA8514446032
:1032E000C2614D680564036230BD0000000001400A
:1032F0000004014030B50B461446026A056A25F009
:1033000001050562816921F0F00141EA041122F012
:103310000A021A438161026230BD000070B50C469A
:103320001546026A066A26F0010606628169184E91
:10333000B04214D0B0F1804F11D0164EB0420ED032
:10334000154EB0420BD0154EB04208D0144EB042CC
:1033500005D0144EB04202D0134EB04201D1012626
:1033600000E000261EB121F00301294301E041F0F5
:10337000010121F0F001F02606EA0316314322F0A4
:103380000A0204F00A0632438161026270BD000045
:10339000000001400004004000080040000C004014
:1033A00000040140004001400018004030B50B46C9
:1033B0001446026A056A25F010050562816921F448
:1033C000704141EA043122F0A00242EA0312816115
:1033D000026230BD70B50546AC6B0020E08520462A
:1033E000A16D884770BD00BF00BF02680C3252E873
:1033F000002F22F4907102680C3242E80013002B77
:10340000F3D100BF00BF00BF0268143252E8002FA2
:1034100022F001010268143242E80013002BF3D1BC
:1034200000BF016B01290ED100BF00BF02680C3242
:1034300052E8002F22F0100102680C3242E800131B
:10344000002BF3D100BF202180F84210002101633E
:10345000704710B504462068C06820F0400021681D
:10346000C860202084F841002046E16C8847002095
:1034700010BD0000094981640949C1640949016519
:1034800009494165094981650949C16509490166DB
:10349000094941660949C16670470000FB280008D8
:1034A000F9280008392800087D270008272300088C
:1034B0002123000825230008232300081F230008D8
:1034C000F8B504460025002694F84200222873D15E
:1034D000A068B0F5805F0BD1206948B9A66A206862
:1034E0004068C0F308003080A06A801CA06214E02D
:1034F000A56AA068B0F5805F03D0A06828B92069EC
:1035000018B920684068287004E02068406800F01E
:103510007F002870A06A401CA062E08D401E80B22F
:10352000E085002846D12068C06820F0200021688E
:10353000C8602068C06820F480702168C860206876
:10354000406920F0010021684861202084F8420091
:1035500000206063206B012826D10020206300BF7B
:1035600000BF21680C3151E8001F21F010002168D4
:103570000C3141E80002002AF3D100BF2068006846
:1035800000F0100010280AD100BF00200090206831
:103590000068009020684068009000BF00BFA18DC7
:1035A0002046E26E904702E02046616D8847002089
:1035B000F8BD01E00020FBE70220F9E72DE9F84F14
:1035C00004462068006920F44050E16808432168FF
:1035D00008612169A068084361690843E1690843FB
:1035E00000902068C06849F20C6188430099084344
:1035F0002168C8602068406920F44070A1690843D0
:103600002168486176492068884203D0754920685E
:10361000884203D1FDF7F8FD814602E0FDF7E4FDA5
:103620008146E069B0F5004F6CD102206168A0FBD3
:10363000015003461920A9FB007001462A4638466E
:10364000FCF716FE6421B0FBF1F04FEA001A0220ED
:103650006168A0FB01510B461920A9FB00712A46A5
:103660003846FCF705FE834602206168A0FB015046
:1036700003461920A9FB00712A463846FCF7F8FDDD
:103680006421B0FBF1F000EBC00101EB0010ABEBEB
:103690008000322101EBC0006421B0FBF1F000F0AA
:1036A000F8000AEB400A02206168A0FB01500346C3
:1036B0001920A9FB007001462A463846FCF7D8FDC0
:1036C000834602206168A0FB015003461920A9FB34
:1036D00000712A463846FCF7CBFD6421B0FBF1F0BF
:1036E00000EBC00101EB0010ABEB8000322101EBDD
:1036F000C0006421B0FBF1F000F0070050442168E5
:1037000088606AE004206168A0FB0150034619202C
:10371000A9FB007001462A463846FCF7A9FD8246FF
:1037200004206168A0FB015003461920A9FB00702A
:1037300001462A463846FCF79BFD6421B0FBF1F0B8
:1037400000EBC00101EB0010AAEB8000322101EB7D
:1037500000106421B0FBF1F000F0F00A0420616871
:10376000A0FB017003461920A9FB00513A462846E8
:10377000FCF77EFD6421B0FBF1F00AEB001A042097
:103780006168A0FB01510B461920A9FB00712A4674
:103790003846FCF76DFD834604206168A0FB0150AC
:1037A00003461920A9FB007001462A463846FCF75B
:1037B0005FFD6421B0FBF1F000EBC00101EB0010F4
:1037C000ABEB8000322101EB00106421B0FBF1F083
:1037D00000F00F00504421688860BDE8F88F0000B9
:1037E000001001400014014010B5034699629A850B
:1037F000DA8500205864222083F84200186928B135
:103800001868C06840F480701C68E06018684069FF
:1038100040F001001C6860611868C06840F020003A
:103820001C68E060002010BD014691F8410021288D
:1038300028D18868B0F5805F0BD1086948B90A6A59
:103840001088C0F308000B685860086A801C086282
:1038500005E00B6A581C086218780B685860C88C21
:10386000401E80B2C88458B90868C06820F0800043
:103870000B68D8600868C06840F040000B68D860EA
:10388000002070470220FCE72DE9F84304460D466E
:1038900017469846089E31E0701C70B3FDF7BCFADD
:1038A000A0EB0800B04200D816B90320BDE8F883A9
:1038B0002068C06800F00400F8B1802D1ED0402DB3
:1038C0001CD020680068C0F3C000B0B100BF002069
:1038D000009020680068009020684068009000BF59
:1038E00000BF2046FFF77FFD0820606400BF002076
:1038F00084F8400000BF0120D8E7FFE72068006897
:103900002840A84201D1012000E00020B842C3D0E5
:103910000020CBE710B50248FEF706FD10BD000001
:10392000DC79002000BFFEE702480068C0F30220F7
:10393000704700000CED00E010B5002804DB0A071A
:10394000130E054A135406E00A07140E034A00F04A
:103950000F031B1FD45410BD00E400E018ED00E07D
:10396000FDF760FAFFF7DEFAFEF7E6FFFEF7C8FFA5
:10397000FFF7CCF8FFF74AF9FFF79CF9FFF70EF9CC
:103980003C211148FEF776F91048FEF799F841F20C
:1039900088330F4A0F491048FDF70AF901220F49F1
:1039A0000F48FEF7D5FE08480068C06840F4007074
:1039B00005490968C8600C210A48FEF761FB00F060
:1039C00013F800BFFEE70000A4780020EC78002088
:1039D000282A0020340000407C79002015000020B7
:1039E000DC7900203479002010B5C2B0012100201C
:1039F00000F056F80121084600F052F8012102209B
:103A000000F04EF80121032000F04AF84FF48072D4
:103A10001F4902A8FCF72AFD1EA0006801900020A3
:103A2000009001221CA102A8FCF79AFCC0B28DF8FC
:103A30000000012218A112A8FCF792FCC0B28DF878
:103A40000100012214A122A8FCF78AFCC0B28DF863
:103A50000200012210A132A8FCF782FCC0B28DF84E
:103A60000300002410E01DF8042002A800EB8411DC
:103A700064230A48FEF7E1FE6423032201A90748F4
:103A8000FEF7DBFE601CC4B2042CECDB42B010BDC0
:103A900008420008FFFFFF0025640000DC790020D9
:103AA00070B505460C4635B1012D12D0022D1ED041
:103AB000032D36D129E034B100224FF4805119484A
:103AC000FDF7A4F904E0012211031648FDF79EF961
:103AD00000BF34B100224FF400511248FDF796F9AF
:103AE00004E0012251030F48FDF790F900BF34B103
:103AF00000224FF480410B48FDF788F904E00122D1
:103B000091030848FDF782F900BF2CB10022202163
:103B10000548FDF77BF904E0012220210248FDF76A
:103B200075F970BD00040240000C024021F0004213
:103B3000A2F16052B2F5801F01F0004328BFD2F11C
:103B40007F6C0BD95FEA001C43EAC20242EB507063
:103B500018BF704728BF20F001007047B2F5801FE2
:103B6000BCBF184670474FEA410C1CF5001F02D23B
:103B7000084600F043BA70B500F075F900000089FE
:103B8000FFF7F6BF4FF00040A0F58000704700003F
:103B90002DE9C04130B4DFF8A0C23CEA111418BFCF
:103BA0003CEA131400F0EC8081EA03051CEA1114CE
:103BB00044EAD57418BF1CEA131500F0C780A4EBC3
:103BC00005044FF0004545EAC12145EAC32341EA17
:103BD000505143EA525304F17F74994204F5003482
:103BE0004FEAC0204FEAC22208BF904200F09C80FA
:103BF0004FEA13650FF24016765D4FEA134506FB58
:103C000005F7C7F1807706FB07F74FEAD737A7FB21
:103C100003687642C8F58038A7FB06CE38BFA8F106
:103C2000010807FB08E64FF0000EA6FB028CE6FB3E
:103C300003CEDCF1000CCEF1004E38BFAEF1010E28
:103C4000A6FB0C584FF000074FF00005E6FB0E876F
:103C5000A1FB08C6A0FB07CE16EB0E0645F100053A
:103C6000E1FB076515F1E04E7EBFA4F580345FEA05
:103C700046066D4116F1800745F100054FEA17270A
:103C80004FEA066647EA0567A6F1DE46B6F1805FB1
:103C90004FEA15251FD9384624F0010C05EBC471F5
:103CA000BCF1FE6F01EB0C1102D8F0BCBDE8008145
:103CB00024425CBF01F5801E9EEAC47F02D4F0BCA2
:103CC000BDE80081244238D4F0BCA1F1C041BDE878
:103CD000004100F016B94FEAD22242EA43524FEABD
:103CE000D323A7FB02864FEAD02040EA415007FBCE
:103CF00003661EEA0E0F4FEAD12105FB026658BF8C
:103D0000A6EB0056B6EB00564FEA520E4EEAC37EC3
:103D100018EB0E0E56EB530EBDD518EB02085E41A4
:103D20007F1C55F10005B6E74FF480154FF00007F2
:103D30004FF000064FF00008ADE7F0BC4FF0000078
:103D400001F1C04101F00041BDE8008111EA0C1F02
:103D50000CEA131500D00CE013EA0C1F00F02580CC
:103D60004FF00000F0BC81EA030101F00041BDE822
:103D70000081F0BCBDE8004181EA030100F0C1B858
:103D8000F0BCBDE8004170B500F06DF8097EFC3E66
:103D900000F007B881EA03014FF0000001F0004194
:103DA000704781EA030100F0ACB8F0BCBDE8004107
:103DB0004FF0000021497047FFFDFBF9F7F5F4F2E1
:103DC000F0EEEDEBE9E8E6E4E3E1E0DEDDDBDAD8B6
:103DD000D7D5D4D3D1D0CFCDCCCBCAC8C7C6C5C414
:103DE000C2C1C0BFBEBDBCBBBAB9B8B7B6B5B4B32B
:103DF000B2B1B0AFAEADACABAAA9A8A8A7A6A5A416
:103E0000A3A3A2A1A09F9F9E9D9C9C9B9A999998D9
:103E10009797969595949393929191908F8F8E8E7C
:103E20008D8C8C8B8B8A8989888887878685858409
:103E300084838382828181800000FF070000F87FF5
:103E4000B0FA80F310FA03F10AD0C3F11D0303F5B1
:103E500080634FEA41504FEA035202EBD121704791
:103E60004FF0000070470EF1020E2EF0030E5EF8C8
:103E7000046B364205D4012A43EB030515F5001FF8
:103E800012D8012841EB010C1CF5001F0CD80ED1F3
:103E90004FEAD17C15F5001F0CEB4C0C0CF1020C19
:103EA00008BF4CEBD37C04E04FF0080C01E04FEA74
:103EB000D37C0CEB4C0526FA05F606F00706B6F1A6
:103EC000040C06D20EEB860CBDE870404CF0010CE1
:103ED0006047DFE80CF0090B02024FF000414FF0A1
:103EE0000000A1F5002170BD19461046012851EBD4
:103EF000010418BFD4F5001484BF002001F0004174
:103F000070BD0808A0F500114FEA310170470000AC
:103F100043004FEAD30C4FEA3C0C43401FBF40071D
:103F20000CF1605113F0FE4F70471CF0006F03D18D
:103F300000200CF0004170470CF0004343EA507041
:103F400010B540EACC0000F00EF800BF000000926F
:103F50004FEA0001FFF7D5BF4FF000414FF00000DE
:103F6000A1F5002170470EF1020E2EF0030E5EF84F
:103F7000044B244204D44FEA4102B2F17F4F11D8DE
:103F80004FEA4003B3F17F4F0CD80ED14FEAD07CFB
:103F9000B2F17F4F0CEB4C0C0CF1020C08BF4CEB58
:103FA000D17C04E04FF0080C01E04FEAD17C0CEB2F
:103FB0004C0324FA03F404F00704B4F1040C06D211
:103FC0000EEB840CBDE810404CF0010C6047DFE8BC
:103FD0000CF0070802024FF00040A0F5800010BD71
:103FE0000846420018BFD2F1807288BF00F000403E
:103FF00010BD4FF04070E1EE100A7047FF2141EA1A
:10400000D050C0057047000070616765322E6E3079
:104010002E76616C3D0000000000000000000000F2
:104020000000000000000000000000000000000090
:104030000000000000000000000000000000000080
:10404000000000000000000070616765322E6E31D4
:104050002E76616C3D0000000000000000000000B2
:104060000000000000000000000000000000000050
:104070000000000000000000000000000000000040
:10408000000000000000000070616765322E6E3293
:104090002E76616C3D000000000000000000000072
:1040A0000000000000000000000000000000000010
:1040B0000000000000000000000000000000000000
:1040C000000000000000000070616765322E6E3352
:1040D0002E76616C3D000000000000000000000032
:1040E00000000000000000000000000000000000D0
:1040F00000000000000000000000000000000000C0
:10410000000000000000000070616765322E6E3410
:104110002E76616C3D0000000000000000000000F1
:10412000000000000000000000000000000000008F
:10413000000000000000000000000000000000007F
:10414000000000000000000070616765322E6E35CF
:104150002E76616C3D0000000000000000000000B1
:10416000000000000000000000000000000000004F
:10417000000000000000000000000000000000003F
:10418000000000000000000070616765322E6E368E
:104190002E76616C3D000000000000000000000071
:1041A000000000000000000000000000000000000F
:1041B00000000000000000000000000000000000FF
:1041C000000000000000000070616765322E6E374D
:1041D0002E76616C3D000000000000000000000031
:1041E00000000000000000000000000000000000CF
:1041F00000000000000000000000000000000000BF
:10420000000000000000000070616765322E6E340F
:104210002E76616C3D0000000000000000000000F0
:10422000000000000000000000000000000000008E
:10423000000000000000000000000000000000007E
:10424000000000000000000070616765322E6E35CE
:104250002E76616C3D0000000000000000000000B0
:10426000000000000000000000000000000000004E
:10427000000000000000000000000000000000003E
:10428000000000000000000070616765322E6E368D
:104290002E76616C3D000000000000000000000070
:1042A000000000000000000000000000000000000E
:1042B00000000000000000000000000000000000FE
:1042C000000000000000000070616765322E6E374C
:1042D0002E76616C3D000000000000000000000030
:1042E00000000000000000000000000000000000CE
:1042F00000000000000000000000000000000000BE
:104300000000000000000000000610160006101655
:104310000000000000000000010203040607080975
:1043200000000000010203044843000800000020D0
:1043300028000000C4010008704300082800002085
:10434000D8800000E001000800000000000000002C
:10435000000000000000000000000000000000005D
:104360000000000010000000010000000024F40024
:040000050800018965
:00000001FF
