:020000040800F2
:100000001023002021020008290200082B0200080A
:100010002D0200082F020008310200080000000035
:10002000000000000000000000000000890100083E
:100030003502000800000000CD01000889200008FA
:100040003B0200083B0200083B0200083B0200089C
:100050003B0200083B0200083B0200083B0200088C
:100060003B0200083B0200083B0200083B0200087C
:100070003B0200083B0200083B0200086D04000838
:100080007D0400083B0200083B0200083B02000818
:100090003B0200083B0200083B0200083B0200084C
:1000A0003B020008092100083B0200083B0200084F
:1000B0003B0200083B0200083B0200083B0200082C
:1000C0003B0200083B0200083B0200083B0200081C
:1000D0003B020008D12700080D2800083B02000859
:1000E0003B0200083B0200083B02000800F002F857
:1000F00000F03AF80AA090E8000C82448344AAF188
:100100000107DA4501D100F02FF8AFF2090EBAE885
:100110000F0013F0010F18BFFB1A43F0010318473B
:100120001C5200003C520000103A24BF78C878C12D
:10013000FAD8520724BF30C830C144BF04680C60ED
:10014000704700000023002400250026103A28BF35
:1001500078C1FBD8520728BF30C148BF0B60704739
:100160001FB51FBD10B510BD00F045F91146FFF7D2
:10017000F7FF02F01DFC00F063F903B4FFF7F2FF94
:1001800003BC00F06BF90000224B19680868B0E866
:10019000F00F80F30988BFF36F8F4FF0000080F3FA
:1001A00011884EF00D0E70470000000006480068F0
:1001B000006880F3088862B661B6BFF34F8FBFF363
:1001C0006F8F00DF00BF00BF08ED00E0EFF3098094
:1001D000BFF36F8F0F4B1A6820E9F00F106008B55E
:1001E0004FF0500080F31188BFF34F8FBFF36F8F34
:1001F00003F096FE4FF0000080F31188BDE8084040
:1002000019680868B0E8F00F80F30988BFF36F8FB2
:10021000704700BF30000020EFF3058070470000FA
:100220000948804709480047FEE7FEE7FEE7FEE78A
:10023000FEE7FEE7FEE7FEE7FEE7FEE704480549C6
:10024000054A064B7047000005210008ED00000834
:10025000101D002010230020101F0020101F002060
:10026000032A40F2308010F0030C00F0158011F8E2
:10027000013BBCF1020F624498BF11F801CB00F8BA
:10028000013B38BF11F8013BA2F1040298BF00F80E
:1002900001CB38BF00F8013B11F0030300F0798077
:1002A000083AC0F0088051F8043B083A51F804CBF2
:1002B000A0E80810F5E7121D5CBF51F8043B40F8B8
:1002C000043BAFF30080D20724BF11F8013B11F8C3
:1002D00001CB48BF11F8012B24BF00F8013B00F807
:1002E00001CB48BF00F8012B704702F0FF0343EA3F
:1002F000032242EA024200F002B84FF00002042951
:10030000C0F0128010F0030C00F01B80CCF1040C44
:10031000BCF1020F18BF00F8012BA8BF20F8022B78
:10032000A1EB0C0100F00DB85FEAC17C24BF00F81E
:10033000012B00F8012B48BF00F8012B70474FF04C
:10034000000200B5134694469646203922BFA0E825
:100350000C50A0E80C50B1F12001BFF4F7AF090731
:1003600028BFA0E80C5048BF0CC05DF804EB890022
:1003700028BF40F8042B08BF704748BF20F8022B65
:1003800011F0804F18BF00F8012B7047704770477D
:10039000704710B5203AC0F00B80B1E81850203AF1
:1003A000A0E81850B1E81850A0E81850BFF4F5AF15
:1003B0005FEA027C24BFB1E81850A0E8185044BF9F
:1003C00018C918C0BDE810405FEA827C24BF51F80C
:1003D000043B40F8043B08BF7047D20728BF31F800
:1003E000023B48BF11F8012B28BF20F8023B48BF51
:1003F00000F8012B7047754600F02CF8AE4605005A
:100400006946534620F00700854618B020B5FFF72F
:1004100015FFBDE820404FF000064FF000074FF0F9
:1004200000084FF0000B21F00701AC46ACE8C00912
:10043000ACE8C009ACE8C009ACE8C0098D4670471B
:1004400010B50446AFF300802046BDE81040FFF72A
:1004500094BE000000487047B01C002001491820DD
:10046000ABBEFEE7260002007047000010B5024850
:1004700000F0A8F810BD0000D401002010B502481B
:1004800000F0A0F810BD00001802002030B590F870
:1004900040500124AC40C56B6C60046863604468E4
:1004A000102C04D10468A2600468E16003E00468D1
:1004B000A1600468E26030BD72B600BFFEE701468D
:1004C000002291F82100022808D00420886300BF90
:1004D000002081F8200000BF0120704708680068F4
:1004E00020F00E000B6818600868006820F001001A
:1004F0000B68186091F8403001209840CB6B586031
:10050000012081F8210000BF002081F8200000BFF9
:100510001046E2E770B50446002594F82100022851
:1005200003D00420A063012548E02068006820F083
:100530000E00216808602068006820F00100216832
:1005400008601F492068884201D1012026E01C492B
:1005500014312068884201D110201FE01849283149
:100560002068884201D1801518E015493C31206887
:10057000884201D1801411E011495031206888422D
:1005800002D14FF4803009E00D496431206888427F
:1005900002D14FF4801001E04FF080700849083913
:1005A0004860012084F8210000BF002084F820006A
:1005B00000BF606B10B12046616B8847284670BD54
:1005C0000800024070B50446E06B056820680668C4
:1005D00094F84010042088402840002846D006F0B7
:1005E0000400002842D02068006800F0200028B9EC
:1005F0002068006820F004002168086057492068DE
:10060000884201D1042027E05449143120688842EF
:1006100001D1402020E0514928312068884201D191
:10062000001519E04D493C312068884202D14FF451
:10063000804011E0494950312068884202D14FF48E
:10064000802009E0454964312068884202D14FF496
:10065000800001E04FF08060404908394860E06A5E
:1006600000287AD02046E16A884776E094F8401066
:10067000022088402840A0B306F0020088B320681A
:10068000006800F0200040B92068006820F00A00EF
:1006900021680860012084F82100304920688842E0
:1006A00001D1022028E02D4914312068884201D16F
:1006B000202021E0294928312068884201D14015B5
:1006C0001AE026493C312068884202D14FF400509C
:1006D00012E0224950312068884203D14FF40030A3
:1006E0000AE017E01D4964312068884202D14FF4C6
:1006F000001001E04FF0007018490839486000BF51
:10070000002084F8200000BFA06A30B32046A16A10
:10071000884722E094F84010082088402840E0B143
:1007200006F00800C8B12068006820F00E002168BB
:10073000086094F8401001208840E16B4860012077
:10074000A06384F8210000BF002084F8200000BFCF
:10075000206B10B12046216B884770BD0800024015
:100760000146002209B901207047164B0868C01ADB
:100770001423B0FBF3F08000086412480838C86303
:10078000022081F821000868026843F6F070824375
:10079000D1E901031843CB6818430B6918434B692F
:1007A00018438B691843CB691843024308680260F9
:1007B00000208863012081F82100002081F82000BA
:1007C00000BFD1E7080002402DE9F04104460D4684
:1007D00016461F464FF0000800BF94F8200001287D
:1007E00002D10220BDE8F081012084F8200000BF82
:1007F00094F8210001282CD1022084F82100002047
:10080000A0632068006820F00100216808603B4672
:10081000324629462046FFF739FEE06A30B12068AB
:10082000006840F00E00216808600BE02068006856
:1008300020F00400216808602068006840F00A0089
:10084000216808602068006840F0010021680860A5
:1008500006E000BF002084F8200000BF4FF002082F
:100860004046BFE72DE9F8470346002294466EE173
:100870004FF0010808FA02F4D1F8008008EA0400F9
:10088000A0427DD1DFF8DCA2D1F80480A8EB0A09F0
:10089000D0453AD014DCB8F1030F50D009DCB8F1E0
:1008A000000F31D0B8F1010F1CD0B8F1020F49D1BF
:1008B00020E0B8F1110F18D0B8F1120F42D11EE0AC
:1008C000B9F5881F25D006DCB9F5803F20D0B9F5F1
:1008D000801F37D11AE0B9F5001F18D0B9F5041FF1
:1008E00030D117E0D1F80CC02DE0D1F80C8008F120
:1008F000040C28E0D1F80C8008F1080C23E0D1F8B2
:100900000C8008F10C0C1EE000BF00BF00BF00BF50
:1009100000BF00BFD1F80880B8F1000F02D14FF03E
:10092000040C0BE0D1F80880B8F1010F03D14FF0AF
:10093000080C1C6102E04FF0080C5C6103E04FF012
:10094000000C00E000BF00BFFF2801D8984601E07E
:1009500003F104084646FF2802D84FEA820803E064
:10096000A2F108084FEA88084746D6F800804FF001
:100970000F0909FA07F928EA09080CFA07F900E053
:1009800088E048EA0908C6F80080D1F8048008F039
:100990008058B8F1805F7DD100BFDFF8CC81D8F8F6
:1009A000188048F00108DFF8C091C9F81880C846DF
:1009B000D8F8188008F00108CDF8008000BF00BF0B
:1009C0004FEAB9384FEA920958F829504FEA82782D
:1009D0004FEA18794FF00F0808FA09F825EA0805D8
:1009E000DFF88881434502D14FF0000816E0DFF8B8
:1009F0008081434502D14FF001080FE0DFF8748198
:100A0000434502D14FF0020808E0DFF86C8143450E
:100A100002D14FF0030801E04FF004084FEA827959
:100A20004FEA197908FA09F848EA0505DFF84C8118
:100A30004FEA920948F82950D1F8048008F4801848
:100A4000B8F5801F0AD1DFF83881D8F8008048EA6D
:100A50000008DFF82C91C9F8008009E0DFF8208158
:100A6000D8F8008028EA0008DFF81491C9F800805F
:100A7000D1F8048008F40018B8F5001F10D1DFF891
:100A8000008108F10408D8F8008048EA0008DFF87F
:100A9000F09000E05AE009F10409C9F800800DE087
:100AA000DFF8DC8008F10408D8F8008028EA0008A4
:100AB000DFF8CC9009F10409C9F80080D1F804806E
:100AC00008F40038B8F5003F0ED1DFF8B480A8F183
:100AD0000408D8F8008048EA0008DFF8A490A9F1DB
:100AE0000409C9F800800DE0DFF89480A8F104083B
:100AF000D8F8008028EA0008DFF88490A9F10409FA
:100B0000C9F80080D1F8048008F48038B8F5803F37
:100B10000ED1DFF86C80A8F10808D8F8008048EA08
:100B20000008DFF85C90A9F10809C9F800800DE021
:100B3000DFF84C80A8F10808D8F8008028EA0008FF
:100B4000DFF83C90A9F10809C9F80080521CD1F8DF
:100B5000008028FA02F8B8F1000F7FF489AEBDE8F2
:100B6000F88700000000111000100240000801404A
:100B7000000C014000100140001401400800014039
:100B8000080401400AB1016101E00B0403617047F0
:100B900001480068704700002000002003480068FA
:100BA0000349097808440149086070472000002083
:100BB0002800002010B50848006840F010000649E1
:100BC0000860032000F0D8F80F2000F007F800F0CC
:100BD00055F8002010BD000000200240F0B587B09D
:100BE000044600260027002500BF1F48806940F406
:100BF00000601D4988610846806900F4006000902B
:100C000000BF00BF01A902A800F090F900F0C6F9EA
:100C100006461648B6FBF0F0471E15481549086011
:100C200040F2E7311348C1604760002101618160F3
:100C3000816100F02FFC054695B90E4800F05EFC7E
:100C400005466DB9192000F049F8102C07D2002292
:100C50002146192000F052F80748046000E0012501
:100C6000284607B0F0BD00000010024040420F00CF
:100C7000002C01405C0200202400002008B500BFC9
:100C80001448806940F00100124988610846806973
:100C900000F00100009000BF00BF00BF0846C0691F
:100CA00040F08050C8610846C06900F08050009054
:100CB00000BF00BF00220F21901E00F01FF800BFF0
:100CC0000549486820F0E06040F00070486000BFCF
:100CD00008BD000000100240000001400146084627
:100CE000002809DB00F01F0301229A4043099B0002
:100CF00003F1E023C3F8002100BF70472DE9F05F46
:100D000080460D461646002701F0DAFD07463946B3
:100D10002A46334601F00700C0F1070ABAF1040F72
:100D200002D94FF0040A01E0C0F1070AD14600F1F0
:100D3000040ABAF1070F02D24FF0000A01E0A0F155
:100D4000030AD4464FF0010A0AFA09FAAAF1010A85
:100D50000AEA020A0AFA0CFA4FF0010B0BFA0CFB32
:100D6000ABF1010B0BEA030B4AEA0B0421464046A8
:100D700001F0AEFDBDE8F09F00BF00F00702064B9A
:100D800019684FF6FF031940044B0B4343EA022155
:100D9000014B196000BF70470CED00E00000FA0540
:100DA00070B504460D460CB9012070BD5A48006864
:100DB00000F00700A8420ED25748006820F0070054
:100DC0002843554908600846006800F00700A8421B
:100DD00001D00120E9E7207800F0020002281DD1AF
:100DE000207800F00400042805D14C48406840F405
:100DF000E0604A494860207800F00800082805D1E2
:100E00004648406840F46050444948604348406860
:100E100020F0F000A168084340494860207800F0C5
:100E2000010078B36068012806D13C48006800F4EE
:100E3000003090B90120B8E76068022806D1374831
:100E4000006800F0007040B90120AEE73348006848
:100E500000F0020008B90120A7E73048406820F000
:100E60000300616808432D494860FFF791FE06467C
:100E700009E0FFF78DFE801B41F28831884202D9DC
:100E8000032092E707E02548406800F00C00616805
:100E9000B0EB810FEDD12048006800F00700A842B8
:100EA0000ED91D48006820F0070028431A49086041
:100EB0000846006800F00700A84201D0012074E74E
:100EC000207800F00400042807D11448406820F47A
:100ED000E060E168084311494860207800F00800AC
:100EE000082808D10D48406820F46050216940EA84
:100EF000C1000A49486000F061F808494968C1F337
:100F00000311074A515CC84006490860064800685A
:100F1000FFF764FE002048E7002002400010024076
:100F2000AE5200082C000020240000200F22026096
:100F30000D4A526802F0030242600B4A526802F006
:100F4000F0028260084A526802F4E062C260064A17
:100F5000526802F46052D2080261044A126802F038
:100F600007020A60704700000010024000200240A3
:100F700001480068704700002C00002000B5FFF712
:100F8000F7FF04494968C1F30221034A515CC84094
:100F900000BD000000100240BE52000800B5FFF77F
:100FA000E7FF04494968C1F3C221034A515CC840C4
:100FB00000BD000000100240BE52000870B50021C4
:100FC0000022002400230020134D696801F00C0565
:100FD000F5B1042D02D0082D19D101E00F4819E018
:100FE0000F4DC1F38346AB5D01F4803555B10A4D19
:100FF0006D68C5F340450B4E725D084D5D43B5FB12
:10100000F2F402E0084D03FB05F4204602E000BFC5
:10101000024800BF00BF70BD0010024000127A00FD
:101020009C520008AC52000800093D00F8B5044687
:101030000CB90120F8BD207800F00100002878D01C
:10104000F848406800F00C0004280CD0F5484068CF
:1010500000F00C00082811D1F248406800F48030FC
:10106000B0F5803F0AD1EF48006800F40030002856
:101070005FD0606800285CD10120DBE700BF6068BA
:10108000B0F5803F06D1E748006840F48030E5497C
:10109000086028E0606858B9E248006820F48030B1
:1010A000E04908600846006820F4802008601AE0E3
:1010B0006068B0F5A02F0BD1DA48006840F48020BA
:1010C000D84908600846006840F4803008600AE0AB
:1010D000D448006820F48030D2490860084600688F
:1010E00020F48020086000BF606888B1FFF750FDE1
:1010F000054606E0FFF74CFD401B642801D903209C
:1011000098E7C848006800F400300028F2D010E0EA
:10111000FFF73EFD054606E0FFF73AFD401B642859
:1011200001D9032086E7BF48006800F4003000289A
:10113000F2D1207800F00200022857D1B948406867
:1011400000F00C0050B1B748406800F00C000828CF
:1011500018D1B448406800F4803098B9B1480068AC
:1011600000F0020020B12069012801D0012061E7D0
:10117000AC48006820F0F800616940EAC100A94964
:10118000086033E02069E8B10120A7490860FFF753
:10119000FFFC054606E0FFF7FBFC401B022801D9D7
:1011A000032047E79F48006800F002000028F2D0C3
:1011B0009C48006820F0F800616940EAC100994944
:1011C000086013E0002098490860FFF7E1FC05463D
:1011D00006E0FFF7DDFC401B022801D9032029E7C8
:1011E0009048006800F002000028F2D1207800F05A
:1011F000080008282DD1A069B8B101208B490860EA
:10120000FFF7C6FC054606E0FFF7C2FC401B0228BC
:1012100001D903200EE78348406A00F0020000284D
:10122000F2D0012000F012FF13E000207F49086097
:10123000FFF7AEFC054606E0FFF7AAFC401B0228BC
:1012400001D90320F6E67748406A00F00200002842
:10125000F2D1207800F00400042873D100277148EF
:10126000C06900F0805070B900BF6E48C06940F09E
:1012700080506C49C8610846C06900F080500090F9
:1012800000BF00BF01276A48006800F48070B0B951
:101290006748006840F4807065490860FFF778FC93
:1012A000054606E0FFF774FC401B642801D90320C3
:1012B000C0E65F48006800F480700028F2D000BFEC
:1012C000E068012806D15748006A40F001005549FE
:1012D000086227E0E06858B95248006A20F001002F
:1012E000504908620846006A20F00400086219E0CC
:1012F000E06805280BD14B48006A40F004004949DA
:1013000008620846006A40F0010008620AE04548A9
:10131000006A20F00100434908620846006A20F094
:101320000400086200BFE068A0B1FFF731FC054689
:1013300009E0FFF72DFC401B41F28831884202D9B9
:10134000032077E622E03748006A00F00200002818
:10135000EFD012E0FFF71CFC054608E0FFF718FC91
:10136000401B41F28831884201D9032062E62D48B2
:10137000006A00F002000028F0D1012F05D12948B1
:10138000C06920F080502749C86100BFE069C8B338
:101390002448406800F00C00082860D0E06902286A
:1013A00048D1002020490866FFF7F2FB054606E019
:1013B000FFF7EEFB401B022801D903203AE619484B
:1013C000006800F000700028F2D1206AB0F5803F7C
:1013D00007D11448406820F40030A168084311493F
:1013E0004860D4E9080108430E49496821F47411A2
:1013F00008430C49486001200B490866FFF7C8FB09
:10140000054607E03DE0FFF7C3FB401B022801D97A
:1014100003200FE60348006800F000700028F2D0B7
:101420002FE00000001002400000424280044242CF
:1014300000700040002014490866FFF7A9FB05462C
:1014400006E0FFF7A5FB401B022801D90320F1E5C8
:101450000E48006800F000700028F2D111E0E06949
:10146000012800D1E6E50948466806F48031206A83
:10147000814204D106F47011606A814201D00120DA
:10148000D8E50020D6E500000000424200100240EE
:101490007047704710B504460CB9012010BD94F890
:1014A0003D0028B9002084F83C00204600F025F8D3
:1014B000022084F83D00211D206800F02DFE01204F
:1014C00084F8460000BF84F83E0001213F2001550A
:1014D000402001554120015500BF00BF012084F884
:1014E000420043200155442001554520015500BFCD
:1014F000012084F83D000020D0E77047014691F8B4
:101500003D00012801D001207047022081F83D00F4
:101510000868C06840F001000B68D860124B08688A
:1015200098420BD00868B0F1804F07D00F4B086885
:10153000984203D00E4B086898420CD10868806826
:1015400000F00702062A0CD00868006840F001008D
:101550000B68186005E00868006840F001000B683F
:1015600018600020D0E70000002C0140000400407B
:1015700000080040704770B504462068C5682068C0
:10158000066906F00200022819D105F002000228BF
:1015900015D1401F216808610120207720688069EB
:1015A00000F0030018B12046FFF7E4FF05E02046F5
:1015B00000F097F8204600F095F80020207706F01C
:1015C0000400042819D105F00400042815D1C043F3
:1015D00021680861022020772068806900F440704B
:1015E00018B12046FFF7C6FF05E0204600F079F865
:1015F000204600F077F80020207706F00800082841
:1016000019D105F00800082815D1C04321680861E8
:10161000042020772068C06900F0030018B120463C
:10162000FFF7A8FF05E0204600F05BF8204600F039
:1016300059F80020207706F01000102819D105F085
:101640001000102815D1C0432168086108202077B8
:101650002068C06900F4407018B12046FFF78AFF87
:1016600005E0204600F03DF8204600F03BF8002061
:10167000207706F0010048B105F0010030B16FF0AD
:10168000010021680861204600F02EF806F0800075
:10169000802809D105F08000802805D1C043216849
:1016A00008612046FFF7F4FE06F04000402809D10B
:1016B00005F04000402805D1C0432168086120465C
:1016C00000F01EF806F02000202809D105F02000C7
:1016D000202805D1C043216808612046FFF7D9FEC4
:1016E00070BD70477047000010B50446034920687C
:1016F000884201D1FFF752FA10BD0000002C0140D2
:101700007047704770B50446002520684069C0F3F3
:10171000C01594F84100212817D1B5B100BF00BF12
:101720002168143151E8001F21F080002168143134
:1017300041E80002002AF3D100BFA06B10B1A06BFA
:10174000FEF7BDFE204600F059FE20684069C0F358
:10175000801594F84200222817D1B5B100BF00BF10
:101760002168143151E8001F21F040002168143134
:1017700041E80002002AF3D100BFE06B10B1E06B3A
:10178000FEF79DFE204600F0F3FD002070BD70477F
:101790002DE9F84F0446206805682068C66820686F
:1017A00047694FF00009CA4605F00F09B9F1000F6B
:1017B0000AD105F0200038B106F0200020B1204603
:1017C00000F02FFEBDE8F88FB9F1000F7BD007F0D5
:1017D000010018B906F49070002874D005F00100DB
:1017E00030B106F4807018B1606C40F001006064A4
:1017F00005F0040030B107F0010018B1606C40F052
:101800000200606405F0020030B107F0010018B179
:10181000606C40F00400606405F0080048B106F018
:10182000200010B907F0010018B1606C40F008000A
:101830006064606C002845D005F0200028B106F0F7
:10184000200010B1204600F0ECFD20684069C0F394
:10185000801A606C00F0080010B9BAF1000F2CD0AB
:10186000204600F085FD2068406900F0400000B38C
:1018700000BF00BF2168143151E8001F21F0400073
:101880002168143141E80002002AF3D100BFE06B67
:1018900050B17748E16B4863E06BFEF73BFE88B1DF
:1018A000E06B416B88470DE02046FFF770FF09E0D1
:1018B00009E02046FFF76BFF04E02046FFF767FFD3
:1018C000002060647EE7206B012877D105F01000CE
:1018D000002873D006F010000028FAD000BF0020C6
:1018E000009020680068009020684068009000BF69
:1018F00000BF2068406900F0400000285FD0E06B26
:10190000006840681FFA80F8B8F1000F55D0A08D2C
:10191000404552DDA4F82E80E06B8069202843D03A
:1019200000BF00BF21680C3151E8001F21F4807016
:1019300021680C3141E80002002AF3D100BF00BF4A
:1019400000BF2168143151E8001F21F00100216817
:10195000143141E80002002AF3D100BF00BF00BFEC
:101960002168143151E8001F21F040002168143132
:1019700041E80002002AF3D100BF202084F8420091
:101980000020206300BF00BF21680C3151E8001F18
:1019900021F0100021680C3141E80002002AF3D147
:1019A00000BFE06BFEF78BFD02206063A08DE28D2F
:1019B000801A81B22046FFF7A4FE03E742E0A08D23
:1019C000E18D401A1FFA80F8E08DD0B3B8F1000F16
:1019D00037D000BF00BF21680C3151E8001F21F44F
:1019E000907021680C3141E80002002AF3D100BF59
:1019F00000BF00BF2168143151E8001F21F0010031
:101A00002168143141E80002002AF3D100BF2020F0
:101A100084F842000020206300BF00BF21680C3121
:101A200051E8001F21F0100021680C3141E800024C
:101A3000002AF3D100BF0220606341462046FFF731
:101A400060FEBFE605F0800030B106F0800018B1FE
:101A5000204600F047FEB5E605F0400030B106F044
:101A6000400018B1204600F0B9FCABE600BFA9E683
:101A70003522000810B504460CB9012010BDA0693C
:101A800000B100E000BF94F8410028B9002084F8BC
:101A90004000204600F02AF8242084F84100206805
:101AA000C06820F400502168C860204600F038FD6E
:101AB0002068006920F4904021680861206840692E
:101AC00020F02A00216848612068C06840F4005076
:101AD0002168C86000206064202084F8410084F8F8
:101AE00042000020606300BFC8E7000010B586B068
:101AF0000446002002900390049005905549206808
:101B0000884250D100BF5448806940F48040524917
:101B100088610846806900F48040019000BF00BFE2
:101B200000BF0846806940F004008861084680696B
:101B300000F00400019000BF00BF48150290022091
:101B400003900320059002A94448FEF78BFE4FF452
:101B50008060029000200390049002A93F48FEF7A5
:101B600081FE3F483F4908600020486000213D4811
:101B700081608021C1600021016141618161C16199
:101B8000FEF7EEFD08B1FEF797FC00BF3548E063B5
:101B9000446200BF002205212520FFF7AFF8252071
:101BA000FFF79CF853E03049206888424FD100BFCE
:101BB0002948C06940F400302749C8610846C06917
:101BC00000F40030019000BF00BF00BF08468069EC
:101BD00040F0040088610846806900F0040001902C
:101BE00000BF00BF04200290022003900320059054
:101BF00002A91A48FEF736FE082002900020039042
:101C0000049002A91548FEF72DFE15481430174917
:101C10000860002048600021144881608021C16074
:101C20000021016141618161C161FEF799FD08B147
:101C3000FEF742FC00BF0D48E063446200BF002293
:101C400005212620FFF75AF82620FFF747F806B0AF
:101C500010BD0000003801400010024000080140A3
:101C600058000240D4010020004400401802002027
:101C700070B504460D46164694F8420020280BD154
:101C800005B10EB9012070BD0020206332462946FF
:101C9000204600F0C3FCF6E70220F4E770477047E7
:101CA0002DE9F84F04460E46174699464FF0000AB4
:101CB00094F84100202850D106B117B90120BDE8A1
:101CC000F88F00206064212084F84100FEF760FF57
:101CD0008246A784E784A068B0F5805F04D12069BC
:101CE00010B90025B04602E035464FF000081EE06E
:101CF0005346002280212046CDF8009000F022FDBE
:101D000020B1202084F841000320D8E745B9B8F875
:101D10000000C0F308002168486008F1020803E0F1
:101D20002878216848606D1CE08C401EE084E08CBF
:101D30000028DDD15346002240212046CDF80090F6
:101D400000F000FD20B1202084F841000320B6E718
:101D5000202084F841000020B1E70220AFE770475F
:101D600008B500BF0E48406940F001000C494861C9
:101D70000846406900F00100009000BF00BF00224B
:101D800005210F20FEF7BAFF0F20FEF7A7FF002264
:101D900005211020FEF7B2FF1020FEF79FFF08BDBF
:101DA0000010024010B5194A0121084600F0E2FE79
:101DB00017490860174A0121084600F0DBFE164962
:101DC0000860164A0121084600F0D4FE1449086054
:101DD000144A0021144800F061FF14490860144AB5
:101DE0000021144800F05AFF13490860134A0021EB
:101DF000134800F053FF13490860134A00211348A9
:101E000000F04CFF1249086010BD00006C52000841
:101E1000140000207C520008180000208C5200089A
:101E20001C000020DC5100087F2000080400002076
:101E300000520008B52800080800002024520008BD
:101E4000752000080C0000204852000835290008C1
:101E50001000002000B585B0002001900290039092
:101E6000049000BF1648806940F020001449886142
:101E70000846806900F02000009000BF00BF00BF4E
:101E80000846806940F0040088610846806900F0D7
:101E90000400009000BF00BF012210210948FEF796
:101EA00071FE102001900120029000200390032079
:101EB000049001A90348FEF7D5FC05B000BD000061
:101EC000001002400008014010B50B480B490860A3
:101ED0004FF4E1304860002108488160C160016131
:101EE0000C21416100218161C161FFF7C3FD08B18F
:101EF000FEF7E2FA10BD0000003801404401002066
:101F000010B50B480B4908604FF41650486000218B
:101F100008488160C16001610C214161002181613B
:101F2000C161FFF7A7FD08B1FEF7C6FA10BD0000BA
:101F3000004400408C0100202DE9F04707460C4684
:101F400015463E48874246D10026681E205C46EA78
:101F50000026A81E205C064339484686207838496A
:101F600081F82100607881F82200A91E204600F047
:101F7000C6FCB0422ED1082D1ED13148808CA178EC
:101F800040EA01202E4988840846808CE178084385
:101F90002B498884084690F82700217940EA0120DF
:101FA000274981F82700084690F8280061790843FE
:101FB000234981F828000DE0072D0BD1A078204996
:101FC00081F82600E1781E4880F8281020791C4905
:101FD00081F827002FE01B4887422CD14FF00008E2
:101FE0000026B146B246207840EA0808607848EA00
:101FF0000028A0780643E07846EA0026207946EAE1
:102000000046607946EA006694F8069094F807A0C6
:10201000BAF1000F0CD0404600F000FD4FF4FA700A
:1020200000F01CFD484600F004FD07490E8001E069
:1020300000F00DFD00BFBDE8F08700008C0100201E
:10204000FA1B0020440100200000002008B50849C8
:102050000968C9084FF47A72B1FBF2F1414300916B
:1020600000BF00BF00994A1E00920029F9D108BDA7
:102070002C00002000BF012000F0F0FCFBE700BFB7
:10208000012000F0EBFCFBE710B54FF0E020006909
:1020900002F0FCFD012801D002F006F810BD00B5E9
:1020A0008FB0282105A8FEF74AF914216846FEF7EB
:1020B00046F90120059000040690002007900120B9
:1020C000099002200C90C1030D914FF4E0110E9184
:1020D00005A8FEF7ABFF08B1FEF7EEF90F20009060
:1020E00002200190002002904FF4806003900020B5
:1020F000049002216846FEF753FE08B1FEF7DCF9B2
:102100000FB000BD7047000010B50248FFF733FA6A
:1021100010BD00005C02002010B502681C4B984204
:1021200008D0B0F1804F05D01A4B984202D01A4B1C
:10213000984203D122F070024B681A43144B984224
:1021400008D0B0F1804F05D0124B984202D0124B0C
:10215000984203D122F44072CB681A4322F08003E4
:102160004C6943EA040202608B68C3620B688362B5
:10217000074B984201D10B69036301234361036953
:1021800003F001031BB1036923F00103036110BDD8
:10219000002C0140000400400008004010B50A482F
:1021A000FFF7B0FA09484078C01E094981F82000BD
:1021B000084690F820200549891CFEF751F805488B
:1021C000006800F03DFD10BD44010020C400002067
:1021D000FA1B00201C00002010B51348FFF792FAEC
:1021E0001148C06B00684068C0F140000F4981F899
:1021F0002000084690F820200D49FEF731F84021D4
:102200000B48FEF77AF8094890F820200146064866
:10221000FFF792FE40210548FEF76FF8402204497F
:102220000148FFF725FD10BD8C010020FA1B00209E
:102230000401002070B505466C6A0020E085E0844A
:102240002046FFF7A4FA70BD70B506460025746AF3
:1022500020684069C0F3C01594F84100212805D1D9
:1022600025B10020E084204600F0C8F820684069CD
:10227000C0F3801594F84200222805D125B1002032
:10228000E085204600F074F8606C40F01000606457
:102290002046FFF77CFA70BD70B505466C6A286869
:1022A000006800F02000002842D1E08500BF00BF98
:1022B00021680C3151E8001F21F4807021680C3135
:1022C00041E80002002AF3D100BF00BF00BF21682F
:1022D000143151E8001F21F001002168143141E858
:1022E0000002002AF3D100BF00BF00BF21681431F3
:1022F00051E8001F21F040002168143141E800023C
:10230000002AF3D100BF202084F84200206B01286E
:102310000ED100BF00BF21680C3151E8001F21F031
:10232000100021680C3141E80002002AF3D100BFFF
:1023300000206063206B012804D1A18D2046FFF7A7
:10234000E0F902E02046FFF7A9FC70BD70B5054634
:102350006C6A01206063206B012805D1A08D4108C3
:102360002046FFF7CEF902E02046FFF798FC70BD4B
:1023700000BF00BF02680C3252E8002F22F49071B7
:1023800002680C3242E80013002BF3D100BF00BFFB
:1023900000BF0268143252E8002F22F001010268E7
:1023A000143242E80013002BF3D100BF016B012966
:1023B0000ED100BF00BF02680C3252E8002F22F09D
:1023C000100102680C3242E80013002BF3D100BF69
:1023D000202180F8421000210163704710B50446A7
:1023E0002068C06820F040002168C860202084F880
:1023F00041002046FFF7B3FC002010BD00BF00BF26
:1024000002680C3252E8002F22F0C00102680C3240
:1024100042E80013002BF3D100BF202180F84110C7
:102420007047F8B5044694F84200222875D1A06898
:10243000B0F5805F0CD1206950B90025A66A2068EC
:102440004068C0F308003080A06A801CA06215E0DC
:10245000A56A0026A068B0F5805F03D0A06828B9FF
:10246000206918B920684068287004E02068406836
:1024700000F07F002870A06A401CA062E08D401E22
:1024800080B2E085002846D12068C06820F0200096
:102490002168C8602068C06820F480702168C86026
:1024A0002068406920F0010021684861202084F8FC
:1024B000420000206063206B012826D100202063A9
:1024C00000BF00BF21680C3151E8001F21F010004F
:1024D00021680C3141E80002002AF3D100BF2068D6
:1024E000006800F0100010280AD100BF0020009002
:1024F00020680068009020684068009000BF00BF1E
:10250000A18D2046FFF7FDF802E02046FFF7C6FB4D
:102510000020F8BD01E00020FBE70220F9E7000001
:1025200070B504462168096921F44051E2681143FD
:10253000226811612269A1681143626941EA0205BA
:102540002168C96841F20C62914329432268D16035
:102550002168496921F44071A269114322685161DF
:102560002D4A2168914202D1FEF718FD01E0FEF7E5
:1025700005FD00EBC00101EB001162689200B1FBA8
:10258000F2F100EBC00202EB001263689B00B2FBA9
:10259000F3F26423B2FBF3F202EBC20303EB021289
:1025A000A1EB8201322202EB01116422B1FBF2F1B4
:1025B00001F0F00100EBC00202EB001263689B0027
:1025C000B2FBF3F26423B2FBF3F201EB021200EB75
:1025D000C00101EB001163689B00B1FBF3F100EB5C
:1025E000C00303EB00136668B600B3FBF6F3642682
:1025F000B3FBF6F303EBC30606EB0313A1EB830176
:10260000322303EB01116423B1FBF3F101F00F015D
:1026100011442268916070BD0038014077B581B0E7
:10262000044615460298A062A58500206064222019
:1026300084F842002848E16B88622848E16BC86250
:102640002748E16B08630020E16B486302AE326803
:102650002368191D2B46E06BFEF7B6F800BF00207B
:10266000009020680068009020684068009000BFDB
:1026700000BF206970B100BF00BF21680C3151E874
:10268000001F41F4807021680C3141E80002002AEB
:10269000F3D100BF00BF00BF2168143151E8001F13
:1026A00041F001002168143141E80002002AF3D111
:1026B00000BF00BF00BF2168143151E8001F41F086
:1026C00040002168143141E80002002AF3D100BF24
:1026D000002004B070BD0000992200084D230008BE
:1026E00049220008014691F84100212828D1886834
:1026F000B0F5805F0BD1086948B90A6A1088C0F349
:1027000008000B685860086A801C086205E00B6AC4
:10271000581C086218780B685860C88C401E80B23C
:10272000C88458B90868C06820F080000B68D86079
:102730000868C06840F040000B68D860002070470F
:102740000220FCE72DE9F84304460D46174698465B
:10275000089E31E0701C70B3FEF71AFAA0EB080077
:10276000B04200D816B90320BDE8F8832068C068DD
:1027700000F00400F8B1802D1ED0402D1CD0206840
:102780000068C0F3C000B0B100BF00200090206816
:102790000068009020684068009000BF00BF20469D
:1027A000FFF7E6FD0820606400BF002084F84000C9
:1027B00000BF0120D8E7FFE7206800682840A84252
:1027C00001D1012000E00020B842C3D00020CBE7B7
:1027D00008B50D48FEF7DCFF0B480068006800F004
:1027E000100010280ED100BF00200090064800689D
:1027F00000680090044800684068009000BF00BF77
:10280000FFF7CCFC08BD00004401002008B50D48CE
:10281000FEF7BEFF0B480068006800F010001028AB
:102820000ED100BF002000900648006800680090AC
:10283000044800684068009000BF00BFFFF7CCFC70
:1028400008BD00008C01002070B504460D4600262E
:102850000120154908700620487020128870CC703D
:10286000281208714D7106210F4800F048F80646FD
:102870000D498E713012C871002005E00A49095CCB
:102880000A4A1154411CC8B20828F7DB012000F0A5
:102890007BF86423082205490548FFF701FA002068
:1028A00000F072F870BD0000B00000206E1C002027
:1028B0008C01002000BF012000F0D0F8FBE70000F1
:1028C00002480068C0F30220704700000CED00E0F1
:1028D00010B5002804DB0A07130E054A135406E05E
:1028E0000A07140E034A00F00F031B1FD45410BD37
:1028F00000E400E018ED00E0EFF30580704730B52C
:1029000002460B464FF6FF70002110E0545C604019
:10291000002409E000F0010525B140104AF201054C
:10292000684000E04010641C082CF3DB491C99420D
:10293000ECDB30BD00BF4FF0FF310F48006800F006
:10294000E3F804469CB90D4890F8202001460C4855
:10295000FFF7F2FA34210948FDF7CFFC402109487E
:10296000FDF7CBFC402207490548FFF781F901201C
:1029700000F074F8DFE700001C000020FA1B0020C4
:1029800044010020C400002010B50446012C05D1EC
:10299000012210210548FEF7F5F805E024B90022D0
:1029A00010210248FEF7EEF810BD000000080140BB
:1029B000FEF700F9FFF773FBFFF7D2F9FFF74AFACA
:1029C000FFF782FAFFF79CFA10480068C06840F0F1
:1029D00010000E490968C8600D480068C06840F0E2
:1029E00010000B490968C86040220A490748FFF7F0
:1029F0003FF9402208490648FFF73AF900F03EF84F
:102A0000FFF7D0F900F050F800BFFEE744010020C6
:102A10008C010020C40000200401002010B50446F1
:102A2000002C00DC0024214642F20100FFF70CFFDD
:102A300010BD10B50446012C04D107214003FFF757
:102A400003FF03E008218802FFF7FEFE10BD10B56A
:102A500006214FF40050FFF7F7FE10BD70B5054694
:102A6000FFF74AFF10B16FF0050404E0002415B130
:102A7000284601F00DF9204670BD000010B5FFF7A3
:102A80003BFF10B16FF0050409E00648006820B96B
:102A9000012004490860002401E04FF0FF34204683
:102AA00010BD00008000002070B5FFF725FF10B1B9
:102AB0006FF005041FE011480068012819D100BF1C
:102AC000801F0021002804DB0A07130E0C4A135450
:102AD00006E00A07150E0B4A00F00F031B1FD55422
:102AE00000BF00BF02200549086001F0B5F90024CD
:102AF00001E04FF0FF34204670BD00008000002050
:102B000000E400E018ED00E0F8B504460D46264666
:102B100000270EB93F1F29E0FFF7EEFED0B115B137
:102B20006FF0030722E0002000906A460021304643
:102B300001F094FE012802D06FF0020716E0009821
:102B4000A0B14FF080500A490860BFF34F8FBFF328
:102B50006F8F0BE02946304601F0E6FE012805D0D4
:102B600015B16FF0010701E06FF002073846F8BDBC
:102B700004ED00E02DE9F84305460F4614464FF0FA
:102B80000008FFF7B9FE002857D1002D55D0AF42FD
:102B900053D8461E64B1A06820B1E068502801D324
:102BA000012606E0A06820B9E06810B9002600E020
:102BB0000026701C002840D0012D23D1012E09D100
:102BC00003200090002211460120A36801F013FBAE
:102BD000804605E003220021012001F0DFFA804653
:102BE000B8F1000F1CD0DFB100231A461946404649
:102BF00001F0BEFB012813D0404600F0F1FF4FF07A
:102C000000080DE0012E06D139462846A26801F0E1
:102C100093FA804604E03946284601F05FFA804680
:102C2000B8F1000F09D014B1D4F8009001E04FF0D2
:102C300000094946404600F0BDFF4046BDE8F88324
:102C4000F8B50446254600260DB9361F22E0FFF7E9
:102C500053FEA8B1002000906946284601F0DAFC36
:102C6000012802D06FF0020614E0009890B14FF0F6
:102C7000805009490860BFF34F8FBFF36F8F09E0A1
:102C800000231A461946284601F072FB012801D09C
:102C90006FF002063046F8BD04ED00E02DE9FF4775
:102CA00080468946144600200390FFF725FE002841
:102CB0004ED1B8F1000F4BD0802618258246471E12
:102CC00044B3206808B1D4F800A0A06900B1A56998
:102CD0002DB1382D03D8207900F0010018B1002063
:102CE00004B0BDE8F087606908B160698608A06833
:102CF00040B1E0685C2805D3206918B1606908B16B
:102D0000012708E0A06830B9E06820B9206910B94F
:102D1000002700E00027012F0CD12169A0684B4655
:102D20003246CDE9005102905146404601F050FF35
:102D300003900DE067B903A8B2B24B465146CDE906
:102D40000050404601F012FF012801D000200390FE
:102D50000398C5E72DE9F04105460E461648076879
:102D600016480068001D00F0D9FD681C38B936B15E
:102D700012480168091D124800F026FE1AE07C196D
:102D80000E4800684460BC4207D20C480168091D27
:102D90000C48006800F0FEFD0CE008480168091DC1
:102DA0000948006800F0F6FD08480068844201D236
:102DB00006480460BDE8F081440000203000002097
:102DC000940700203800002034000020600000201C
:102DD00010B5044600F004FE24480068401C234956
:102DE00008602348006840B921480460084600682C
:102DF00001280DD100F006FA0AE01E48006838B933
:102E00001B480068C06AE16A884201D8184804601B
:102E100019480068401C184908600846006860644A
:102E20001649E06A0968884202D91449E06A0860D4
:102E3000E16A01EB8101124A02EB8100211D00F0E1
:102E4000C3FD00F0F7FD0B48006868B10848006852
:102E5000C06AE16A884207D24FF080500949086091
:102E6000BFF34F8FBFF36F8F10BD000040000020F5
:102E7000300000204C0000205C00002048000020B2
:102E8000E402002004ED00E008B500F0A9FD1248BE
:102E90000068E8B9114800F06DFD114800F06AFDC6
:102EA0000E48104908600E480F49086000200F4B7B
:102EB0000F4A102100900A2001F09DF90649086090
:102EC0000846006820B10BA10348006800F072FEBC
:102ED00000F0B0FD08BD000074000020A80700202D
:102EE000BC0700206C00002070000020D0070020EC
:102EF00020080020546D72510000000010B516E04B
:102F000000F06EFD0C48C068C468201D00F006FD8E
:102F10000A480068401E0949086009480068401EC8
:102F20000749086000F086FD204600F05FF804487D
:102F300000680028E4D110BD800700204000002078
:102F40003C00002070B504460D46206C70B1216C29
:102F5000E0680144E160D4E90210884201D32168AD
:102F6000E1602846226CE168FDF77AF970BD2DE931
:102F7000F04104460F4615464FF00008A66B206C42
:102F800048B9206800282CD1A06801F037FF80469E
:102F90000020A06025E07DB93946226C6068FDF70D
:102FA0005FF9216C606808446060D4E901018842DF
:102FB00017D32068606014E03946226CE068FDF7A2
:102FC0004FF9216CE068411AE1602168E0688842AD
:102FD00003D2216CA068411AE160022D01D106B133
:102FE000761E701CA0634046BDE8F08110B5044613
:102FF00094F8590030B9206B00F03AFD204600F0FB
:1030000037FD1AE094F85900012803D1204600F05A
:103010002FFD12E094F85900022801D1012000E0B0
:10302000002050B900BF502080F31188BFF34F8FAC
:10303000BFF36F8F00BF00BFFEE710BD01464A6AB5
:1030400022B10A6B1268C2F1380000E0002070471C
:103050000146084A126812680AB9012200E00022FB
:103060000A600A6822B9034A1268D268106800E050
:10307000002070476C00002030B54FF440631748C3
:1030800000F007042CB1C01D20F00700134C041BF6
:103090001B1B0246124C22600024114D6C60D0189C
:1030A000083820F007000F4C206000240D4D2D68DB
:1030B0006C600C4D2D682C601146441A4C60094C14
:1030C00024680C60084D4C682C60084D4C682C60DE
:1030D0004FF00044064D2C6030BD0000780F0020FA
:1030E000840000208C00002094000020900000202C
:1030F000A000002000BFFFF701FF0648006801287C
:10310000F9D94FF0805004490860BFF34F8FBFF3E7
:103110006F8FF0E7E402002004ED00E02DE9F041BC
:1031200006460D4617469846069C0DB9246000E0F9
:103130002760E66325640121204601F0CDF884F87C
:103140004C80BDE8F0812DE9F05F82460E46904646
:103150009B460A9F0C9C4FEA8801A522206BFDF735
:10316000C4F8A8F10100216B01EB800929F00709DF
:1031700009F0070008B9012000E0002050B900BFA5
:10318000502080F31188BFF34F8FBFF36F8F00BFC4
:1031900000BFFEE786B1002507E0715D04F1340051
:1031A0004155705D00B902E06D1C102DF5D300BFD4
:1031B00000214320015502E0002084F83400382F1C
:1031C00000D33727E762E76400202065201D00F068
:1031D000DEFB04F1180000F0DAFB2461C7F13800CF
:1031E000A06164620020606584F858005A46514628
:1031F000484600F081FB20600B9808B10B980460F2
:10320000BDE8F09F10B5002407E004EB84010F4AED
:1032100002EB810000F0AEFB641C382CF5D30C48A7
:1032200000F0A8FB0B4800F0A5FB0B4800F0A2FB48
:103230000A4800F09FFB0A4800F09CFB044809493B
:10324000086004480849086010BD0000E40200203E
:1032500044070020580700206C070020800700204A
:1032600094070020340000203800002010B50146EB
:10327000164800E0006803688B42FBD302464368AF
:1032800013448B4204D143684C6823444360014695
:103290000A464B6813440468A34211D10C4C0368DE
:1032A0002468A34208D04B680468646823444B60D8
:1032B00003681B680B6005E0054B1B680B6001E0B1
:1032C00003680B60884200D0016010BD84000020BC
:1032D0008C0000202DE9F04104460D4616461F469D
:1032E0004FF0000865602461B5420CD8F01BA1695D
:1032F000884202D34FF0010811E0211D09480068FF
:1033000000F048FB0BE0BE4204D2BD4202D34FF0B6
:10331000010804E0211D0448006800F03BFB404622
:10332000BDE8F081700000206C00002070B50546FB
:1033300000F056FBA86B08B9012400E0002400F05F
:1033400079FB204670BD70B5054600F049FBA86BBF
:10335000E96B884201D1012400E0002400F06AFBFF
:10336000204670BDF8B505460F461A480068C0688B
:10337000C468201D00F0D2FA94F8280000F0040080
:10338000E8B1A06941192B463A462046FFF7A2FF53
:10339000D8B1002003462A4601460090204601F09D
:1033A000DBFE064656B900BF502080F31188BFF3FC
:1033B0004F8FBFF36F8F00BF00BFFEE705E094F8AB
:1033C000280020F0010084F828002046216A884760
:1033D000F8BD00006C000020F0B587B0A0E00398B5
:1033E000002811DA04AE56B900BF502080F31188CE
:1033F000BFF34F8FBFF36F8F00BF00BFFEE7D6E96B
:103400000020B168904700BF03980028E6DB059CC8
:10341000606908B9012000E0002010B9201D00F00B
:103420007DFA02A800F0DEF8054603980A2875D256
:10343000DFE800F009050739416306083A4200BF9A
:1034400000BF00BF00BF94F8280040F0010084F8DE
:1034500028000498A269811803462A462046FFF7EF
:1034600039FFF8B12046216A884794F8280000F017
:103470000400B8B1002000900498A169421800230C
:103480001946204601F068FE074657B900BF502094
:1034900080F31188BFF34F8FBFF36F8F00BF00BF62
:1034A000FEE700BF3BE000BF94F8280020F00100D9
:1034B00084F8280033E000BF94F8280040F00100B1
:1034C00084F828000498A061A06908B1012000E0F8
:1034D000002050B900BF502080F31188BFF34F8FF8
:1034E000BFF36F8F00BF00BFFEE7A06941192B46F5
:1034F0002A462046FFF7EEFE11E094F8280000F07F
:10350000020018B9204600F0B3FA05E094F828004C
:1035100020F0010084F8280001E0FFE700BF00BFB1
:10352000002203A90448006801F0E4F800287FF4B1
:1035300056AF07B0F0BD000074000020F8B5054696
:103540000C4600F0E5FC684600F04CF80646009892
:1035500020BB44B9B54206D801F040FD31462846AB
:10356000FFF700FF1CE03CB10E480068006808B996
:10357000012000E000200446A91B22460A480068FA
:1035800000F060FB01F02AFD50B94FF08050074970
:103590000860BFF34F8FBFF36F8F01E001F01EFD96
:1035A000F8BD0000700000207400002004ED00E071
:1035B0000A490968096809B9012100E0002121B11F
:1035C0004FF0FF31064A116006E004490968C968F6
:1035D000C868034A41681160704700003400002049
:1035E0006000002070B5044601F060FB0546074806
:1035F0000068854204D200F00BF80120206001E051
:103600000020206001480560284670BD7C00002035
:103610002DE9F84334E025480068C0680568234870
:103620000068C068C468201D00F078F92046216A4F
:10363000884794F8280000F0040008B3A0694619F0
:10364000AE4207D966602461211D1848006800F069
:10365000A1F915E0002003462A46014600902046C5
:1036600001F07AFD074657B900BF502080F311885A
:10367000BFF34F8FBFF36F8F00BF00BFFEE700BFE8
:103680000A480068006808B9012000E0002000280E
:10369000C1D00648D0F8008005480068034908609A
:1036A0000348C0F80080BDE8F88300006C000020EB
:1036B000700000200E480068401C08B9012000E09E
:1036C000002050B900BF502080F31188BFF34F8F06
:1036D000BFF36F8F00BF00BFFEE700BF502080F335
:1036E0001188BFF34F8FBFF36F8F00BF00BFFEE79E
:1036F000A400002008B500BF6846FFF7A9FC0446F7
:1037000020460099FFF71AFFFFF766FEF4E770B551
:10371000044600F065F994F9455010E0606A08B974
:10372000012000E0002038B904F1240001F00AFC77
:1037300018B100F0E7FA00E003E0681E45B2002D82
:10374000ECDC00BFFF2084F8450000F073F900F0C6
:1037500047F994F9445010E0206908B9012000E0CD
:10376000002048B904F1100001F0ECFB08B100F0B2
:10377000C9FA681E45B200E001E0002DECDC00BF94
:10378000FF2084F8440000F055F970BD2DE9F041A8
:1037900004464FF0000800F0BBFB4948006808B938
:1037A000FFF76AFC474800682040002870D1D4B178
:1037B000083404F00700B0B104F00700C0F10800BD
:1037C000044404F0070008B9012000E0002050B9CB
:1037D00000BF502080F31188BFF34F8FBFF36F8F6E
:1037E00000BF00BFFEE7002C52D03748006884427B
:1037F0004ED8364E3046056801E02E462D68686882
:10380000A04202D228680028F7D12D4800688542DE
:103810003ED0306800F10808286830606868001BF6
:10382000102819D92F1907F0070008B9012000E066
:10383000002050B900BF502080F31188BFF34F8F94
:10384000BFF36F8F00BF00BFFEE76868001B7860A2
:103850006C603846FFF70AFD1B4968680968081A5A
:10386000194908600846006819490968884203D266
:1038700015480068164908601249686809680843D5
:1038800068600020286013480068401C11490860E7
:1038900001F0A4FB08F0070008B9012000E00020B7
:1038A00050B900BF502080F31188BFF34F8FBFF392
:1038B0006F8F00BF00BFFEE74046BDE8F08100000B
:1038C0008C000020A0000020900000208400002038
:1038D00094000020980000200648006830B1054997
:1038E000096801F15000096D491C01600148006838
:1038F0007047000030000020001F4FF0807303600D
:10390000001F21F001030360001F034B0360143804
:103910000260203870470000B536000801460A6989
:10392000D1E901309860D1E90103586050688842BC
:1039300001D188685060002008611068401E106046
:1039400010687047034B0360034B0B6080231360C8
:1039500070470000C00800201C090020034B0360D2
:10396000034B0B604FF48073136070471C0B0020F7
:10397000780B002000F1080141604FF0FF318160B9
:1039800000F10801C1600161002101607047002160
:103990000161704710B502460B685C1C0CB91069D8
:1039A00007E002F1080000E04068446824689C4297
:1039B000FAD944684C604C68A160886041600A6133
:1039C0001468641C146010BD42684A6093688B6080
:1039D000936859609160086103685B1C03607047DD
:1039E00000BF502080F31188BFF34F8FBFF36F8F5C
:1039F00000BF0E480068401C0C490860084600687B
:103A0000012812D10A480068C0B208B9012000E0BC
:103A1000002050B900BF502080F31188BFF34F8FB2
:103A2000BFF36F8F00BF00BFFEE77047A400002008
:103A300004ED00E00D48006850B900BF502080F34D
:103A40001188BFF34F8FBFF36F8F00BF00BFFEE73A
:103A500006480068401E054908600846006820B90D
:103A6000002080F3118800BF00BF7047A400002031
:103A700070B506463546002E44D0083D2C462249F6
:103A800060680968084008B1012000E0002050B9D2
:103A900000BF502080F31188BFF34F8FBFF36F8FAB
:103AA00000BF00BFFEE7206808B9012000E0002049
:103AB00050B900BF502080F31188BFF34F8FBFF380
:103AC0006F8F00BF00BFFEE70F49606809680840BC
:103AD000C0B12068B0B90C4960680968884360606B
:103AE00000F016FA09496068096808440749086047
:103AF0002046FFF7BBFB06480068401C04490860ED
:103B000001F06CFA70BD0000A000002090000020C1
:103B10009C00002000204FF0E021086188610648E9
:103B200000684FF47A71B0FBF1F0401E4FF0E021D5
:103B300048610720086170472C00002070B5FCF731
:103B40006BFB0446102C16D304F1E02090F8F053E0
:103B500015480078854201DB012000E0002050B9C3
:103B600000BF502080F31188BFF34F8FBFF36F8FDA
:103B700000BF00BFFEE70D48006800F4E0600C499C
:103B80000968884201D8012000E0002050B900BF38
:103B9000502080F31188BFF34F8FBFF36F8F00BFAA
:103BA00000BFFEE770BD0000A80000200CED00E0A3
:103BB000AC000020024600200BE0084B53F83030E8
:103BC00033B9064B43F8301003EBC0035A6002E0F0
:103BD000401C0828F1D300BF70470000A402002059
:103BE00070B50446254655B900BF502080F31188B2
:103BF000BFF34F8FBFF36F8F00BF00BFFEE72846B4
:103C000000F008F895F8460010B92846FFF730FF95
:103C100070BD0000014600200EE0094A02EBC00220
:103C200052688A4207D10022054B43F8302003EB4B
:103C3000C0035A6002E0401C0828EED300BF704762
:103C4000A40200202DE9F04105460E4617462C46F9
:103C5000FFF7C6FE94F94400401C10B9002084F818
:103C6000440094F94500401C10B9002084F8450038
:103C7000FFF7E0FEA06B28B93A46314604F1240074
:103C800000F062F82046FFF742FDBDE8F081000039
:103C900070B504460025D4B11248006808B9012067
:103CA00000E0002050B900BF502080F31188BFF31E
:103CB0004F8FBFF36F8F00BF00BFFEE700F028F902
:103CC00000212046FFF746F801F088F905463DB986
:103CD0004FF0805004490860BFF34F8FBFF36F8FE0
:103CE00070BD00006800002004ED00E00349096891
:103CF00001600349096841607047000058000020D6
:103D00004400002001200149086070475400002051
:103D100070B504460D4654B900BF502080F3118899
:103D2000BFF34F8FBFF36F8F00BF00BFFEE70548A3
:103D3000016818312046FFF72DFE01212846FFF7C4
:103D400009F870BD3000002070B505460E461446D7
:103D500055B900BF502080F31188BFF34F8FBFF3D8
:103D60006F8F00BF00BFFEE7064801681831284684
:103D7000FFF72AFE0CB14FF0FF3621463046FEF722
:103D8000E9FF70BD300000202DE9F04706460F46E0
:103D900034464FF00109002E55D0206D50B900BFB8
:103DA000502080F31188BFF34F8FBFF36F8F00BF98
:103DB00000BFFEE7E06CB84201D23D4600E0E56C92
:103DC000E06AA8423FD0206D01283CD11F4800681E
:103DD000844201D0012000E0002050B900BF5020F3
:103DE00080F31188BFF34F8FBFF36F8F00BF00BF09
:103DF000FEE7D4F82C80E562A06900F0004010B91D
:103E0000C5F13800A06108EB8801114A02EB81017D
:103E10006069884201D1012000E0002098B1201D96
:103E2000FFF77CFD0B49E06A0968884202D909491D
:103E3000E06A0860E16A01EB8101054A02EB81005A
:103E4000211DFFF7C1FDBDE8F08700003000002014
:103E5000E40200204800002010B586B00020059044
:103E6000049003AA04A905A8FFF76CFD0022DDE970
:103E700004101346CDE9002102901EA11F48039AA9
:103E800000F0A6FE1E4908600846006808B101243B
:103E900000E00024012C02D101F022F90446012C9B
:103EA00015D100BF502080F31188BFF34F8FBFF3AF
:103EB0006F8F00BF4FF0FF30124908600120124998
:103EC000086000201149086000F072F810E0601CE2
:103ED00008B1012000E0002050B900BF502080F35D
:103EE0001188BFF34F8FBFF36F8F00BF00BFFEE796
:103EF00006B010BD49444C4500000000F5300008F4
:103F000064000020600000204C00002044000020DD
:103F100002480068401C01490860704768000020A2
:103F20001E48006818B101201D49086034E00020D7
:103F30001B4908601B4801680CE051B900BF5020C4
:103F400080F31188BFF34F8FBFF36F8F00BF00BFA7
:103F5000FEE7491E01EB8100134A52F8200008B920
:103F6000012000E000200028E7D101EB81020E4B88
:103F700003EB820042685268426000F10802436825
:103F8000934202D14268526842604268D268074B4D
:103F90001A600448016000BF7047000068000020FC
:103FA0005400002048000020E402002030000020DF
:103FB0001CB53849084600780190FF200A46107069
:103FC0000846007800909DF8000000F0F0009DF891
:103FD0000020904201D1012000E0002050B900BF34
:103FE000502080F31188BFF34F8FBFF36F8F00BF56
:103FF00000BFFEE79DF8000000F05000264A107058
:104000000720264A106009E024480068401E234A21
:1040100010609DF800004006000E00909DF8000022
:1040200000F080008028EFD01C480068C0F1070035
:10403000042801D1012000E0002050B900BF502029
:1040400080F31188BFF34F8FBFF36F8F00BF00BFA6
:10405000FEE7124800680002104A1060104600880F
:1040600000F4E06010600B4A019810700C48006882
:1040700040F470000A4908600846006840F070404B
:104080000860FFF747FD002006490860FCF78EF83E
:1040900000201CBD00E400E0A8000020AC000020CF
:1040A00020ED00E0A400002010B500BF502080F3F8
:1040B0001188BFF34F8FBFF36F8F00BF00F0FCFD7F
:1040C00018B14FF080500449086000BF002080F311
:1040D000118800BF10BD000004ED00E070B505467A
:1040E0000E460DB1012000E0002050B900BF502065
:1040F00080F31188BFF34F8FBFF36F8F00BF00BFF6
:10410000FEE7AE4201D8012000E0002050B900BF18
:10411000502080F31188BFF34F8FBFF36F8F00BF24
:1041200000BFFEE702220021284600F037F80446CF
:1041300004B1A663204670BDF8B505460E46174685
:104140000DB1012000E0002050B900BF502080F3E5
:104150001188BFF34F8FBFF36F8F00BF00BFFEE723
:10416000AE4201D8012000E0002050B900BF50202D
:1041700080F31188BFF34F8FBFF36F8F00BF00BF75
:10418000FEE702203B46002211460090284600F040
:1041900032F8044604B1A6632046F8BD2DE9F84381
:1041A00005460E4617460DB1012000E0002050B92B
:1041B00000BF502080F31188BFF34F8FBFF36F8F84
:1041C00000BF00BFFEE705FB06F808F15000FFF74F
:1041D000DDFA044664B1A14609F15009002084F8D3
:1041E00046003B464A46314628460094FEF796FF75
:1041F0002046BDE8F8832DE9F84380460E46174671
:104200001D46DDF82090B8F1000F01D0012000E03C
:10421000002050B900BF502080F31188BFF34F8FAA
:10422000BFF36F8F00BF00BFFEE70DB1012000E0BC
:10423000002050B900BF502080F31188BFF34F8F8A
:10424000BFF36F8F00BF00BFFEE707B10EB10120C3
:1042500000E0002050B900BF502080F31188BFF368
:104260004F8FBFF36F8F00BF00BFFEE707B90EB9D6
:10427000012000E0002050B900BF502080F31188D9
:10428000BFF34F8FBFF36F8F00BF00BFFEE750201B
:1042900000900098502801D1012000E0002050B982
:1042A00000BF502080F31188BFF34F8FBFF36F8F93
:1042B00000BF00BFFEE700BF2C464CB1012084F8D0
:1042C00046004B463A46314640460094FEF726FFEC
:1042D0002046BDE8F883000070B505460E462C4622
:1042E00054B900BF502080F31188BFF34F8FBFF344
:1042F0006F8F00BF00BFFEE7FFF772FBD4E90F121C
:10430000206801FB0200A0600020A06320686060BC
:10431000E06B401E226C216800FB0211E160FF206F
:1043200084F8440084F845009EB9206908B901204A
:1043300000E00020A8B904F1100000F003FE80B1F5
:104340004FF0805009490860BFF34F8FBFF36F8F64
:1043500007E004F11000FFF70DFB04F12400FFF764
:1043600009FBFFF767FB012070BD000004ED00E0D2
:104370002DE9FF4383B0064688461D464FF00009ED
:10438000344654B900BF502080F31188BFF34F8FDB
:10439000BFF36F8F00BF00BFFEE7B8F1000F01D180
:1043A000206C08B9012000E0002050B900BF502067
:1043B00080F31188BFF34F8FBFF36F8F00BF00BF33
:1043C000FEE7022D02D1E06B012801D1012000E0BF
:1043D000002050B900BF502080F31188BFF34F8FE9
:1043E000BFF36F8F00BF00BFFEE700F04FFC08B9BE
:1043F000059808B9012000E0002050B900BF502006
:1044000080F31188BFF34F8FBFF36F8F00BF00BFE2
:10441000FEE700BFFFF7E4FAA06BE16B884201D32F
:10442000022D28D12A4641462046FEF7A0FD074628
:10443000606A08B9012000E0002068B904F1240096
:1044400000F080FD88B14FF0805032490860BFF322
:104450004F8FBFF36F8F08E03FB14FF080502D4971
:104460000860BFF34F8FBFF36F8FFFF7E3FA0120B0
:1044700007B0BDE8F083059818B9FFF7DBFA002014
:10448000F6E7B9F1000F04D101A8FFF72FFC4FF0B8
:104490000109FFF7CFFAFFF73BFDFFF7A1FA94F907
:1044A0004400401C10B9002084F8440094F94500F1
:1044B000401C10B9002084F84500FFF7BBFA05A99D
:1044C00001A800F00DFBF0B92046FEF73CFFA0B1BB
:1044D00004F110000599FFF71BFC2046FFF717F9C0
:1044E00000F07CFD002895D14FF08050094908600C
:1044F000BFF34F8FBFF36F8F8CE72046FFF707F9AD
:1045000000F06CFD86E72046FFF701F900F066FD3C
:104510000020ADE704ED00E02DE9F84F07468A469C
:1045200090461E463C4654B900BF502080F3118887
:10453000BFF34F8FBFF36F8F00BF00BFFEE7BAF12D
:10454000000F01D1206C08B9012000E0002050B913
:1045500000BF502080F31188BFF34F8FBFF36F8FE0
:1045600000BF00BFFEE7022E02D1E06B012801D19F
:10457000012000E0002050B900BF502080F31188D6
:10458000BFF34F8FBFF36F8F00BF00BFFEE7FFF792
:10459000D5FA00BF5021EFF3118081F31188BFF3EA
:1045A0004F8FBFF36F8F00BF0546A06BE16B884252
:1045B00001D3022E25D194F945B0A06B009032466C
:1045C00051462046FEF7D3FC0BF1010088B9606A22
:1045D00008B9012000E0002050B904F1240000F0E7
:1045E000B1FC28B1B8F1000F02D00120C8F80000DA
:1045F00004E00BF1010040B284F845004FF00109DE
:1046000001E04FF0000900BF85F3118800BF484664
:10461000BDE8F88F2DE9F04706460F46344654B9F9
:1046200000BF502080F31188BFF34F8FBFF36F8F0F
:1046300000BF00BFFEE7206C08B9012000E00020A9
:1046400050B900BF502080F31188BFF34F8FBFF3E4
:104650006F8F00BF00BFFEE7206808B9A06808B9E7
:10466000012000E0002050B900BF502080F31188E5
:10467000BFF34F8FBFF36F8F00BF00BFFEE7FFF7A1
:104680005DFA00BF5021EFF3118081F31188BFF371
:104690004F8FBFF36F8F00BF0546D4F83890E06BA3
:1046A00048451ED994F945A009F10100A0630AF11B
:1046B000010070B9606A08B9012000E0002068B903
:1046C00004F1240000F03EFC40B13FB1012038600D
:1046D00004E00AF1010040B284F845004FF00108FF
:1046E00001E04FF0000800BF85F3118800BF40468D
:1046F000BDE8F0872DE9F74183B005460E464FF03F
:1047000000082C4654B900BF502080F31188BFF335
:104710004F8FBFF36F8F00BF00BFFEE70EB9206C55
:1047200008B9012000E0002050B900BF502080F3FC
:104730001188BFF34F8FBFF36F8F00BF00BFFEE73D
:1047400000F0A4FA08B9059808B9012000E000209B
:1047500050B900BF502080F31188BFF34F8FBFF3D3
:104760006F8F00BF00BFFEE700BFFFF739F9A76BEF
:10477000F7B131462046FEF7E5FB781EA0632069BD
:1047800008B9012000E0002060B904F1100000F039
:10479000D9FB38B14FF080502F490860BFF34F8FDD
:1047A000BFF36F8FFFF746F9012006B0BDE8F08137
:1047B000059818B9FFF73EF90020F6E7B8F1000FA9
:1047C00004D101A8FFF792FA4FF00108FFF732F980
:1047D000FFF79EFBFFF704F994F94400401C10B961
:1047E000002084F8440094F94500401C10B90020D2
:1047F00084F84500FFF71EF905A901A800F070F93B
:10480000F0B92046FEF792FDA0B104F1240005990D
:10481000FFF77EFA2046FEF77AFF00F0DFFB002864
:10482000A3D14FF080500C490860BFF34F8FBFF306
:104830006F8F9AE72046FEF76AFF00F0CFFB94E700
:104840002046FEF764FF00F0C9FB2046FEF76EFD30
:1048500000288AD00020A8E704ED00E02DE9F05FF1
:10486000064689461746344654B900BF502080F3A7
:104870001188BFF34F8FBFF36F8F00BF00BFFEE7FC
:10488000B9F1000F01D1206C08B9012000E000202F
:1048900050B900BF502080F31188BFF34F8FBFF392
:1048A0006F8F00BF00BFFEE7FFF748F900BF502140
:1048B000EFF3118081F31188BFF34F8FBFF36F8F38
:1048C00000BF0546D4F838A0BAF1000F22D094F901
:1048D00044B049462046FEF735FBAAF10100A0632B
:1048E0000BF1010070B9206908B9012000E0002037
:1048F00068B904F1100000F025FB40B13FB1012080
:10490000386004E00BF1010040B284F844004FF03D
:10491000010801E04FF0000800BF85F3118800BFD7
:104920004046BDE8F09F00002DE9F34182B0054606
:104930004FF000082C46002654B900BF502080F3E9
:104940001188BFF34F8FBFF36F8F00BF00BFFEE72B
:10495000206C08B9012000E0002050B900BF5020B1
:1049600080F31188BFF34F8FBFF36F8F00BF00BF7D
:10497000FEE700F08BF908B9039808B9012000E0C0
:10498000002050B900BF502080F31188BFF34F8F33
:10499000BFF36F8F00BF00BFFEE700BFFFF720F837
:1049A000A76BFFB1781EA063206810B9FEF794FFD3
:1049B000A060206908B9012000E0002060B904F17E
:1049C000100000F0BFFA38B14FF080504349086042
:1049D000BFF34F8FBFF36F8FFFF72CF8012004B0A8
:1049E000BDE8F081039898B90EB9012000E00020DD
:1049F00050B900BF502080F31188BFF34F8FBFF331
:104A00006F8F00BF00BFFEE7FFF714F80020E6E756
:104A1000B8F1000F04D16846FFF768F94FF00108BC
:104A2000FFF708F8FFF774FAFEF7DAFF94F944008D
:104A3000401C10B9002084F8440094F94500401C43
:104A400010B9002084F84500FEF7F4FF03A968467A
:104A500000F046F840BB2046FEF768FCF0B1206845
:104A600038B9FEF7BDFFA06800F01AFA0646FEF757
:104A7000E1FF04F124000399FFF74AF92046FEF70D
:104A800046FE00F0ABFA002888D14FF08050134961
:104A90000860BFF34F8FBFF36F8F7FE72046FEF7AD
:104AA00036FE00F09BFA79E72046FEF730FE00F074
:104AB00095FA2046FEF73AFC0028EED05EB1FEF7EC
:104AC0008FFF2046FEF7BAFA07463946A068FFF77F
:104AD0005BF9FEF7AFFF002081E7000004ED00E086
:104AE00070B505460C4655B900BF502080F31188BB
:104AF000BFF34F8FBFF36F8F00BF00BFFEE754B906
:104B000000BF502080F31188BFF34F8FBFF36F8F2A
:104B100000BF00BFFEE7FEF763FF12480268686847
:104B2000131A2068401C08B9002617E00E492868AF
:104B30000968884204D06868904201D801260DE0D7
:104B40002068984207D92068C01A20602846FFF7DD
:104B5000CDF8002602E0002020600126FEF76AFF63
:104B6000304670BD44000020580000202DE9FF4F62
:104B700085B0804689461746DDE912ABB800FEF7DE
:104B800005FE064656B15C20FEF700FE04460CB159
:104B9000266304E03046FEF76BFF00E000248CB192
:104BA000002084F85900CDE900ABCDE902403A4637
:104BB00049464046089BFEF7C6FA2046FEF708F92C
:104BC000012501E04FF0FF35284609B0BDE8F08F20
:104BD0002DE9F04F85B00746884691469A46DDE9B3
:104BE0000EB6109C0EB1012000E0002050B900BFAD
:104BF000502080F31188BFF34F8FBFF36F8F00BF3A
:104C000000BFFEE70CB1012000E0002050B900BF5A
:104C1000502080F31188BFF34F8FBFF36F8F00BF19
:104C200000BFFEE75C20039003985C2801D10120BF
:104C300000E0002050B900BF502080F31188BFF37E
:104C40004F8FBFF36F8F00BF00BFFEE700BFB4B14F
:104C5000AEB125462C462E63022085F8590000206F
:104C600004A953464A46CDE900B1CDE90250414678
:104C70003846FEF768FA2846FEF7AAF801E0002059
:104C80000490049805B0BDE8F08F0000054909685C
:104C900009B9012005E00449096809B9022000E0CA
:104CA000002070474C00002068000020014908687F
:104CB00070470000440000202DE9F0414FF000084B
:104CC0004348006800287BD142480068451C4148A1
:104CD000056015BB40480068006808B9012000E085
:104CE000002050B900BF502080F31188BFF34F8FD0
:104CF000BFF36F8F00BF00BFFEE737480768374834
:104D00000068354908603548076035480068401C30
:104D100033490860FEF74CFC00BF3248006885420A
:104D20003BD300BF2C480068006808B9012000E0B0
:104D3000002020B14FF0FF302A4908602CE02648BF
:104D40000068C068C4686668B54202D2254806603B
:104D500022E0201DFEF7E2FDA06A18B104F1180060
:104D6000FEF7DCFD2049E06A0968884202D91E4945
:104D7000E06A0860E16A01EB81011C4A02EB8100F4
:104D8000211DFEF721FE1A49E06A0968C96A8842B6
:104D9000C8D34FF00108C5E700BF15480068C06AD6
:104DA00000EB8000114951F82000012801D94FF093
:104DB00001081048006808B14FF0010805E0FFE75E
:104DC0000D480068401C0C4908604046BDE8F08171
:104DD000680000204400002034000020380000203B
:104DE000580000206000002048000020E40200205D
:104DF00030000020540000205000002070B505460F
:104E00002C460026002D43D022480068844201D160
:104E1000012000E0002050B900BF502080F311882D
:104E2000BFF34F8FBFF36F8F00BF00BFFEE7206D52
:104E300050B900BF502080F31188BFF34F8FBFF3EC
:104E40006F8F00BF00BFFEE7206D401E2065E16C44
:104E5000E06A88421CD0206DD0B9201DFEF75EFDAF
:104E6000E06CE062E06AC0F13800A0610A49E06AE3
:104E70000968884202D90849E06A0860E16A01EBE2
:104E80008101064A02EB8100211DFEF79DFD0126EE
:104E9000304670BD3000002048000020E4020020B1
:104EA00070B505462C460026002D42D02249E06A06
:104EB0000968C96A884235D2A06900F0004028B963
:104EC0001D480068C06AC0F13800A061E16A01EBCA
:104ED00081011A4A02EB81016069884201D10120F7
:104EE00000E00020C0B1201DFEF718FD1248006848
:104EF000C06AE0621249E06A0968884202D9104932
:104F0000E06A0860E16A01EB81010C4A02EB810072
:104F1000211DFEF759FD03E007480068C06AE06202
:104F2000012606E00449E06C0968C96A884200D29B
:104F30000126304670BD000030000020E402002051
:104F40004800002070B50646F068C46854B900BF38
:104F5000502080F31188BFF34F8FBFF36F8F00BFD6
:104F600000BFFEE704F11800FEF7D8FC1548006802
:104F7000A0B9201DFEF7D2FC1349E06A09688842F7
:104F800002D91149E06A0860E16A01EB81010F4A28
:104F900002EB8100211DFEF717FD04E004F118016A
:104FA0000B48FEF711FD0B49E06A0968C96A88429F
:104FB00004D9012501200849086000E000252846A1
:104FC00070BD00006800002048000020E4020020BE
:104FD0006C070020300000205400002070B5002431
:104FE00000263648006850B900BF502080F3118871
:104FF000BFF34F8FBFF36F8F00BF00BFFEE7FEF719
:10500000EFFC2E480068401E2C49086008460068E6
:1050100000284ED12A48006800284AD023E02948B9
:10502000C068C46804F11800FEF778FC201DFEF784
:1050300075FC2549E06A0968884202D92249E06A7C
:105040000860E16A01EB8101204A02EB8100211D29
:10505000FEF7BAFC1E49E06A0968C96A884202D3B1
:1050600001201C4908601748006808B9012000E0C9
:1050700000200028D3D00CB1FEF79AFA1648056834
:1050800065B100BFFFF718FE10B10120114908609B
:105090006D1E002DF6D100200F4908600D480068F4
:1050A00038B1012630070D490860BFF34F8FBFF3B9
:1050B0006F8FFEF7BFFC304670BD00006800002017
:1050C000400000206C07002048000020E40200207F
:1050D00030000020540000205000002004ED00E0CB
:1050E00010B586B00024FDF7CFFE16480068D0B199
:1050F00000200590049003AA04A905A8FEF72EFC41
:105100000222DDE904100023CDE9002102900EA166
:105110000F48039AFFF75CFD0E49086008460068D7
:1051200000B1012400BF54B900BF502080F31188A2
:10513000BFF34F8FBFF36F8F00BF00BFFEE7204666
:1051400006B010BD74000020546D722053766300C9
:10515000F5360008780000202DE9FF4704460D468B
:1051600016461F46DDF830804FF0000954B900BFE5
:10517000502080F31188BFF34F8FBFF36F8F00BFB4
:1051800000BFFEE71448006810B300950196029432
:10519000062D15DAFFF77AFD022808D100234246D2
:1051A00069460D480068FFF7E3F8814610E00023E8
:1051B0001A46694608480068FFF7DAF8814607E0B2
:1051C00000233A46694604480068FFF7A5F981467E
:1051D000484604B0BDE8F087740000202053000862
:1051E00000000000000000000000000000000000BF
:1051F0000002000018000000000000000000000095
:105200002C53000800000000000000000000000017
:105210000000000000020000080000000000000084
:105220000000000000530008000000000000000023
:105230000000000000000000000200000800000064
:1052400000000000000000001053000800000000F3
:10525000000000000000000000000000000200004C
:10526000080000000000000000000000C852000814
:10527000000000000000000000000000DC520008F8
:10528000000000000000000000000000F0520008D4
:105290000000000000000000000000000203040500
:1052A000060708090A0B0C0D0E0F10100102000072
:1052B00000000000000001020304060708090000C6
:1052C00000000102030400005772697465436D64B5
:1052D00042696E61727953656D3031005265616467
:1052E000436D6442696E61727953656D30320000BE
:1052F0007561727442696E61727953656D30330005
:1053000052656164436F6E6669726D5461736B00C0
:105310006461746150726F636573735461736B0081
:1053200064656661756C745461736B00577269745F
:1053300065436F6E6669726D546173005C5300085B
:1053400000000020C40000002801000820540008CC
:10535000C40000204C2200004401000800000000AE
:10536000000000000000000000000000000000003D
:10537000000000000000000000000000000000002D
:10538000100000000100000000127A000000000080
:10539000000000000000000000000000000000000D
:1053A00000000000000000000000000000000000FD
:1053B00000000000000000000000000000000000ED
:1053C00000000000000000000000000000000000DD
:1053D00000000000000000000000000000000000CD
:1053E00000000000000000000000000000000000BD
:1053F00000000000000000000000000000000000AD
:10540000AAAAAAAA000000000000000000000000F4
:10541000000000000000000000000000000000008C
:04000005080000ED02
:00000001FF
