:020000040800F2
:10000000E8110024B10200088F2C0008CF27000857
:100010008D2C0008E10300080538000800000000EE
:100020000000000000000000000000007D2F00081C
:10003000E303000800000000912C00087F2F000857
:10004000CB020008CB020008CB020008CB0200085C
:10005000CB020008CB020008CB020008CB0200084C
:10006000CB020008CB020008CB020008CB0200083C
:10007000CB020008CB020008CB020008CB0200082C
:10008000CB020008CB020008CB020008CB0200081C
:10009000CB020008CB020008CB020008CB0200080C
:1000A000CB020008CB020008CB020008CB020008FC
:1000B000CB020008CB020008CB020008CB020008EC
:1000C000CB020008CB020008CB020008CB020008DC
:1000D000CB020008CB020008CB020008CB020008CC
:1000E000CB020008CB02000800000000CB02000891
:1000F000CB020008CB020008CB020008CB020008AC
:10010000CB020008CB020008CB020008CB0200089B
:10011000CB020008CB02000855310008CB020008D2
:10012000CB020008CB020008CB020008CB0200087B
:10013000CB020008CB020008CB020008CB0200086B
:1001400000000000000000000000000000000000AF
:10015000CB020008CB020008CB020008CB0200084B
:10016000CB020008CB020008CB020008CB0200083B
:10017000CB020008CB020008CB020008CB0200082B
:10018000CB020008CB020008CB020008CB0200081B
:10019000CB020008CB020008CB020008CB0200080B
:1001A00051280008CB020008CB020008CB0200084F
:1001B000CB020008CB020008CB020008CB020008EB
:1001C000CB020008CB020008CB020008CB020008DB
:1001D000CB020008CB020008CB020008CB020008CB
:1001E000CB020008CB020008CB020008CB020008BB
:1001F000CB020008CB020008CB020008CB020008AB
:10020000CB020008CB020008CB020008CB0200089A
:10021000CB020008CB020008CB020008CB0200088A
:10022000CB020008CB020008CB020008000000004F
:10023000CB020008CB02000800000000CB0200083F
:10024000CB020008CB020008CB020008CB0200085A
:10025000CB020008CB020008CB020008CB0200084A
:10026000CB020008CB020008CB020008CB0200083A
:10027000CB020008CB020008CB02000800000000FF
:10028000CB020008CB020008CB02000800000000EF
:1002900000000000CB020008DFF810D000F08EF85C
:1002A0000048004795380008AFF30080E8110024AB
:1002B0000648804706480047FEE7FEE7FEE7FEE700
:1002C000FEE7FEE7FEE7FEE7FEE7FEE77130000827
:1002D000990200082DE9F05F0546002092469B46F2
:1002E00088460646814640241BE02846414647464C
:1002F000224600F053F853465A46C01A914110D393
:1003000011461846224600F03AF82D1A67EB01080C
:100310004F4622460120002100F031F817EB00097A
:100320004E41201EA4F10104DFDC484631462A4636
:100330004346BDE8F09F40EA01039B0703D009E074
:1003400008C9121F08C0042AFAD203E011F8013BC1
:1003500000F8013B521EF9D27047D2B201E000F81A
:10036000012B491EFBD270470022F6E710B5134659
:100370000A4604461946FFF7F0FF204610BD202A22
:1003800004DB203A00FA02F1002070479140C2F1EC
:10039000200320FA03F3194390407047202A04DB1E
:1003A000203A21FA02F00021704721FA02F3D040EE
:1003B000C2F120029140084319467047064C074D90
:1003C00006E0E06840F0010394E807009847103425
:1003D000AC42F6D3FFF764FF30390008503900080B
:1003E000FEE770477047F0B5D1E90843CD690A6868
:1003F000C2B10268254322F4F84213431D4305604D
:10040000D1E90125D1E903364C692A4345683343D4
:1004100089691A43EB0B2243DB030A431A43426008
:100420000020F0BDD1E9012ED1E9036CD1E90571BD
:1004300042EA0E0246EA0C0632433A430A43016896
:100440002A4322431A436FF30E010A430260E7E78F
:10045000426943F6FE739A4342EA4101416100203A
:10046000704770B5D1E90024D1E9023105696FF018
:100470001F06224306EB431343EA41210A432A4362
:100480000261002070BD00002DE9F04F8B8A6FF0F3
:100490000F05264C4FF07F4BD1F80C9004EB035323
:1004A0006FF0FF044FEA042A1AB386684FEA093254
:1004B0001F4FA2F580521A433E4032438260D1E979
:1004C00000278E68521E05EB07150F8A2A43C56860
:1004D00004EB06240E7E0AEB074322431A430BEB80
:1004E00006610A4305F070431A43C2600020BDE86C
:1004F000F08F91E804110F4E521E0F8A05EB08157C
:100500002A4304EB0C2C06EB09350E7E42EA0C0262
:100510002A4385680AEB074422431A430BEB066122
:100520000A4305F070431A438260DFE70000F0FFE2
:10053000FF0F0FFF00F0FFFF70B5044600F090F9C9
:100540000546601C02D004480078044400F088F995
:10055000401BA042FAD370BD08000024F0B587B05C
:1005600014216846FFF700FF23480168002941D1A4
:10057000012101602148016841F480510160006857
:1005800002250026694600F48050059003274FF6A7
:1005900083700C2404948DE8E100194800F03CF8C5
:1005A00048F2371004948DE8E1001648694600F0DF
:1005B00033F84CF2037004948DE8E1001248694668
:1005C00000F02AF84FF63F0004948DE8E1000F4850
:1005D000694600F021F88DE8F0000D486946049462
:1005E00000F01AF8202004948DE8E10009486946DB
:1005F00000F012F807B0F0BD00000024D444025807
:100600000010025800180258000C0258001402583A
:1006100000080258001C02582DE9FC4F01257E4CB1
:1006200000234FF0030A4FF0B04E4FF00F0BEBE0FA
:1006300005FA03F637403A0077D04F68012F05D00E
:10064000022F03D0112F01D0122F1AD187684FEA41
:100650004308D1F80CC00AFA08F927EA09070CFA8E
:1006600008FC4CEA070CC0F808C0476891F804C0C1
:10067000B743CCF3001C0CFA03FC4CEA070CC0F89F
:1006800004C0C6684FEA430CD1F80880E1460AFA74
:100690000CF7BE43019708FA09F848EA0608C0F8C3
:1006A0000C804E68022E01D0122E12D1DE084FEAC5
:1006B000437C00EB860600960F69366A4FEADC6CD5
:1006C0000BFA0CF807FA0CF726EA08063743009EE7
:1006D00037620E790768DDF804C006F0030606FAF3
:1006E00009F627EA0C073E4306604E68F6001CD563
:1006F0004A4E376847F00207376036689F0706F0B2
:100700000206009623F0030606F1B046B1463F0FFD
:10071000D6F80864DFF808810BFA07FC404526EAA2
:100720000C0603D14FF0000C41E06CE0DFF8F4C0A0
:10073000604502D14FF0010C39E0DFF8ECC06045B4
:1007400002D14FF0020C32E0DFF8E0C0604502D188
:100750004FF0030C2BE0DFF8D8C0604502D14FF01A
:10076000040C24E0DFF8CCC0604502D14FF0050C4A
:100770001DE0DFF8C4C0604502D14FF0060C16E062
:10078000DFF8B8C0604502D14FF0070C0FE0DFF88A
:10079000B0C0604502D14FF0080C08E0DFF8A4C0FB
:1007A000604502D14FF0090C01E04FF00A0C0CFA41
:1007B00007FC4CEA060CC9F808C426684F6826EA0C
:1007C0000206FF0300D51643266066684F6826EAD6
:1007D0000206BF0300D516436660D1F804C0764612
:1007E000DEF800705FEACC2C27EA020700D5174339
:1007F0003760D1F804C077685FEA8C2C27EA0207DB
:1008000000D5174377605B1C0A681746DA407FF40F
:100810000FAFBDE8FC8F000080000058F444025880
:10082000000002580004025800080258000C025848
:10083000001002580014025800180258001C0258F8
:1008400000200258002402580AB18161704709044F
:10085000FBE7000001480068000C70470010005CD6
:100860000148806870470000080000240248816841
:10087000027811448160704708000024032010B5FD
:1008800000F026FA01F0B6F90F4A1049146813680F
:10089000C4F3032203F00F038A5CC95C02F01F0259
:1008A00001F01F01D0400A4A20FA01F11160094904
:1008B0000860002000F010F808B1012010BD00F021
:1008C000CBF9002010BD0000184402582039000860
:1008D000180000241400002410B500220146362020
:1008E0008AB000F0D5F9362000F0C4F91348016849
:1008F00041F010010160006808A900F010000990A3
:10090000684601F003F901F051F90D494000002259
:100910000C4CB0FBF1F10C4840F2E7330460C0E945
:100920000332491EC0E9011201F0E7FC10B10120B9
:100930000AB010BD044801F013FDF9E7E84402587D
:1009400040420F0000100040980100242DE9F041C2
:10095000044690F8A00016460F4601281DD0012538
:1009600084F8A050022084F8A10006EB860000EB7A
:10097000C600342204EB80003830FFF7DCFC32463E
:100980003946204601F06AFF216800204D6284F854
:10099000A15084F8A000BDE8F0810220FBE7704779
:1009A0002DE9F0410446006800274FF00408856BEC
:1009B000466B690715D5710713D5426B22F0040207
:1009C00042632068C0F83C80D4F8A40040F00100E5
:1009D000C4F8A40084F8A180204684F8A070FFF732
:1009E000DEFFA80716D5B00714D520680222436B96
:1009F00023F0020343632068C263D4F8A40040F0EC
:100A00000200C4F8A40084F8A180204684F8A070F5
:100A1000FFF7C5FF05EA06004FF00108C0070ED03A
:100A200021684A6B22F001024A632168C1F83C80C8
:100A300084F8A180204684F8A07000F091F828077F
:100A400010D530070ED520680822436B23F0080329
:100A500043632068C26384F8A180204684F8A070B4
:100A600000F0F8F8BDE8F0812DE9F041040004D071
:100A700094F8A100002518B107E00120BDE8F0813D
:100A8000204684F8A05000F06DF83448022184F824
:100A9000A110012202CC8B6923F070438B6194E892
:100AA0004A001943E3681E4354F8043D31439E69EC
:100AB0003143996121688B6803408B602168A68A65
:100AC000A7698B683B4343EA06438B602168CB6888
:100AD0000340CB602168A38B276ACE683E4346EA79
:100AE0000346CE6021680B6903400B612368A68C26
:100AF000A76A1969394341EA0641196121684B69BE
:100B000003404B612068A38D266B4169314341EA64
:100B100003414161236894F8351094F83600DE6A89
:100B2000000406F07F46DE62236840EA012094F864
:100B30003460D96A31430143D9622068416B41F086
:100B4000060141632068816941F001018161C4F8B7
:100B5000A45084F8A120002090E7000000F800F0E5
:100B60007047000070B586B0044614216846FFF750
:100B7000FBFB3249206888425DD13148016841F071
:100B800008010160006800F0080005902C48001F73
:100B9000016841F480610160016801F480610591A0
:100BA000016841F400710160016801F40071059170
:100BB000016841F480710160006800240E266946D6
:100BC00000F480700590FF20009002251D48CDE9BB
:100BD0000154CDE90346FFF71FFD4FF6FF7000906B
:100BE000CDE9015418486946CDE90346FFF714FDE5
:100BF0004FF470400090CDE9015414486946CDE9A6
:100C00000346FFF709FD00225820114600F040F886
:100C1000582000F02FF80120CDE902040C4C1021DF
:100C2000CDE9001069462046FFF7F6FC0022204679
:100C30001021FFF709FE06B070BD00000010005043
:100C4000E4440258002802580024025800200258A8
:100C5000000C025870470000054808B5016841F0D3
:100C600002010160006800F00200009008BD000071
:100C7000F4440258002809DB410900F01F028900F2
:100C8000012001F1E0219040C1F80001704700000F
:100C90000E4BF0B41B680D46C3F30223C3F10706E5
:100CA000042E00D90426191D072901D2002300E0D3
:100CB000DB1E012404FA06F19C40491E2940641EF3
:100CC000994014402143F0BC02F0A6BD0CED00E0B9
:100CD000064900F0070210B54FF6FF040868044B00
:100CE000204040EA02201843086010BD0CED00E0EF
:100CF0000000FA05134970B50A68D243520705D5BA
:100D0000096801F00701814213D118E00A6822F056
:100D1000070202430A60FFF7A3FD0A4D4FF47A76FB
:100D20000446083D07E000BFFFF79AFD001BB042F4
:100D300001D9012070BD2868C0438004F4D400208C
:100D400070BD00000C48025810B500F00DFF0549B9
:100D50000968054AC1F30211515C01F01F01C84046
:100D600010BD00002044025820390008494930B520
:100D7000484C0B1D0A68143409681D68246802F089
:100D80000303C5F30012C1F30531C4F3CC040029F9
:100D900014FB02F200EE102AF8EE400A75D03F4A2A
:100DA0009FED3D1AB7EE000A6BB1DFED3D1A012B46
:100DB00001D0022B64D002EE101A1168F8EE422A1C
:100DC00081EEA22A21E0334C283C23689B0612D5F1
:100DD000344B246801EE901A1168C4F3C104F8EE94
:100DE000612AE34001EE903AC1F30801F8EE611A7E
:100DF00081EEA22A0BE001EE901ADFED2B2A00BF54
:100E0000F8EE611A116882EEA12AC1F3080101EE21
:100E1000901A1168F8EE611A40EE811A71EE800A9C
:100E200062EE200AC1F3462101EE101AB8EE411A13
:100E300031EE001AC0EE811ABCEEE11A80ED001A04
:100E40001168C1F3064101EE101AB8EE411A31EEF5
:100E5000001AC0EE811ABCEEE11A80ED011A116889
:100E6000C1F3066101EE101AB8EE411A31EE000A24
:100E700080EE801ABCEEC10A80ED020A30BD04E0AB
:100E800001EE901ADFED092ABAE700210160416006
:100E90008160F3E7284402580000003938440258C2
:100EA0000024744A0090D0030024744C20BCBE4B34
:100EB000494930B5484C0B1D0A681C3409681D6847
:100EC000246802F00303C5F30022C1F30551C4F303
:100ED000CC04002914FB02F200EE102AF8EE400ABE
:100EE00075D03F4A9FED3D1AB7EE000A6BB1DFEDBA
:100EF0003D1A012B01D0022B64D002EE101A1168AA
:100F0000F8EE422A81EEA22A21E0334C283C2368E5
:100F10009B0612D5344B246801EE901A1168C4F375
:100F2000C104F8EE612AE34001EE903AC1F30801F2
:100F3000F8EE611A81EEA22A0BE001EE901ADFEDC5
:100F40002B2A00BFF8EE611A116882EEA12AC1F3C4
:100F5000080101EE901A1168F8EE611A40EE811A4C
:100F600071EE800A62EE200AC1F3462101EE101AEA
:100F7000B8EE411A31EE001AC0EE811ABCEEE11A49
:100F800080ED001A1168C1F3064101EE101AB8EEA7
:100F9000411A31EE001AC0EE811ABCEEE11A80ED62
:100FA000011A1168C1F3066101EE101AB8EE411A78
:100FB00031EE000A80EE801ABCEEC10A80ED020A12
:100FC00030BD04E001EE901ADFED092ABAE70021F6
:100FD000016041608160F3E7284402580000003955
:100FE000404402580024744A0090D0030024744CFA
:100FF00020BCBE4B2DE9FC5F044650F8241B0025A5
:1010000000902E460801FE4FDFF8F8831DD5606E74
:1010100050B1B0F5801F0CD0B0F5001F0ED0B0F568
:10102000401F1DD001250FE0386840F400303860C3
:1010300016E00221201D01F02DFE03E000980221A0
:1010400001F0B8FE05000BD02E462088C00523D540
:10105000606D05281ED2DFE800F00C11161B1B0086
:10106000626ED8F8001021F440111143C8F8001046
:10107000EBE7386840F40030386009E00021201DBB
:1010800001F008FE03E00098002101F093FE054600
:101090006DB100E001252E462088800528D5A06D81
:1010A00080281ED00CDC90B140280ED114E0626D77
:1010B000D8F8001021F007011143C8F80010EBE741
:1010C000C02813D0B0F5807F10D001250FE038681C
:1010D00040F40030386009E00021201D01F0DAFD05
:1010E00003E00098002101F065FE054695B12E460B
:1010F0002088DFF81093400509F108092CD5D4F8B1
:10110000A400B0F5800F20D00DDCA0B1B0F5001F19
:101110000FD115E0A26DD8F8001021F4E071114351
:10112000C8F80010E4E7B0F5C00F13D0B0F5000F19
:1011300010D001250FE0386840F40030386009E035
:101140000021201D01F0A6FD03E00098002101F020
:1011500031FE054675B12E46208800052DD5D4F800
:10116000A800B0F1007F21D00EDCA8B1B0F1807FE3
:1011700010D116E0D4F8A420D9F8001021F46001B1
:101180001143C9F80010E7E7B0F1407F13D0B0F188
:10119000806F10D001250FE0386840F400303860CF
:1011A00009E00021201D01F075FD03E000980021F9
:1011B00001F000FE05466DB12E46206880011FD566
:1011C000A06CD8B110280FD0202812D0302815D00C
:1011D000012514E0D4F8A820D9F8001021F0E0612E
:1011E0001143C9F80010E8E7386840F4003038606F
:1011F00004E00221201D01F04DFD05466DB12E4693
:101200002088C0042BD5E06DB0F5005F20D00DDC48
:10121000A0B1B0F5805F0FD115E07A48A26C001F35
:10122000016821F0300111430160E9E7B0F5405F4A
:1012300013D0B0F5804F10D001250FE0386840F48E
:101240000030386009E00021201D01F023FD03E09B
:101250000098002101F0AEFD054685B12E4620889C
:10126000800429D5206EB0F5403F23D010DC08B3B0
:10127000B0F5803F14D0B0F5003F0FD115E0E26D1E
:10128000D8F8001021F4E0411143C8F80010E6E757
:10129000B0F5802F0ED0B0F5A02F0BD001250AE0BD
:1012A0000121201D01F0F6FC03E00098012101F06E
:1012B00081FD05468DB12E46208840042AD5D4F8FC
:1012C000AC00B0F1405F23D010DC08B3B0F1805F18
:1012D00014D0B0F1005F0FD115E0226ED8F80010E5
:1012E00021F4E0211143C8F80010E5E7B0F1804F88
:1012F0000ED0B0F1A04F0BD001250AE00121201D36
:1013000001F0C8FC03E00098012101F053FD0546FF
:101310006DB12E46208800041FD5E06ED8B1B0F123
:10132000805F0ED0B0F1005F10D0012514E0D4F83A
:10133000AC20D9F8001021F0E0411143C9F80010A9
:10134000E8E7386840F40030386004E00121201DEF
:1013500001F0A0FC05466DB12E462068C0011ED5E7
:10136000606CD0B101280ED0022811D0032814D00F
:10137000012513E0E26ED8F8001021F0405111432E
:10138000C8F80010E9E7386840F40030386004E03D
:101390000221201D01F07EFC054685B12E46206805
:1013A000DFF85CB04002ABF11C0B57D51648016862
:1013B00041F480710160FFF753FA82460EE0114854
:1013C000626C001F016821F0030111430160E6E730
:1013D000FFF746FAA0EB0A0064283DD80A480068E7
:1013E000C005F5D57DBBDFF81CA0B4F8B0100AF13C
:1013F000200ADAF8000001F4407100F4407005E0C2
:101400002C4402585044025800480258884211D0D7
:10141000DAF80010DAF8002021F4407142F480324A
:10142000CAF80020DAF8002022F48032CAF800203E
:10143000CAF80010D4F8B000B0F5807F21D1FFF7D2
:101440000FFA019019E008E0FFF70AFA0199411A32
:1014500041F28830814210D903252E462078DFF8EA
:1014600030A4C0073DD0A06F182838D026DC80B348
:10147000082829D0102825D12CE0DAF800008007B0
:10148000E2D5D4F8B010C1F30120032858460DD09E
:10149000016821F47C510160B4F8B020DAF8001042
:1014A000C2F30B021143CAF80010D7E7F94A0368E8
:1014B00002EA111223F47C511143ECE720280ED0EC
:1014C00028280CD001250BE00121201D01F0E2FBB2
:1014D00004E004E00098012101F06CFC05465DB1D8
:1014E0002E46207880071ED5606F062819D2DFE8C7
:1014F00000F0160C11161616A26FDAF8001021F083
:1015000038011143CAF80010EBE70121201D01F05A
:10151000C1FB03E00098012101F04CFC054675B1C8
:1015200000E001252E46207840071FD5D4F8900012
:10153000062819D2DFE800F0160C11161616626F95
:10154000DAF8001021F007011143CAF80010EAE7A9
:101550000121201D01F09EFB03E00098012101F014
:1015600029FC05469DB100E001252E462078800625
:101570002BD5D4F88C00B0F1405F24D011DC10B32F
:10158000B0F1805F15D0B0F1005F10D116E0D4F853
:101590009020D9F8001021F007011143C9F800107C
:1015A000E4E7B0F1804F0ED0B0F1A04F0BD0012591
:1015B0000AE00021201D01F06DFB03E000980221EC
:1015C00001F0F8FB05468DB12E46207840062BD55C
:1015D000D4F89800B0F5406F24D011DC10B3B0F50A
:1015E000806F15D0B0F5006F10D116E0D4F88C20C4
:1015F000DAF8001021F0E0411143CAF80010E4E7E6
:10160000B0F5805F0ED0B0F5A05F0BD001250AE0E9
:101610000021201D01F03EFB03E00098022101F0B3
:10162000C9FB05468DB12E46207800062BD5D4F88F
:101630009C00B0F5C04F24D011DC10B3B0F5005FB2
:1016400015D0B0F5804F10D116E0D4F89820D9F815
:10165000001021F4E0511143C9F80010E4E7B0F59F
:10166000004F0ED0B0F5204F0BD001250AE000212D
:10167000201D01F00FFB03E00098022101F09AFB0E
:1016800005464DB12E46207800071ED5D4F88000BF
:10169000B0F5805F0AD00FE0D4F89C20D9F8001094
:1016A00021F460411143C9F80010ECE700980221D1
:1016B00001F080FB00B10126D4F88020DAF8001098
:1016C00021F440511143CAF800102078C00613D508
:1016D000D4F89400B0F5807F05D10098022101F084
:1016E00069FB00B10126D4F89420D9F8001021F448
:1016F00040711143C9F800102068000316D5D4F8D2
:10170000A00038B1B0F5803F09D0B0F5003F0BD054
:1017100001250AE00021201D01F0BCFA03E0009839
:10172000022101F047FB054685B12E4620684003A3
:1017300022D5D4F88400B0F5801F11D0B0F5001F79
:1017400013D0B0F5401F15D0012514E0D4F8A02027
:10175000D9F8001021F440311143C9F80010E5E731
:10176000386840F40030386004E00098012101F04E
:1017700021FB054655B12E462068C0031CD5E06C00
:1017800070B1B0F5803F10D0012514E0D4F884206A
:10179000DAF8001021F440111143CAF80010EBE709
:1017A000386840F40030386004E00221201D01F068
:1017B00071FA0546CDB12E462068800005D5009807
:1017C000022101F0F7FA00B10126206880031BD541
:1017D000E06FB8B1B0F5807F10D0B0F5007F11D0C8
:1017E000B0F5407F0ED001250DE02948E26C0838A5
:1017F000016821F4803111430160DDE7386840F46D
:1018000000303860F5B32E462068C00207D5226F3D
:10181000D8F8001021F000411143C8F800102068EA
:10182000C00008D5D4F8B420DBF8001021F48041C2
:101830001143CBF800102068800207D5A26ED8F8BB
:10184000001021F080711143C8F80010206840009A
:101850000CD5DBF8001021F40041CBF80010DBF8C8
:101860000010D4F8B8201143CBF8001020680028ED
:1018700007DA0748226D0838016821F0405111430A
:10188000016000E008E086B10120BDE8FC9F000097
:1018900054440258CFFFFF00E26FDAF8001021F441
:1018A00040711143CAF80010AEE70020EDE70000D8
:1018B0002DE9F05F04000F467ED0DFF83882D8F8BB
:1018C000000000F00F00B8420CD2D8F8001021F050
:1018D0000F013943C8F80010D8F8000000F00F00DD
:1018E000B84269D12078844D40070AD5206929681B
:1018F00001F07001884204D9296821F07001014388
:10190000296020787C4E361D00070AD56069316851
:1019100001F07001884204D9316821F0700101435F
:1019200031602078C0060AD5A069316801F4E06111
:10193000884204D9316821F4E061014331602078A4
:10194000DFF8B4B180060BF1080B0CD5E1695846FD
:10195000DBF8002002F07002914204D9026822F004
:1019600070020A430260207880070AD5E06829687F
:1019700001F00F01884204D9296821F00F010143C9
:1019800029602078C0073ED05B49A26828681839D2
:1019900020F47060104328606068022818D0032883
:1019A00019D00968012819D0490700294ADADFF857
:1019B00048A1AAF1080A00E044E0DAF8002022F089
:1019C00007020243CAF80020FEF74AFF814612E0F0
:1019D00009688903E9E709688901E6E7C905E4E7D9
:1019E000FEF73EFFA0EB090141F28830814202D9A7
:1019F0000320BDE8F09F6168DAF8000000F03800CD
:101A0000B0EBC10FECD1207880070AD5E0682968D7
:101A100001F00F01884204D2296821F00F0101432F
:101A20002960D8F80010404601F00F01B9420BD9E7
:101A3000016821F00F0139430160006800F00F00D8
:101A4000B84201D00120D4E7207840070AD52069A8
:101A5000296801F07001884204D2296821F07001E0
:101A600001432960207800070AD56069316801F0D8
:101A70007001884204D2316821F070010143316065
:101A80002078C0060AD5A069316801F4E061884277
:101A900004D2316821F4E06101433160207880068E
:101AA0000CD5E1695846DBF8002002F07002914243
:101AB00004D2026822F070020A43026000F09AF831
:101AC0000E492A682B68C2F3032203F00F038A5CD5
:101AD000C95C02F01F0201F01F01D040084A20FA41
:101AE00001F111600749086007480068BDE8F05F30
:101AF000FEF7F2BE002000521844025820390008B8
:101B000018000024140000240C00002470B5144CAC
:101B10003F220260124A24680832131D114D04F05E
:101B20000704446016681C1D06F47066866016681B
:101B300006F00F06C660126802F0700202611A68B1
:101B400002F0700242611A6802F4E0628261226867
:101B500002F07002C261286800F00F00086070BDDA
:101B6000104402580020005230B500F043F80B4AF0
:101B70000B490C4B15681468C5F3032204F00F04DD
:101B80008A5C095D02F01F0201F01F01D040064A85
:101B900020FA01F119601060084630BD184402585F
:101BA00020390008180000241400002400B5FFF7B5
:101BB000DBFF05490968054AC1F30211515C01F0D8
:101BC0001F01C84000BD00001C4402582039000815
:101BD00000B5FFF7C9FF05490968054AC1F30221AD
:101BE000515C01F01F01C84000BD00001C440258B8
:101BF00020390008454970B545480968434B103BFA
:101C000011F0380208D00111082A03D0102A0BD095
:101C1000182A0BD0084670BD19688906FBD51968CB
:101C2000C1F3C101C84070BD3A4870BD3749374D56
:101C300018310C1D24350A68096826682D6802F0E1
:101C4000030406F00102C1F30511C5F3CC0515FB31
:101C500002F200EE102AB8EE400AE9B32F4ADFED97
:101C60002E0AB7EE001A6CB1DFED2D1A012C01D04F
:101C7000022C43D002EE101A1068F8EE422A81EED0
:101C8000A22A1EE01C68A40611D51B6801EE901A5A
:101C90001168C3F3C103F8EE612AD84001EE900A3F
:101CA000C1F30800F8EE611A81EEA22A0BE001EE02
:101CB000901ADFED1C2A00BFF8EE611A106882EE60
:101CC000A12AC0F3080001EE900AF8EE611A40EE76
:101CD000201A31EE810A00E015E022EE000A1068B9
:101CE000C0F34620401C00EE900AF8EE600A80EE39
:101CF000201ABCEEC10A10EE100A70BD01EE901A57
:101D0000DFED092AD8E7002070BD0000104402581A
:101D10000090D00340787D01000000393044025823
:101D20000024744A0024744C20BCBE4B2DE9F05FA3
:101D300004007CD0FF4F2078FE4D1837DFF8F49375
:101D4000103DC00748D0D9F80000396800F03800CD
:101D5000102815D0182803D101F0030002280FD055
:101D60006068B0F5803F12D010B1B0F5A02F18D048
:101D7000286820F480302860286820F4802009E05A
:101D80002868800328D560680028D2D024E028681D
:101D900040F480302860606888B1FEF761FD064637
:101DA00009E0286840F480202860F0E7FEF758FD3D
:101DB000801B64287ED828688003F7D50CE0FEF7E6
:101DC0004FFD064605E000BFFEF74AFD801B642874
:101DD000F0D828688003F7D4207841F20308D54E64
:101DE0000C3E800753D5D9F80000396810F0380050
:101DF0000ED0182801D188070AD0E068A8B3296856
:101E000021F0190101432960FEF72AFD82461BE0FB
:101E10002868400702D5E06800288AD0FEF71AFD3E
:101E200040451BD82069402812D0316800E0CCE042
:101E300021F47C3141EA0030306028E0FEF710FDEB
:101E4000A0EB0A000228B5D828684007F6D5E5E7D8
:101E5000306820F47C3040F40030EDE7207C3168BD
:101E600021F0FE4141EA0060E6E7FFE7286820F044
:101E700001002860FEF7F4FC824605E0FEF7F0FC66
:101E8000A0EB0A00022895D828684007F6D42078ED
:101E9000C0065FD5D9F80000DFF898B2396800F0C5
:101EA0003800ABF1040B082812D0182805D101F036
:101EB000030000E0EAE001280AD0E0690028286871
:101EC00038D040F080002860FEF7CAFC824623E04C
:101ED0002868C00523D5E069802876D11FE0206AF4
:101EE000202821D0316821F0F84141EA806030603B
:101EF00030E000BF94F82010DBF8002022F07C5284
:101F000042EA0161CBF8001024E000BFFEF7A8FC14
:101F1000A0EB0A00022896D82868C005F6D5FEF77F
:101F200099FC4045E6D8DAE7306820F0F84040F008
:101F30008040DCE720F080002860FEF791FC064638
:101F400005E000BFFEF78CFC801B02289BD82868A8
:101F5000C005F7D42078000729D576486169643038
:101F600000298046016811D041F001010160FEF7AF
:101F700077FC064605E000BFFEF772FC801B0228D6
:101F8000C9D8D8F800008007F6D510E021F001018B
:101F90000160FEF765FC064605E000BFFEF760FC49
:101FA000801B022872D8D8F800008007F6D4207869
:101FB000800623D5A0690028286810D040F48050FE
:101FC0002860FEF74DFC064605E02CE1FEF748FCD4
:101FD000801B02285AD828688004F7D50EE020F428
:101FE00080502860FEF73CFC064604E0FEF738FC13
:101FF000801B02284AD828688004F7D4207840073C
:102000004FD5DFF83481D8F8001041F48071C8F85A
:102010000010FEF725FC064605E000BFFEF720FC99
:10202000801B642832D8D8F80000C005F6D5414E90
:10203000A068603601280AD008B1052813D030689E
:1020400020F001003060306820F0040002E03068C9
:1020500040F001003060A06841F2883A90B1FEF78C
:10206000FFFB80460AE0306840F004003060EEE795
:10207000FEF7F6FBA0EB0801514507D83068800752
:10208000F6D50EE0FEF7ECFB804607E084E000BFEB
:10209000FEF7E6FBA0EB080151457DD830688007CC
:1020A000F6D4606AF0B3DFF88C80D9F8001008F13C
:1020B0002008C1F3C20103296FD00228286820F04C
:1020C0008070286003D0FEF7CBFB044680E0FEF76B
:1020D000C7FB064605E000BFFEF7C2FB801B0228D7
:1020E00073D828688001F7D4E26A40F2F331386887
:1020F00054F8283F884340EA021018433860217B97
:102100004FF4FE0C22894FF0FE47208A4902267DBB
:10211000521E401EA1F5007189B20CEA0040C2F3C4
:10212000080200E081E01143761E0143014807EAFE
:10213000066203E010440258004802581C30114364
:102140003B4AC8F80010016821F0010101601168E4
:102150004FF6F876236AB14341EAC3011160016882
:10216000A26921F00C01114301600168E26921F0CC
:10217000020111430160016841F48031016001688E
:1021800041F400310160016841F48021016001687F
:1021900041F00101016001E017E01DE0286840F016
:1021A00080702860FEF75CFB044604E0FEF758FBF5
:1021B000001B022809D828688001F7D535E000BF48
:1021C000FEF74EFB001B022802D90320BDE8F09F5A
:1021D00028688001F4D428E039680128D8F8000084
:1021E00021D0A26A01F0030393421CD1E26AC1F339
:1021F00005118A4217D1216BC0F30802491E8A4299
:1022000011D1616BC0F34622491E91420BD1A16BE3
:10221000C0F30642491E914205D1E16BC0F306604E
:10222000491E814201D00120D0E70020CEE7000006
:102230003444025870B504000D4603D094F82C00C5
:1022400010B107E0012070BD002084F82D00204669
:1022500000F018F8022084F82C002068211DFEF7F9
:10226000C2F8D4E900022946FEF70EF9044801211C
:10227000026842F00042026084F82C10002070BD19
:1022800000400052FEF76AB910B5044690F82C00E1
:10229000022804D094F82C00012801D0012010BDA0
:1022A000022084F82C002068FEF7D2F8012084F880
:1022B0002C00002010BD000070B5044690F82C00E2
:1022C0000D46022804D0012803D0052801D00120A2
:1022D00070BD022084F82C002068FEF7C2F8286840
:1022E000022805D05FF0010084F82C00002070BDAA
:1022F0000520F9E770477047704710B5040003D018
:1023000094F83D0010B107E0012010BD002084F8D2
:102310003C00204600F022F8022084F83D002068AE
:10232000211D00F01DFF012084F8480084F83E00C4
:1023300084F83F0084F8400084F8410084F84200AB
:1023400084F8430084F8440084F8450084F846008B
:1023500084F8470084F83D00002010BD704700005D
:1023600090F83D10012901D0012070470B4A02214D
:1023700080F83D100168CB6843F00103CB60006832
:1023800081681140062906D0B1F5803F03D001686D
:1023900041F00101016000207047000007000100CA
:1023A000704770B50446006800250169C943890774
:1023B00015D4C168C943890711D4EA1E02610121FD
:1023C0002177206880698007204602D0FFF7E8FF68
:1023D00004E000F0A7F8204600F0A5F82577206873
:1023E0000169C943490717D4C168C943490713D4D0
:1023F00002216FF00402026121772068806910F4E5
:10240000407F204602D0FFF7CBFF04E000F08AF8BF
:10241000204600F088F8257720680169C94309073C
:1024200016D4C168C943090712D404216FF0080209
:10243000026121772068C0698007204602D0FFF73B
:10244000AFFF04E000F06EF8204600F06CF825774E
:1024500020680169C943C90617D4C168C943C906C0
:1024600013D408216FF01002026121772068C0693F
:1024700010F4407F204602D0FFF792FF04E000F006
:1024800051F8204600F04FF8257720680169C943CC
:10249000C90708D1C168C943C90704D1891E0161B0
:1024A000204600F041F820680169C943090609D4B3
:1024B000C168C943090605D46FF080010161204657
:1024C000FFF719FF20680169C943C90509D4C1682C
:1024D000C943090605D46FF4807101612046FFF7F6
:1024E00009FF20680169C943490609D4C168C94385
:1024F000490605D46FF040010161204600F01EF846
:1025000020680169C94389060BD4C168C94389069B
:1025100007D46FF0200101612046BDE87040FFF74D
:10252000EBBE70BD7047704700680349884201D117
:10253000FEF79CB97047000000100040704730B5AE
:1025400090F87C10012918D0012280F87C202421E9
:10255000C0F880100022202450F8601B0B680D6822
:1025600023F0005325F001050D60426050F8601C17
:102570000B6004620277104630BD022030BD70B59A
:10258000044690F87C0001281DD0012284F87C20AC
:102590002420C4F8800020680568026822F0010247
:1025A00002602068826822F060620A4382602046EE
:1025B00000F038FE2268202100201560C4F8801049
:1025C00084F87C0070BD022070BD70B5044690F8A0
:1025D0007C0001281DD0012284F87C202420C4F82E
:1025E000800020680568026822F00102026020680D
:1025F000826822F060420A438260204600F012FEA8
:102600002268202100201560C4F8801084F87C0026
:1026100070BD022070BD10B5040003D0D4F8800056
:1026200010B107E0012010BD002084F87C00204696
:1026300000F026F82420C4F880002068016821F00A
:1026400001010160204600F0B3FE0128EBD0A06A32
:1026500010B1204600F018FE2068416821F4904136
:1026600041602068816821F02A018160206801684A
:1026700041F0010101602046BDE8104000F068BE55
:1026800070B586B0044614216846FDF76DFE1C49FE
:102690002068884231D11B48016841F40021016063
:1026A000006800F40020059016480838016841F4DD
:1026B00080710160016801F480710591016841F049
:1026C00001010160006802250024694600F0010054
:1026D0000590082628020090CDE901540A48CDE96A
:1026E0000346FDF799FF01200090CDE9015407480A
:1026F0006946CDE90346FDF78FFF06B070BD0000C7
:10270000004C0040E84402580020025800000258E3
:102710002DE9F8430446D0F880001F4616460D46C2
:10272000202852D1DDB1D6B194F87C0001284CD0DC
:10273000012084F87C0021224FF00008C4F8888032
:10274000C4F880201834FEF78BF8814654F8100C3A
:10275000A687E687183CB0F5805F03D004E001202F
:10276000BDE8F883206920B12E46002584F87C80DE
:1027700010E00026FAE78021204600F0F1FFB8B90A
:10278000C6B116F8010B21688862B4F85600401EE5
:10279000A4F85600B4F856004B464FF000020097DC
:1027A0000028E8D14FF04001204600F0D9FF38B1B1
:1027B0000320D5E735F8020B2168C0F30800E3E7F2
:1027C0002020C4F880000020CAE70220C8E7FEE706
:1027D0000C49012330B54FF440320D68002425F038
:1027E00001050D6095030A60074A4B630C64CD63D5
:1027F0004A648863086840F0010008600868C00700
:10280000FCD130BD00100052E00120030D4882B021
:10281000016841F010010160006800F010000090B4
:10282000094801684A6B42F001024A630068416A44
:1028300041F00101416201220448102102B0FEF77B
:1028400003B80000D444025864000024000C02586D
:102850000148FEF7A5B80000640000242DE9FE4FF2
:1028600081460068882493468D888C2204EBCB1720
:102870008A46C3689421BE46C459C3F30B432B4414
:1028800004F470441F04019702EBCB1240F80E4091
:1028900001EBCB13DAF800709C214FF0AC0C01EB8C
:1028A000CB1440F2077102910CEBCB11D9F800C0A8
:1028B00098250020CDF800C0A02605EBCB15DCF84C
:1028C0000CC006EBCB16CCF30B4C0CF1010C07EB58
:1028D0000C08DDF800C0019F48EA07084CF80E809C
:1028E000D9F80070BAF80CC0B846FF68C7F30A07F9
:1028F00067444FEA074E58F8027007F4704C48F8E6
:1029000002C0D9F800C0DAF80870DCF80C80C8F30F
:102910000A0808F10108B84448EA0E084CF8028099
:10292000D9F80020D75827F00707D750D9F80070FA
:10293000DAF81020FA509AF831209AF818304FEA55
:10294000022C9AF83220120442EA0362D9F80030CD
:102950001F5918519AF8303043EA0C031343D9F841
:1029600000201351D9F80020535923F0FF0353518D
:10297000D9F80020DAF814305351D9F800209359CF
:10298000029CA3439351D9F80030DAE9072422438B
:102990009A51D9F8002053585050D9F80020DAF84D
:1029A00024005050DAF81000C8B301283AD00428A7
:1029B0003AD0022838D0032836D0072834D0012056
:1029C000D9F80030B02505EBCB11B42284245D5832
:1029D00002EBCB1205F0E0255D50DAE9003504EB9F
:1029E000CB14EB1ABAF8285043434543D9F80000FA
:1029F000DB1D43EA05434350D9F8000081586FF3CB
:102A00000A018150D9F80000DAF82C108150D9F869
:102A10000000015941F001010151BDE8FE8FFFE7BF
:102A20000420CDE70320CBE70220C9E7F0B587B04B
:102A30001C216846FDF798FC16480622144C012616
:102A400000254FF0100E02214FF0400C046094015D
:102A5000C0E901560823C360C0F810E00B03C0E9C9
:102A600005C4C5618F02CE0207620424C0E9096370
:102A70008DE8160003250392CDE9045106916946BD
:102A8000FFF7D8FB002801D0FDF7ACFC07B0F0BD84
:102A90004041005230000024294808B5016841F443
:102AA00080610160016801F480610091016841F07A
:102AB00010010160016801F010010091016841F40A
:102AC00000710160016801F400710091016841F03A
:102AD00001010160016801F001010091016841F00C
:102AE00040010160016801F040010091016841F07E
:102AF00008010160016801F008010091016841F4DA
:102B000080710160016801F480710091016841F0F9
:102B100020010160016801F020010091016841F08D
:102B200080010160016801F080010091016841F0BD
:102B300004010160006800F00400009008BD00007E
:102B4000E0440258F0B59BB034216846FDF70CFC18
:102B500034210DA8FDF708FC314800242F4A012537
:102B600000F11C0E40F24F332F2140F20D4702605E
:102B7000182244604FF4FC76846040F20E2CC4604E
:102B8000C0E9044585618EE8CE1080F8344080F8B5
:102B9000354080F83640FDF767FF08B1FDF722FCAD
:102BA0004FF4487004954FF4F0710527CDE90040CB
:102BB00005A8FF22CDE902414FF4806680E8D400E9
:102BC0004B061748CDE909348DF8304000228DF8C6
:102BD000314069460B948DF83240FDF7B7FE08B1DD
:102BE000FDF700FC13A80D940E9401220F940DA97B
:102BF0001094129480E8D0008DF864408DF8654000
:102C000007481694179418948DF86640FDF79EFEB9
:102C1000002801D0FDF7E6FB1BB0F0BD001000500E
:102C2000640000241848002110B5164C0C224FF403
:102C3000E1330460C0E90131C160C0E9041281617F
:102C4000C161016241628162FFF7E5FC08B1FDF7F5
:102C5000C9FB0D480021FFF7B8FC08B1FDF7C2FB26
:102C600009480021FFF78BFC08B1FDF7BBFB0648C4
:102C7000FFF765FC002803D0BDE81040FDF7B2BBAC
:102C800010BD0000004C00400C010024FEE770471E
:102C9000704700002DE9F047454D044689464FF046
:102CA000000A2868C04380070AD0414E283E306899
:102CB00020F080603060FDF7D3FD0746B04608E0A5
:102CC0000120BDE8F08700BFFDF7CAFDC01B022848
:102CD00067D8D8F800000001F6D4206829684FF4BE
:102CE000FE0721F47C313E0241EA00302860207A60
:102CF000A389B4F804C040022D4D2D495B1E227CEF
:102D0000ACF1010C1035091DA0F5007080B2521E07
:102D1000CCF3080C07EA034340EA0C00184306EA28
:102D20000262104328600868626920F0C000104306
:102D300008600A68A06922F0200202430A60281D88
:102D40000A6822F010020A6002684FF6F873E4691C
:102D50009A4342EAC40202600868B9F1000F40F0E9
:102D600010020A6011D00868B9F1010F11D040F4C7
:102D700000100860D8F80000444640F08060C8F8B1
:102D80000000FDF76DFD05460DE0086840F40020E9
:102D9000EFE740F48010ECE7FDF762FD401B0228EE
:102DA00001D903208DE720680001F5D5504688E75A
:102DB000284402582DE9F047454D044689464FF016
:102DC000000A2868C04380070AD0414E283E306878
:102DD00020F080503060FDF743FD0746B04608E024
:102DE0000120BDE8F08700BFFDF73AFDC01B0228B7
:102DF00067D8D8F800008000F6D4208829684FF4FE
:102E0000FE0721F07C713E0241EA00502860207AE2
:102E1000A389B4F804C040022D4D2D495B1E227CCD
:102E2000ACF1010C1835091DA0F5007080B2521EDE
:102E3000CCF3080C07EA034340EA0C00184306EA07
:102E40000262104328600868626920F44060104301
:102E500008600A68A06922F4007202430A60281D13
:102E60000A6822F480720A6002684FF6F873E46917
:102E70009A4342EAC40202600868B9F1000F40F4C4
:102E800080720A6011D00868B9F1010F11D040F0CA
:102E900080700860D8F80000444640F08050C8F8C0
:102EA0000000FDF7DDFC05460DE0086840F48000F9
:102EB000EFE740F40000ECE7FDF7D2FC401B0228EE
:102EC00001D903208DE720688000F5D5504688E7BA
:102ED00028440258024901F1100000F003B8000034
:102EE000200000242DE9F84310270C4600258146D8
:102EF00001260095C4E900674FF48058C4E90265D3
:102F00004246FFF7D9F9052000F02AF80220424690
:102F1000C4E90007C4E9026521464846FFF7CCF939
:102F2000032142460820C4E90017C4E902052146EE
:102F30004846FFF7C1F940F2312000900421424693
:102F4000C4E90017C4E9026021464846FFF7B4F916
:102F5000484640F23261BDE8F843FFF795B90000FA
:102F600001B581B00449019848430090002801D080
:102F7000401EFAE70CBD0000400D0300704770478B
:102F80002DE9F041CCB04C212FA8FDF7EDF920211F
:102F900042A8FDF7E9F9BC216846FDF7E5F90220F2
:102FA000FDF7A8FE2E4800252E49026842F4404253
:102FB000026002680A6842F001020A60096801F0D2
:102FC00001014A9101688904FCD52748022405269D
:102FD00001680122C0274FF0080821F00303110403
:102FE0009B1C036039A8389480E8D0003C942FA83B
:102FF0003D943E94CDE93F854195CDE92F21FEF7E3
:1030000095FE032340203F22CDE94223020144954F
:10301000CDE945800421CDE94702499042A8FEF759
:1030200047FC124904200091A022CDE90224CDE9F9
:10303000044001968021202006910DAA0795810168
:103040000C94CDE90A74CDE9085682E82300CDE955
:10305000105468461D95FDF7CDFF4CB0BDE8F081DA
:10306000184802582C040058284402580200002135
:103070002E48F0B52E4A016841F4700101601068D5
:1030800000F00F00072804D2106820F00F00C01DC8
:10309000106028490020274C10340B68264D43F05F
:1030A00001030B6020600B682B400B60136803F07A
:1030B0000F03072B04D9136823F00F03DB1D1360E4
:1030C0001C4C1E4A18341E4B261D371D2060194CFF
:1030D0001C4D28343060261D3860371D23603B1D91
:1030E00035601C1D3A60251D2E1D1860331D2260A1
:1030F0002860326018600A680E4B134C22F480225C
:1031000060330A60186020686FF30F00B0F1005F51
:1031100003D20E490120C1F8080143F2D2000C4944
:10312000024B4A03803B08601A60F0BD88ED00E066
:1031300000200052004402587FEDF6EA80020101AF
:10314000000202020000FF010010005C008000513C
:10315000004000520148FFF724B900009801002404
:103160002DE9F047274B4FF0804A274D02689842DF
:10317000264E274F274C09D0504507D0A84205D0EE
:10318000B04203D0B84201D0A04205D1D1F804C06A
:1031900022F070024CEA0202DFF87CC0DFF87C808B
:1031A0009842DFF87C900FD050450DD0A8420BD04C
:1031B000B04209D0B84207D0A04205D0604503D044
:1031C000404501D0484503D1CD6822F440722A43DE
:1031D0004D6922F080022A43026098428A68C262E6
:1031E0000A68826207D0A04205D0604503D04045FE
:1031F00001D0484501D10969016301214161BDE860
:10320000F08700000000014000040040000800407A
:10321000000C004000040140004001400044014017
:10322000004801403FB514A1D1E9002314A1CDE924
:103230000023D1E90021CDE90221416EB9B1016835
:1032400002AC8A688968C2F34262490F1DF80150D6
:10325000615C2D01B5FBF1F1A0F86A101DF80210B8
:10326000A25C0901B1FBF2F1A0F868103FBD012199
:10327000A0F86A10F8E7000001010103070100004F
:10328000080402040801010190F82810C90706D0BB
:103290000168C36A4A6822F400321A434A6090F80F
:1032A0002810890706D50168036B4A6822F480322A
:1032B0001A434A6090F82810490706D50168436B05
:1032C0004A6822F480221A434A6090F828100907BD
:1032D00006D50168836B4A6822F400421A434A60AB
:1032E00090F82810C90606D50168C36B8A6822F4D5
:1032F00080521A438A6090F82810890606D5016822
:10330000036C8A6822F400521A438A6090F82810ED
:10331000490611D50168436C4A6822F480121A43A9
:103320004A60416CB1F5801F06D10168836C4A6820
:1033300022F4C0021A434A6090F82810090606D504
:103340000168C26C486820F4002010434860704750
:10335000F8B500260446C0F88860FDF781FA0546F6
:1033600020686FF07E470068000708D500222B46D2
:103370004FF400112046009700F0F2F960B9206880
:10338000006840070AD500222B464FF480012046F2
:10339000009700F0E5F908B10320F8BD2020C4F83B
:1033A000800084F87C60C4F884000020F8BD000030
:1033B0002DE9F04304468068D94F87B02268D4E9EC
:1033C0000465E369616E304316681D432843D54B9D
:1033D000002501433E400E4316602068E2684168C4
:1033E00021F44051114341602268A1699A4201D001
:1033F000206A01439668DFF830C3CC4FCC4806EA18
:103400000C060E4396602168666ACA6A22F00F02B3
:103410003243CA622268BA420ED1006800F0380016
:10342000182873D047DCB8B3082879D010286FD19A
:1034300078E028287ED17BE0BE498A4209D1006825
:1034400000F00700062875D2DFE800F0546A6C6EC1
:103450007072B9498A4209D1006800F00700062855
:1034600068D2DFE800F0475D5F616365B3498A4277
:1034700009D1006800F0070006285BD2DFE800F001
:103480003A5052545658AE498A420BD1006800F067
:10349000070006284ED200E010E0DFE800F02B41E4
:1034A00043454749A7498A420AD1006800F03800DD
:1034B000182839D0B7DD2028BBD13CE001203AE004
:1034C000A1498A4209D1006800F00700062831D2DC
:1034D000DFE800F01026282A2C2E9C498A420BD1C6
:1034E000006800F00700062824D2DFE800F0031986
:1034F0001B1D1F2100201EE09A421BD18C48001D7D
:10350000006800F00700062814D202E00CE007E093
:1035100010E0DFE800F0030507090B0D02200AE0C8
:10352000042008E0082006E0102004E0202002E04B
:10353000402000E080208649DFF818829A42864ABF
:103540004FF400434FEA21174FF000064ED11028E8
:103550001AD006DC022809D004280BD008287DD117
:103560000DE020283ED0402878D13DE0FDF7ECFB6F
:10357000014610E06846FDF7F9FB01990BE003A84E
:10358000FDF796FC049906E01068800604D51068E3
:10359000C0F3C100C140C1B3606A676838F8102049
:1035A00007EB4703B1FBF2F0834257D8B0EB073F7C
:1035B00054D8002308461946FCF78CFE0902020283
:1035C00041EA106170084FEA370010183A4671411D
:1035D0000023FCF77FFE614AA0F5407191423DD87F
:1035E00021684CE03946D7E71946D5E7D4F81CC026
:1035F0004FF6EF799C4552D108281AD006DC60B10D
:1036000001280DD0042829D10EE039E0102815D06A
:10361000202840D040287CD13FE0FEF7C7FA01E0E7
:10362000FEF7D6FA014610E06846FDF79FFB0199C8
:103630000BE003A8FDF73CFC049906E01068800647
:1036400004D51068C0F3C100C140C9B1636A6068A5
:1036500038F81330B1FBF3F1490000E059E001EB19
:103660005001B1FBF0F080B2A0F11001494550D8F3
:103670004FF6F0732168C0F3420218401043C8604F
:103680000120A4F86A00A4F868002846E6662667C8
:1036900007B0BDE8F0833946D8E71946D6E70828D1
:1036A00019D005DC58B101280CD0042831D10DE027
:1036B000102815D020282ED040282AD12DE0FEF742
:1036C00075FA01E0FEF784FA014610E06846FDF75E
:1036D0004DFB01990BE003A8FDF7EAFB049906E016
:1036E0001068800605D51068C0F3C100C1400029EC
:1036F000C6D0636A606838F81330B1FBF3F101EBB0
:103700005001B1FBF0F080B2A0F1100149457FF605
:1037100067AF0125B4E73946EBE71946E9E7000052
:10372000F369FFCF000C0058FFF4FF1100100140B7
:10373000544402580044004000480040004C0040FF
:10374000005000400014014000780040007C004020
:103750000090D0030839000800440258FFFC0F0015
:103760002DE9F0479A4617460E460446089D4FF04D
:1037700000094FF0200839E0681C37D0FDF770F8D9
:10378000A0EB0A00A84222D80DB3206801684907BF
:103790002CD5C069C043000528D423684FF40061CC
:1037A000196221680B6823F4D0730B6021688B6861
:1037B00023F001038B60C4F88080C4F88480C4F8CF
:1037C000888000BF032084F87C90BDE8F0872168E2
:1037D0000B6823F4D0730B6021688B6823F001031E
:1037E0008B60C4F88080C4F88480EBE72068C069EF
:1037F00036EA000004D00020B842BDD00020E4E743
:103800000120F9E7FEE70000014A024900F024B870
:103810007D3800081C000024090700284FEA1161C8
:1038200004DB00F1E02080F80014704700F00F0086
:1038300000F1E02080F8141D704702E008C8121F54
:1038400008C1002AFAD170477047002001E001C189
:10385000121F002AFBD170472DE9F04116460F4692
:103860000446002503E03946B047641C6D1C2078EF
:103870000028F8D12846BDE8F081000013B50448BF
:1038800001224FF47A736946FEF742FF00981CBD8F
:103890000C010024FCF7F2FFFFF772FBFFF7FCF8C6
:1038A000FFF7C0F9FFF7C2F8FFF714FBFFF74AF97B
:1038B000FEF7ACFF0F4D40F6B8344FF0FF264FEA4D
:1038C00035672846FEF784FF2046FCF735FE0AA040
:1038D000FFF79AFF3046FEF77BFF2046FCF72CFEF1
:1038E00005A0FFF791FF3846FEF772FF2046FCF770
:1038F00023FEE6E70000FFFF435055D4DACFB9B905
:10390000E42E2E2E0D0A0000010002000400060025
:1039100008000A000C001000200040008000000198
:103920000000000001020304010203040607080965
:103930005039000800000024200000003A38000838
:103940007039000820000024C81100004A3800081F
:103950000000000000000000010000001000000056
:10396000000000000090D0030090D0030000000091
:040000050800029954
:00000001FF
